
QPCembarcado.elf:     file format elf32-littlearm

Sections:
Idx Name          Size      VMA       LMA       File off  Algn
  0 .isr_vector   0000010c  08000000  08000000  00010000  2**0
                  CONTENTS, ALLOC, LOAD, READONLY, DATA
  1 .text         0000212c  0800010c  0800010c  0001010c  2**2
                  CONTENTS, ALLOC, LOAD, READONLY, CODE
  2 .rodata       00000100  08002238  08002238  00012238  2**2
                  CONTENTS, ALLOC, LOAD, READONLY, DATA
  3 .init_array   00000004  08002338  08002338  00012338  2**2
                  CONTENTS, ALLOC, LOAD, DATA
  4 .fini_array   00000004  0800233c  0800233c  0001233c  2**2
                  CONTENTS, ALLOC, LOAD, DATA
  5 .data         0000006c  20000000  08002340  00020000  2**2
                  CONTENTS, ALLOC, LOAD, DATA
  6 .bss          000001e0  2000006c  080023ac  0002006c  2**2
                  ALLOC
  7 ._user_heap_stack 00000600  2000024c  080023ac  0002024c  2**0
                  ALLOC
  8 .ARM.attributes 00000029  00000000  00000000  0002006c  2**0
                  CONTENTS, READONLY
  9 .debug_info   00016832  00000000  00000000  00020095  2**0
                  CONTENTS, READONLY, DEBUGGING
 10 .debug_abbrev 00003e38  00000000  00000000  000368c7  2**0
                  CONTENTS, READONLY, DEBUGGING
 11 .debug_loc    00006036  00000000  00000000  0003a6ff  2**0
                  CONTENTS, READONLY, DEBUGGING
 12 .debug_aranges 000009c8  00000000  00000000  00040738  2**3
                  CONTENTS, READONLY, DEBUGGING
 13 .debug_ranges 00000ba8  00000000  00000000  00041100  2**3
                  CONTENTS, READONLY, DEBUGGING
 14 .debug_line   00005dbc  00000000  00000000  00041ca8  2**0
                  CONTENTS, READONLY, DEBUGGING
 15 .debug_str    000034e1  00000000  00000000  00047a64  2**0
                  CONTENTS, READONLY, DEBUGGING
 16 .comment      0000007c  00000000  00000000  0004af45  2**0
                  CONTENTS, READONLY
 17 .debug_frame  00002014  00000000  00000000  0004afc4  2**2
                  CONTENTS, READONLY, DEBUGGING
 18 .stab         0000009c  00000000  00000000  0004cfd8  2**2
                  CONTENTS, READONLY, DEBUGGING
 19 .stabstr      0000014d  00000000  00000000  0004d074  2**0
                  CONTENTS, READONLY, DEBUGGING

Disassembly of section .text:

0800010c <__do_global_dtors_aux>:
 800010c:	b510      	push	{r4, lr}
 800010e:	4c05      	ldr	r4, [pc, #20]	; (8000124 <__do_global_dtors_aux+0x18>)
 8000110:	7823      	ldrb	r3, [r4, #0]
 8000112:	b933      	cbnz	r3, 8000122 <__do_global_dtors_aux+0x16>
 8000114:	4b04      	ldr	r3, [pc, #16]	; (8000128 <__do_global_dtors_aux+0x1c>)
 8000116:	b113      	cbz	r3, 800011e <__do_global_dtors_aux+0x12>
 8000118:	4804      	ldr	r0, [pc, #16]	; (800012c <__do_global_dtors_aux+0x20>)
 800011a:	f3af 8000 	nop.w
 800011e:	2301      	movs	r3, #1
 8000120:	7023      	strb	r3, [r4, #0]
 8000122:	bd10      	pop	{r4, pc}
 8000124:	2000006c 	.word	0x2000006c
 8000128:	00000000 	.word	0x00000000
 800012c:	08002220 	.word	0x08002220

08000130 <frame_dummy>:
 8000130:	b508      	push	{r3, lr}
 8000132:	4b03      	ldr	r3, [pc, #12]	; (8000140 <frame_dummy+0x10>)
 8000134:	b11b      	cbz	r3, 800013e <frame_dummy+0xe>
 8000136:	4903      	ldr	r1, [pc, #12]	; (8000144 <frame_dummy+0x14>)
 8000138:	4803      	ldr	r0, [pc, #12]	; (8000148 <frame_dummy+0x18>)
 800013a:	f3af 8000 	nop.w
 800013e:	bd08      	pop	{r3, pc}
 8000140:	00000000 	.word	0x00000000
 8000144:	20000070 	.word	0x20000070
 8000148:	08002220 	.word	0x08002220

0800014c <HAL_Init>:
    defined(STM32F102x6) || defined(STM32F102xB) || \
    defined(STM32F103x6) || defined(STM32F103xB) || defined(STM32F103xE) || defined(STM32F103xG) || \
    defined(STM32F105xC) || defined(STM32F107xC)

  /* Prefetch buffer is not available on value line devices */
  __HAL_FLASH_PREFETCH_BUFFER_ENABLE();
 800014c:	4a07      	ldr	r2, [pc, #28]	; (800016c <HAL_Init+0x20>)
{
 800014e:	b508      	push	{r3, lr}
  __HAL_FLASH_PREFETCH_BUFFER_ENABLE();
 8000150:	6813      	ldr	r3, [r2, #0]
#endif
#endif /* PREFETCH_ENABLE */

  /* Set Interrupt Group Priority */
  HAL_NVIC_SetPriorityGrouping(NVIC_PRIORITYGROUP_4);
 8000152:	2003      	movs	r0, #3
  __HAL_FLASH_PREFETCH_BUFFER_ENABLE();
 8000154:	f043 0310 	orr.w	r3, r3, #16
 8000158:	6013      	str	r3, [r2, #0]
  HAL_NVIC_SetPriorityGrouping(NVIC_PRIORITYGROUP_4);
 800015a:	f000 f81b 	bl	8000194 <HAL_NVIC_SetPriorityGrouping>

  /* Use systick as time base source and configure 1ms tick (default clock after Reset is HSI) */
  HAL_InitTick(TICK_INT_PRIORITY);
 800015e:	2000      	movs	r0, #0
 8000160:	f000 fe4c 	bl	8000dfc <HAL_InitTick>

  /* Init the low level hardware */
  HAL_MspInit();
 8000164:	f000 fe28 	bl	8000db8 <HAL_MspInit>

  /* Return function status */
  return HAL_OK;
}
 8000168:	2000      	movs	r0, #0
 800016a:	bd08      	pop	{r3, pc}
 800016c:	40022000 	.word	0x40022000

08000170 <HAL_IncTick>:
  *      implementations in user file.
  * @retval None
  */
__weak void HAL_IncTick(void)
{
  uwTick += uwTickFreq;
 8000170:	4a03      	ldr	r2, [pc, #12]	; (8000180 <HAL_IncTick+0x10>)
 8000172:	4b04      	ldr	r3, [pc, #16]	; (8000184 <HAL_IncTick+0x14>)
 8000174:	6811      	ldr	r1, [r2, #0]
 8000176:	781b      	ldrb	r3, [r3, #0]
 8000178:	440b      	add	r3, r1
 800017a:	6013      	str	r3, [r2, #0]
 800017c:	4770      	bx	lr
 800017e:	bf00      	nop
 8000180:	20000114 	.word	0x20000114
 8000184:	20000000 	.word	0x20000000

08000188 <HAL_GetTick>:
  *       implementations in user file.
  * @retval tick value
  */
__weak uint32_t HAL_GetTick(void)
{
  return uwTick;
 8000188:	4b01      	ldr	r3, [pc, #4]	; (8000190 <HAL_GetTick+0x8>)
 800018a:	6818      	ldr	r0, [r3, #0]
}
 800018c:	4770      	bx	lr
 800018e:	bf00      	nop
 8000190:	20000114 	.word	0x20000114

08000194 <HAL_NVIC_SetPriorityGrouping>:
__STATIC_INLINE void NVIC_SetPriorityGrouping(uint32_t PriorityGroup)
{
  uint32_t reg_value;
  uint32_t PriorityGroupTmp = (PriorityGroup & (uint32_t)0x07UL);             /* only values 0..7 are used          */

  reg_value  =  SCB->AIRCR;                                                   /* read old register configuration    */
 8000194:	4a07      	ldr	r2, [pc, #28]	; (80001b4 <HAL_NVIC_SetPriorityGrouping+0x20>)
  reg_value &= ~((uint32_t)(SCB_AIRCR_VECTKEY_Msk | SCB_AIRCR_PRIGROUP_Msk)); /* clear bits to change               */
  reg_value  =  (reg_value                                   |
                ((uint32_t)0x5FAUL << SCB_AIRCR_VECTKEY_Pos) |
                (PriorityGroupTmp << 8U)                      );              /* Insert write key and priorty group */
 8000196:	0200      	lsls	r0, r0, #8
  reg_value  =  SCB->AIRCR;                                                   /* read old register configuration    */
 8000198:	68d3      	ldr	r3, [r2, #12]
                (PriorityGroupTmp << 8U)                      );              /* Insert write key and priorty group */
 800019a:	f400 60e0 	and.w	r0, r0, #1792	; 0x700
  reg_value &= ~((uint32_t)(SCB_AIRCR_VECTKEY_Msk | SCB_AIRCR_PRIGROUP_Msk)); /* clear bits to change               */
 800019e:	f423 63e0 	bic.w	r3, r3, #1792	; 0x700
 80001a2:	041b      	lsls	r3, r3, #16
 80001a4:	0c1b      	lsrs	r3, r3, #16
 80001a6:	f043 63bf 	orr.w	r3, r3, #100139008	; 0x5f80000
 80001aa:	f443 3300 	orr.w	r3, r3, #131072	; 0x20000
  reg_value  =  (reg_value                                   |
 80001ae:	4303      	orrs	r3, r0
  SCB->AIRCR =  reg_value;
 80001b0:	60d3      	str	r3, [r2, #12]
 80001b2:	4770      	bx	lr
 80001b4:	e000ed00 	.word	0xe000ed00

080001b8 <HAL_NVIC_SetPriority>:
  \details Reads the priority grouping field from the NVIC Interrupt Controller.
  \return                Priority grouping field (SCB->AIRCR [10:8] PRIGROUP field).
 */
__STATIC_INLINE uint32_t NVIC_GetPriorityGrouping(void)
{
  return ((uint32_t)((SCB->AIRCR & SCB_AIRCR_PRIGROUP_Msk) >> SCB_AIRCR_PRIGROUP_Pos));
 80001b8:	4b17      	ldr	r3, [pc, #92]	; (8000218 <HAL_NVIC_SetPriority+0x60>)
  *         This parameter can be a value between 0 and 15
  *         A lower priority value indicates a higher priority.          
  * @retval None
  */
void HAL_NVIC_SetPriority(IRQn_Type IRQn, uint32_t PreemptPriority, uint32_t SubPriority)
{ 
 80001ba:	b530      	push	{r4, r5, lr}
 80001bc:	68dc      	ldr	r4, [r3, #12]
 80001be:	f3c4 2402 	ubfx	r4, r4, #8, #3
{
  uint32_t PriorityGroupTmp = (PriorityGroup & (uint32_t)0x07UL);   /* only values 0..7 are used          */
  uint32_t PreemptPriorityBits;
  uint32_t SubPriorityBits;

  PreemptPriorityBits = ((7UL - PriorityGroupTmp) > (uint32_t)(__NVIC_PRIO_BITS)) ? (uint32_t)(__NVIC_PRIO_BITS) : (uint32_t)(7UL - PriorityGroupTmp);
 80001c2:	f1c4 0307 	rsb	r3, r4, #7
  SubPriorityBits     = ((PriorityGroupTmp + (uint32_t)(__NVIC_PRIO_BITS)) < (uint32_t)7UL) ? (uint32_t)0UL : (uint32_t)((PriorityGroupTmp - 7UL) + (uint32_t)(__NVIC_PRIO_BITS));
 80001c6:	1d25      	adds	r5, r4, #4
  PreemptPriorityBits = ((7UL - PriorityGroupTmp) > (uint32_t)(__NVIC_PRIO_BITS)) ? (uint32_t)(__NVIC_PRIO_BITS) : (uint32_t)(7UL - PriorityGroupTmp);
 80001c8:	2b04      	cmp	r3, #4
 80001ca:	bf28      	it	cs
 80001cc:	2304      	movcs	r3, #4
  SubPriorityBits     = ((PriorityGroupTmp + (uint32_t)(__NVIC_PRIO_BITS)) < (uint32_t)7UL) ? (uint32_t)0UL : (uint32_t)((PriorityGroupTmp - 7UL) + (uint32_t)(__NVIC_PRIO_BITS));
 80001ce:	2d06      	cmp	r5, #6

  return (
           ((PreemptPriority & (uint32_t)((1UL << (PreemptPriorityBits)) - 1UL)) << SubPriorityBits) |
 80001d0:	f04f 0501 	mov.w	r5, #1
  SubPriorityBits     = ((PriorityGroupTmp + (uint32_t)(__NVIC_PRIO_BITS)) < (uint32_t)7UL) ? (uint32_t)0UL : (uint32_t)((PriorityGroupTmp - 7UL) + (uint32_t)(__NVIC_PRIO_BITS));
 80001d4:	bf98      	it	ls
 80001d6:	2400      	movls	r4, #0
           ((PreemptPriority & (uint32_t)((1UL << (PreemptPriorityBits)) - 1UL)) << SubPriorityBits) |
 80001d8:	fa05 f303 	lsl.w	r3, r5, r3
 80001dc:	f103 33ff 	add.w	r3, r3, #4294967295	; 0xffffffff
  SubPriorityBits     = ((PriorityGroupTmp + (uint32_t)(__NVIC_PRIO_BITS)) < (uint32_t)7UL) ? (uint32_t)0UL : (uint32_t)((PriorityGroupTmp - 7UL) + (uint32_t)(__NVIC_PRIO_BITS));
 80001e0:	bf88      	it	hi
 80001e2:	3c03      	subhi	r4, #3
           ((PreemptPriority & (uint32_t)((1UL << (PreemptPriorityBits)) - 1UL)) << SubPriorityBits) |
 80001e4:	4019      	ands	r1, r3
 80001e6:	40a1      	lsls	r1, r4
           ((SubPriority     & (uint32_t)((1UL << (SubPriorityBits    )) - 1UL)))
 80001e8:	fa05 f404 	lsl.w	r4, r5, r4
 80001ec:	3c01      	subs	r4, #1
 80001ee:	4022      	ands	r2, r4
  if ((int32_t)(IRQn) < 0)
 80001f0:	2800      	cmp	r0, #0
           ((PreemptPriority & (uint32_t)((1UL << (PreemptPriorityBits)) - 1UL)) << SubPriorityBits) |
 80001f2:	ea42 0201 	orr.w	r2, r2, r1
 80001f6:	ea4f 1202 	mov.w	r2, r2, lsl #4
    NVIC->IP[((uint32_t)(int32_t)IRQn)]               = (uint8_t)((priority << (8U - __NVIC_PRIO_BITS)) & (uint32_t)0xFFUL);
 80001fa:	bfaf      	iteee	ge
 80001fc:	f100 4060 	addge.w	r0, r0, #3758096384	; 0xe0000000
    SCB->SHP[(((uint32_t)(int32_t)IRQn) & 0xFUL)-4UL] = (uint8_t)((priority << (8U - __NVIC_PRIO_BITS)) & (uint32_t)0xFFUL);
 8000200:	4b06      	ldrlt	r3, [pc, #24]	; (800021c <HAL_NVIC_SetPriority+0x64>)
 8000202:	f000 000f 	andlt.w	r0, r0, #15
 8000206:	b2d2      	uxtblt	r2, r2
    NVIC->IP[((uint32_t)(int32_t)IRQn)]               = (uint8_t)((priority << (8U - __NVIC_PRIO_BITS)) & (uint32_t)0xFFUL);
 8000208:	bfa5      	ittet	ge
 800020a:	b2d2      	uxtbge	r2, r2
 800020c:	f500 4061 	addge.w	r0, r0, #57600	; 0xe100
    SCB->SHP[(((uint32_t)(int32_t)IRQn) & 0xFUL)-4UL] = (uint8_t)((priority << (8U - __NVIC_PRIO_BITS)) & (uint32_t)0xFFUL);
 8000210:	541a      	strblt	r2, [r3, r0]
    NVIC->IP[((uint32_t)(int32_t)IRQn)]               = (uint8_t)((priority << (8U - __NVIC_PRIO_BITS)) & (uint32_t)0xFFUL);
 8000212:	f880 2300 	strbge.w	r2, [r0, #768]	; 0x300
 8000216:	bd30      	pop	{r4, r5, pc}
 8000218:	e000ed00 	.word	0xe000ed00
 800021c:	e000ed14 	.word	0xe000ed14

08000220 <HAL_NVIC_EnableIRQ>:
  NVIC->ISER[(((uint32_t)(int32_t)IRQn) >> 5UL)] = (uint32_t)(1UL << (((uint32_t)(int32_t)IRQn) & 0x1FUL));
 8000220:	2301      	movs	r3, #1
 8000222:	0942      	lsrs	r2, r0, #5
 8000224:	f000 001f 	and.w	r0, r0, #31
 8000228:	fa03 f000 	lsl.w	r0, r3, r0
 800022c:	4b01      	ldr	r3, [pc, #4]	; (8000234 <HAL_NVIC_EnableIRQ+0x14>)
 800022e:	f843 0022 	str.w	r0, [r3, r2, lsl #2]
 8000232:	4770      	bx	lr
 8000234:	e000e100 	.word	0xe000e100

08000238 <HAL_GPIO_Init>:
  * @param  GPIO_Init: pointer to a GPIO_InitTypeDef structure that contains
  *         the configuration information for the specified GPIO peripheral.
  * @retval None
  */
void HAL_GPIO_Init(GPIO_TypeDef  *GPIOx, GPIO_InitTypeDef *GPIO_Init)
{
 8000238:	e92d 4ff7 	stmdb	sp!, {r0, r1, r2, r4, r5, r6, r7, r8, r9, sl, fp, lr}
  uint32_t position;
  uint32_t ioposition = 0x00U;
  uint32_t iocurrent = 0x00U;
  uint32_t temp = 0x00U;
  uint32_t config = 0x00U;
 800023c:	2200      	movs	r2, #0
  assert_param(IS_GPIO_ALL_INSTANCE(GPIOx));
  assert_param(IS_GPIO_PIN(GPIO_Init->Pin));
  assert_param(IS_GPIO_MODE(GPIO_Init->Mode));

  /* Configure the port pins */
  for (position = 0U; position < GPIO_NUMBER; position++)
 800023e:	4616      	mov	r6, r2
 8000240:	4b65      	ldr	r3, [pc, #404]	; (80003d8 <HAL_GPIO_Init+0x1a0>)
    {
      /* Check the Alternate function parameters */
      assert_param(IS_GPIO_AF_INSTANCE(GPIOx));

      /* Based on the required mode, filling config variable with MODEy[1:0] and CNFy[3:2] corresponding bits */
      switch (GPIO_Init->Mode)
 8000242:	f8df e1a4 	ldr.w	lr, [pc, #420]	; 80003e8 <HAL_GPIO_Init+0x1b0>
 8000246:	f8df c1a4 	ldr.w	ip, [pc, #420]	; 80003ec <HAL_GPIO_Init+0x1b4>
    ioposition = (0x01U << position);
 800024a:	f04f 0801 	mov.w	r8, #1
    iocurrent = (uint32_t)(GPIO_Init->Pin) & ioposition;
 800024e:	680c      	ldr	r4, [r1, #0]
    ioposition = (0x01U << position);
 8000250:	fa08 f806 	lsl.w	r8, r8, r6
    iocurrent = (uint32_t)(GPIO_Init->Pin) & ioposition;
 8000254:	ea08 0404 	and.w	r4, r8, r4
    if (iocurrent == ioposition)
 8000258:	45a0      	cmp	r8, r4
 800025a:	d17f      	bne.n	800035c <HAL_GPIO_Init+0x124>
      switch (GPIO_Init->Mode)
 800025c:	684d      	ldr	r5, [r1, #4]
 800025e:	2d12      	cmp	r5, #18
 8000260:	f000 80af 	beq.w	80003c2 <HAL_GPIO_Init+0x18a>
 8000264:	f200 8088 	bhi.w	8000378 <HAL_GPIO_Init+0x140>
 8000268:	2d02      	cmp	r5, #2
 800026a:	f000 80a7 	beq.w	80003bc <HAL_GPIO_Init+0x184>
 800026e:	d87c      	bhi.n	800036a <HAL_GPIO_Init+0x132>
 8000270:	2d00      	cmp	r5, #0
 8000272:	f000 808e 	beq.w	8000392 <HAL_GPIO_Init+0x15a>
 8000276:	2d01      	cmp	r5, #1
 8000278:	f000 809e 	beq.w	80003b8 <HAL_GPIO_Init+0x180>
       in order to address CRH or CRL register*/
      configregister = (iocurrent < GPIO_PIN_8) ? &GPIOx->CRL     : &GPIOx->CRH;
      registeroffset = (iocurrent < GPIO_PIN_8) ? (position << 2U) : ((position - 8U) << 2U);

      /* Apply the new configuration of the pin to the register */
      MODIFY_REG((*configregister), ((GPIO_CRL_MODE0 | GPIO_CRL_CNF0) << registeroffset), (config << registeroffset));
 800027c:	f04f 090f 	mov.w	r9, #15
      configregister = (iocurrent < GPIO_PIN_8) ? &GPIOx->CRL     : &GPIOx->CRH;
 8000280:	2cff      	cmp	r4, #255	; 0xff
 8000282:	bf93      	iteet	ls
 8000284:	4682      	movls	sl, r0
 8000286:	f106 4580 	addhi.w	r5, r6, #1073741824	; 0x40000000
 800028a:	3d08      	subhi	r5, #8
 800028c:	f8d0 b000 	ldrls.w	fp, [r0]
 8000290:	bf92      	itee	ls
 8000292:	00b5      	lslls	r5, r6, #2
 8000294:	f8d0 b004 	ldrhi.w	fp, [r0, #4]
 8000298:	00ad      	lslhi	r5, r5, #2
      MODIFY_REG((*configregister), ((GPIO_CRL_MODE0 | GPIO_CRL_CNF0) << registeroffset), (config << registeroffset));
 800029a:	fa09 f805 	lsl.w	r8, r9, r5
 800029e:	ea2b 0808 	bic.w	r8, fp, r8
 80002a2:	fa02 f505 	lsl.w	r5, r2, r5
      configregister = (iocurrent < GPIO_PIN_8) ? &GPIOx->CRL     : &GPIOx->CRH;
 80002a6:	bf88      	it	hi
 80002a8:	f100 0a04 	addhi.w	sl, r0, #4
      MODIFY_REG((*configregister), ((GPIO_CRL_MODE0 | GPIO_CRL_CNF0) << registeroffset), (config << registeroffset));
 80002ac:	ea48 0505 	orr.w	r5, r8, r5
 80002b0:	f8ca 5000 	str.w	r5, [sl]

      /*--------------------- EXTI Mode Configuration ------------------------*/
      /* Configure the External Interrupt or event for the current IO */
      if ((GPIO_Init->Mode & EXTI_MODE) == EXTI_MODE)
 80002b4:	f8d1 a004 	ldr.w	sl, [r1, #4]
 80002b8:	f01a 5f80 	tst.w	sl, #268435456	; 0x10000000
 80002bc:	d04e      	beq.n	800035c <HAL_GPIO_Init+0x124>
      {
        /* Enable AFIO Clock */
        __HAL_RCC_AFIO_CLK_ENABLE();
 80002be:	4d47      	ldr	r5, [pc, #284]	; (80003dc <HAL_GPIO_Init+0x1a4>)
 80002c0:	4f46      	ldr	r7, [pc, #280]	; (80003dc <HAL_GPIO_Init+0x1a4>)
 80002c2:	69ad      	ldr	r5, [r5, #24]
 80002c4:	f026 0803 	bic.w	r8, r6, #3
 80002c8:	f045 0501 	orr.w	r5, r5, #1
 80002cc:	61bd      	str	r5, [r7, #24]
 80002ce:	69bd      	ldr	r5, [r7, #24]
 80002d0:	f108 4880 	add.w	r8, r8, #1073741824	; 0x40000000
 80002d4:	f005 0501 	and.w	r5, r5, #1
 80002d8:	9501      	str	r5, [sp, #4]
 80002da:	f508 3880 	add.w	r8, r8, #65536	; 0x10000
        temp = AFIO->EXTICR[position >> 2U];
        CLEAR_BIT(temp, (0x0FU) << (4U * (position & 0x03U)));
 80002de:	f006 0b03 	and.w	fp, r6, #3
        __HAL_RCC_AFIO_CLK_ENABLE();
 80002e2:	9d01      	ldr	r5, [sp, #4]
        CLEAR_BIT(temp, (0x0FU) << (4U * (position & 0x03U)));
 80002e4:	ea4f 0b8b 	mov.w	fp, fp, lsl #2
        temp = AFIO->EXTICR[position >> 2U];
 80002e8:	f8d8 5008 	ldr.w	r5, [r8, #8]
        CLEAR_BIT(temp, (0x0FU) << (4U * (position & 0x03U)));
 80002ec:	fa09 f90b 	lsl.w	r9, r9, fp
 80002f0:	ea25 0909 	bic.w	r9, r5, r9
        SET_BIT(temp, (GPIO_GET_INDEX(GPIOx)) << (4U * (position & 0x03U)));
 80002f4:	4d3a      	ldr	r5, [pc, #232]	; (80003e0 <HAL_GPIO_Init+0x1a8>)
 80002f6:	42a8      	cmp	r0, r5
 80002f8:	d068      	beq.n	80003cc <HAL_GPIO_Init+0x194>
 80002fa:	f505 6580 	add.w	r5, r5, #1024	; 0x400
 80002fe:	42a8      	cmp	r0, r5
 8000300:	d066      	beq.n	80003d0 <HAL_GPIO_Init+0x198>
 8000302:	f505 6580 	add.w	r5, r5, #1024	; 0x400
 8000306:	42a8      	cmp	r0, r5
 8000308:	d064      	beq.n	80003d4 <HAL_GPIO_Init+0x19c>
 800030a:	f505 6580 	add.w	r5, r5, #1024	; 0x400
 800030e:	42a8      	cmp	r0, r5
 8000310:	bf0c      	ite	eq
 8000312:	2503      	moveq	r5, #3
 8000314:	2504      	movne	r5, #4
 8000316:	fa05 f50b 	lsl.w	r5, r5, fp
 800031a:	ea45 0509 	orr.w	r5, r5, r9
        AFIO->EXTICR[position >> 2U] = temp;
 800031e:	f8c8 5008 	str.w	r5, [r8, #8]


        /* Configure the interrupt mask */
        if ((GPIO_Init->Mode & GPIO_MODE_IT) == GPIO_MODE_IT)
        {
          SET_BIT(EXTI->IMR, iocurrent);
 8000322:	681d      	ldr	r5, [r3, #0]
        if ((GPIO_Init->Mode & GPIO_MODE_IT) == GPIO_MODE_IT)
 8000324:	f41a 3f80 	tst.w	sl, #65536	; 0x10000
          SET_BIT(EXTI->IMR, iocurrent);
 8000328:	bf14      	ite	ne
 800032a:	4325      	orrne	r5, r4
        }
        else
        {
          CLEAR_BIT(EXTI->IMR, iocurrent);
 800032c:	43a5      	biceq	r5, r4
 800032e:	601d      	str	r5, [r3, #0]
        }

        /* Configure the event mask */
        if ((GPIO_Init->Mode & GPIO_MODE_EVT) == GPIO_MODE_EVT)
        {
          SET_BIT(EXTI->EMR, iocurrent);
 8000330:	685d      	ldr	r5, [r3, #4]
        if ((GPIO_Init->Mode & GPIO_MODE_EVT) == GPIO_MODE_EVT)
 8000332:	f41a 3f00 	tst.w	sl, #131072	; 0x20000
          SET_BIT(EXTI->EMR, iocurrent);
 8000336:	bf14      	ite	ne
 8000338:	4325      	orrne	r5, r4
        }
        else
        {
          CLEAR_BIT(EXTI->EMR, iocurrent);
 800033a:	43a5      	biceq	r5, r4
 800033c:	605d      	str	r5, [r3, #4]
        }

        /* Enable or disable the rising trigger */
        if ((GPIO_Init->Mode & RISING_EDGE) == RISING_EDGE)
        {
          SET_BIT(EXTI->RTSR, iocurrent);
 800033e:	689d      	ldr	r5, [r3, #8]
        if ((GPIO_Init->Mode & RISING_EDGE) == RISING_EDGE)
 8000340:	f41a 1f80 	tst.w	sl, #1048576	; 0x100000
          SET_BIT(EXTI->RTSR, iocurrent);
 8000344:	bf14      	ite	ne
 8000346:	4325      	orrne	r5, r4
        }
        else
        {
          CLEAR_BIT(EXTI->RTSR, iocurrent);
 8000348:	43a5      	biceq	r5, r4
 800034a:	609d      	str	r5, [r3, #8]
        }

        /* Enable or disable the falling trigger */
        if ((GPIO_Init->Mode & FALLING_EDGE) == FALLING_EDGE)
        {
          SET_BIT(EXTI->FTSR, iocurrent);
 800034c:	68dd      	ldr	r5, [r3, #12]
        if ((GPIO_Init->Mode & FALLING_EDGE) == FALLING_EDGE)
 800034e:	f41a 1f00 	tst.w	sl, #2097152	; 0x200000
          SET_BIT(EXTI->FTSR, iocurrent);
 8000352:	bf14      	ite	ne
 8000354:	432c      	orrne	r4, r5
        }
        else
        {
          CLEAR_BIT(EXTI->FTSR, iocurrent);
 8000356:	ea25 0404 	biceq.w	r4, r5, r4
 800035a:	60dc      	str	r4, [r3, #12]
  for (position = 0U; position < GPIO_NUMBER; position++)
 800035c:	3601      	adds	r6, #1
 800035e:	2e10      	cmp	r6, #16
 8000360:	f47f af73 	bne.w	800024a <HAL_GPIO_Init+0x12>
        }
      }
    }
  }
}
 8000364:	b003      	add	sp, #12
 8000366:	e8bd 8ff0 	ldmia.w	sp!, {r4, r5, r6, r7, r8, r9, sl, fp, pc}
      switch (GPIO_Init->Mode)
 800036a:	2d03      	cmp	r5, #3
 800036c:	d022      	beq.n	80003b4 <HAL_GPIO_Init+0x17c>
 800036e:	2d11      	cmp	r5, #17
 8000370:	d184      	bne.n	800027c <HAL_GPIO_Init+0x44>
          config = GPIO_Init->Speed + GPIO_CR_CNF_GP_OUTPUT_OD;
 8000372:	68ca      	ldr	r2, [r1, #12]
 8000374:	3204      	adds	r2, #4
          break;
 8000376:	e781      	b.n	800027c <HAL_GPIO_Init+0x44>
      switch (GPIO_Init->Mode)
 8000378:	4f1a      	ldr	r7, [pc, #104]	; (80003e4 <HAL_GPIO_Init+0x1ac>)
 800037a:	42bd      	cmp	r5, r7
 800037c:	d009      	beq.n	8000392 <HAL_GPIO_Init+0x15a>
 800037e:	d812      	bhi.n	80003a6 <HAL_GPIO_Init+0x16e>
 8000380:	f8df 906c 	ldr.w	r9, [pc, #108]	; 80003f0 <HAL_GPIO_Init+0x1b8>
 8000384:	454d      	cmp	r5, r9
 8000386:	d004      	beq.n	8000392 <HAL_GPIO_Init+0x15a>
 8000388:	f509 3980 	add.w	r9, r9, #65536	; 0x10000
 800038c:	454d      	cmp	r5, r9
 800038e:	f47f af75 	bne.w	800027c <HAL_GPIO_Init+0x44>
          if (GPIO_Init->Pull == GPIO_NOPULL)
 8000392:	688a      	ldr	r2, [r1, #8]
 8000394:	b1c2      	cbz	r2, 80003c8 <HAL_GPIO_Init+0x190>
          else if (GPIO_Init->Pull == GPIO_PULLUP)
 8000396:	2a01      	cmp	r2, #1
            GPIOx->BSRR = ioposition;
 8000398:	bf0c      	ite	eq
 800039a:	f8c0 8010 	streq.w	r8, [r0, #16]
            GPIOx->BRR = ioposition;
 800039e:	f8c0 8014 	strne.w	r8, [r0, #20]
            config = GPIO_CR_MODE_INPUT + GPIO_CR_CNF_INPUT_PU_PD;
 80003a2:	2208      	movs	r2, #8
 80003a4:	e76a      	b.n	800027c <HAL_GPIO_Init+0x44>
      switch (GPIO_Init->Mode)
 80003a6:	4575      	cmp	r5, lr
 80003a8:	d0f3      	beq.n	8000392 <HAL_GPIO_Init+0x15a>
 80003aa:	4565      	cmp	r5, ip
 80003ac:	d0f1      	beq.n	8000392 <HAL_GPIO_Init+0x15a>
 80003ae:	f8df 9044 	ldr.w	r9, [pc, #68]	; 80003f4 <HAL_GPIO_Init+0x1bc>
 80003b2:	e7eb      	b.n	800038c <HAL_GPIO_Init+0x154>
          config = GPIO_CR_MODE_INPUT + GPIO_CR_CNF_ANALOG;
 80003b4:	2200      	movs	r2, #0
 80003b6:	e761      	b.n	800027c <HAL_GPIO_Init+0x44>
          config = GPIO_Init->Speed + GPIO_CR_CNF_GP_OUTPUT_PP;
 80003b8:	68ca      	ldr	r2, [r1, #12]
          break;
 80003ba:	e75f      	b.n	800027c <HAL_GPIO_Init+0x44>
          config = GPIO_Init->Speed + GPIO_CR_CNF_AF_OUTPUT_PP;
 80003bc:	68ca      	ldr	r2, [r1, #12]
 80003be:	3208      	adds	r2, #8
          break;
 80003c0:	e75c      	b.n	800027c <HAL_GPIO_Init+0x44>
          config = GPIO_Init->Speed + GPIO_CR_CNF_AF_OUTPUT_OD;
 80003c2:	68ca      	ldr	r2, [r1, #12]
 80003c4:	320c      	adds	r2, #12
          break;
 80003c6:	e759      	b.n	800027c <HAL_GPIO_Init+0x44>
            config = GPIO_CR_MODE_INPUT + GPIO_CR_CNF_INPUT_FLOATING;
 80003c8:	2204      	movs	r2, #4
 80003ca:	e757      	b.n	800027c <HAL_GPIO_Init+0x44>
        SET_BIT(temp, (GPIO_GET_INDEX(GPIOx)) << (4U * (position & 0x03U)));
 80003cc:	2500      	movs	r5, #0
 80003ce:	e7a2      	b.n	8000316 <HAL_GPIO_Init+0xde>
 80003d0:	2501      	movs	r5, #1
 80003d2:	e7a0      	b.n	8000316 <HAL_GPIO_Init+0xde>
 80003d4:	2502      	movs	r5, #2
 80003d6:	e79e      	b.n	8000316 <HAL_GPIO_Init+0xde>
 80003d8:	40010400 	.word	0x40010400
 80003dc:	40021000 	.word	0x40021000
 80003e0:	40010800 	.word	0x40010800
 80003e4:	10210000 	.word	0x10210000
 80003e8:	10310000 	.word	0x10310000
 80003ec:	10320000 	.word	0x10320000
 80003f0:	10110000 	.word	0x10110000
 80003f4:	10220000 	.word	0x10220000

080003f8 <HAL_GPIO_WritePin>:
{
  /* Check the parameters */
  assert_param(IS_GPIO_PIN(GPIO_Pin));
  assert_param(IS_GPIO_PIN_ACTION(PinState));

  if (PinState != GPIO_PIN_RESET)
 80003f8:	b10a      	cbz	r2, 80003fe <HAL_GPIO_WritePin+0x6>
  {
    GPIOx->BSRR = GPIO_Pin;
  }
  else
  {
    GPIOx->BSRR = (uint32_t)GPIO_Pin << 16U;
 80003fa:	6101      	str	r1, [r0, #16]
 80003fc:	4770      	bx	lr
 80003fe:	0409      	lsls	r1, r1, #16
 8000400:	e7fb      	b.n	80003fa <HAL_GPIO_WritePin+0x2>
	...

08000404 <HAL_RCC_OscConfig>:
  /* Check the parameters */
  assert_param(RCC_OscInitStruct != NULL);
  assert_param(IS_RCC_OSCILLATORTYPE(RCC_OscInitStruct->OscillatorType));
  
  /*------------------------------- HSE Configuration ------------------------*/
  if(((RCC_OscInitStruct->OscillatorType) & RCC_OSCILLATORTYPE_HSE) == RCC_OSCILLATORTYPE_HSE)
 8000404:	6803      	ldr	r3, [r0, #0]
{
 8000406:	e92d 41f3 	stmdb	sp!, {r0, r1, r4, r5, r6, r7, r8, lr}
  if(((RCC_OscInitStruct->OscillatorType) & RCC_OSCILLATORTYPE_HSE) == RCC_OSCILLATORTYPE_HSE)
 800040a:	07db      	lsls	r3, r3, #31
{
 800040c:	4605      	mov	r5, r0
  if(((RCC_OscInitStruct->OscillatorType) & RCC_OSCILLATORTYPE_HSE) == RCC_OSCILLATORTYPE_HSE)
 800040e:	d410      	bmi.n	8000432 <HAL_RCC_OscConfig+0x2e>
        }
      }
    }
  }
  /*----------------------------- HSI Configuration --------------------------*/ 
  if(((RCC_OscInitStruct->OscillatorType) & RCC_OSCILLATORTYPE_HSI) == RCC_OSCILLATORTYPE_HSI)
 8000410:	682b      	ldr	r3, [r5, #0]
 8000412:	079f      	lsls	r7, r3, #30
 8000414:	d45e      	bmi.n	80004d4 <HAL_RCC_OscConfig+0xd0>
        }
      }
    }
  }
  /*------------------------------ LSI Configuration -------------------------*/ 
  if(((RCC_OscInitStruct->OscillatorType) & RCC_OSCILLATORTYPE_LSI) == RCC_OSCILLATORTYPE_LSI)
 8000416:	682b      	ldr	r3, [r5, #0]
 8000418:	0719      	lsls	r1, r3, #28
 800041a:	f100 8095 	bmi.w	8000548 <HAL_RCC_OscConfig+0x144>
        }
      }
    }
  }
  /*------------------------------ LSE Configuration -------------------------*/ 
  if(((RCC_OscInitStruct->OscillatorType) & RCC_OSCILLATORTYPE_LSE) == RCC_OSCILLATORTYPE_LSE)
 800041e:	682b      	ldr	r3, [r5, #0]
 8000420:	075a      	lsls	r2, r3, #29
 8000422:	f100 80bf 	bmi.w	80005a4 <HAL_RCC_OscConfig+0x1a0>

#endif /* RCC_CR_PLL2ON */
  /*-------------------------------- PLL Configuration -----------------------*/
  /* Check the parameters */
  assert_param(IS_RCC_PLL(RCC_OscInitStruct->PLL.PLLState));
  if ((RCC_OscInitStruct->PLL.PLLState) != RCC_PLL_NONE)
 8000426:	69ea      	ldr	r2, [r5, #28]
 8000428:	2a00      	cmp	r2, #0
 800042a:	f040 812d 	bne.w	8000688 <HAL_RCC_OscConfig+0x284>
    {
      return HAL_ERROR;
    }
  }
  
  return HAL_OK;
 800042e:	2000      	movs	r0, #0
 8000430:	e014      	b.n	800045c <HAL_RCC_OscConfig+0x58>
    if((__HAL_RCC_GET_SYSCLK_SOURCE() == RCC_SYSCLKSOURCE_STATUS_HSE) 
 8000432:	4c90      	ldr	r4, [pc, #576]	; (8000674 <HAL_RCC_OscConfig+0x270>)
 8000434:	6863      	ldr	r3, [r4, #4]
 8000436:	f003 030c 	and.w	r3, r3, #12
 800043a:	2b04      	cmp	r3, #4
 800043c:	d007      	beq.n	800044e <HAL_RCC_OscConfig+0x4a>
       || ((__HAL_RCC_GET_SYSCLK_SOURCE() == RCC_SYSCLKSOURCE_STATUS_PLLCLK) && (__HAL_RCC_GET_PLL_OSCSOURCE() == RCC_PLLSOURCE_HSE)))
 800043e:	6863      	ldr	r3, [r4, #4]
 8000440:	f003 030c 	and.w	r3, r3, #12
 8000444:	2b08      	cmp	r3, #8
 8000446:	d10c      	bne.n	8000462 <HAL_RCC_OscConfig+0x5e>
 8000448:	6863      	ldr	r3, [r4, #4]
 800044a:	03de      	lsls	r6, r3, #15
 800044c:	d509      	bpl.n	8000462 <HAL_RCC_OscConfig+0x5e>
      if((__HAL_RCC_GET_FLAG(RCC_FLAG_HSERDY) != RESET) && (RCC_OscInitStruct->HSEState == RCC_HSE_OFF))
 800044e:	6823      	ldr	r3, [r4, #0]
 8000450:	039c      	lsls	r4, r3, #14
 8000452:	d5dd      	bpl.n	8000410 <HAL_RCC_OscConfig+0xc>
 8000454:	686b      	ldr	r3, [r5, #4]
 8000456:	2b00      	cmp	r3, #0
 8000458:	d1da      	bne.n	8000410 <HAL_RCC_OscConfig+0xc>
        return HAL_ERROR;
 800045a:	2001      	movs	r0, #1
}
 800045c:	b002      	add	sp, #8
 800045e:	e8bd 81f0 	ldmia.w	sp!, {r4, r5, r6, r7, r8, pc}
      __HAL_RCC_HSE_CONFIG(RCC_OscInitStruct->HSEState);
 8000462:	686b      	ldr	r3, [r5, #4]
 8000464:	f5b3 3f80 	cmp.w	r3, #65536	; 0x10000
 8000468:	d110      	bne.n	800048c <HAL_RCC_OscConfig+0x88>
 800046a:	6823      	ldr	r3, [r4, #0]
 800046c:	f443 3380 	orr.w	r3, r3, #65536	; 0x10000
 8000470:	6023      	str	r3, [r4, #0]
        tickstart = HAL_GetTick();
 8000472:	f7ff fe89 	bl	8000188 <HAL_GetTick>
 8000476:	4606      	mov	r6, r0
        while(__HAL_RCC_GET_FLAG(RCC_FLAG_HSERDY) == RESET)
 8000478:	6823      	ldr	r3, [r4, #0]
 800047a:	0398      	lsls	r0, r3, #14
 800047c:	d4c8      	bmi.n	8000410 <HAL_RCC_OscConfig+0xc>
          if((HAL_GetTick() - tickstart ) > HSE_TIMEOUT_VALUE)
 800047e:	f7ff fe83 	bl	8000188 <HAL_GetTick>
 8000482:	1b80      	subs	r0, r0, r6
 8000484:	2864      	cmp	r0, #100	; 0x64
 8000486:	d9f7      	bls.n	8000478 <HAL_RCC_OscConfig+0x74>
            return HAL_TIMEOUT;
 8000488:	2003      	movs	r0, #3
 800048a:	e7e7      	b.n	800045c <HAL_RCC_OscConfig+0x58>
      __HAL_RCC_HSE_CONFIG(RCC_OscInitStruct->HSEState);
 800048c:	b99b      	cbnz	r3, 80004b6 <HAL_RCC_OscConfig+0xb2>
 800048e:	6823      	ldr	r3, [r4, #0]
 8000490:	f423 3380 	bic.w	r3, r3, #65536	; 0x10000
 8000494:	6023      	str	r3, [r4, #0]
 8000496:	6823      	ldr	r3, [r4, #0]
 8000498:	f423 2380 	bic.w	r3, r3, #262144	; 0x40000
 800049c:	6023      	str	r3, [r4, #0]
        tickstart = HAL_GetTick();
 800049e:	f7ff fe73 	bl	8000188 <HAL_GetTick>
 80004a2:	4606      	mov	r6, r0
        while(__HAL_RCC_GET_FLAG(RCC_FLAG_HSERDY) != RESET)
 80004a4:	6823      	ldr	r3, [r4, #0]
 80004a6:	0399      	lsls	r1, r3, #14
 80004a8:	d5b2      	bpl.n	8000410 <HAL_RCC_OscConfig+0xc>
           if((HAL_GetTick() - tickstart ) > HSE_TIMEOUT_VALUE)
 80004aa:	f7ff fe6d 	bl	8000188 <HAL_GetTick>
 80004ae:	1b80      	subs	r0, r0, r6
 80004b0:	2864      	cmp	r0, #100	; 0x64
 80004b2:	d9f7      	bls.n	80004a4 <HAL_RCC_OscConfig+0xa0>
 80004b4:	e7e8      	b.n	8000488 <HAL_RCC_OscConfig+0x84>
      __HAL_RCC_HSE_CONFIG(RCC_OscInitStruct->HSEState);
 80004b6:	f5b3 2fa0 	cmp.w	r3, #327680	; 0x50000
 80004ba:	6823      	ldr	r3, [r4, #0]
 80004bc:	d103      	bne.n	80004c6 <HAL_RCC_OscConfig+0xc2>
 80004be:	f443 2380 	orr.w	r3, r3, #262144	; 0x40000
 80004c2:	6023      	str	r3, [r4, #0]
 80004c4:	e7d1      	b.n	800046a <HAL_RCC_OscConfig+0x66>
 80004c6:	f423 3380 	bic.w	r3, r3, #65536	; 0x10000
 80004ca:	6023      	str	r3, [r4, #0]
 80004cc:	6823      	ldr	r3, [r4, #0]
 80004ce:	f423 2380 	bic.w	r3, r3, #262144	; 0x40000
 80004d2:	e7cd      	b.n	8000470 <HAL_RCC_OscConfig+0x6c>
    if((__HAL_RCC_GET_SYSCLK_SOURCE() == RCC_SYSCLKSOURCE_STATUS_HSI) 
 80004d4:	4c67      	ldr	r4, [pc, #412]	; (8000674 <HAL_RCC_OscConfig+0x270>)
 80004d6:	6863      	ldr	r3, [r4, #4]
 80004d8:	f013 0f0c 	tst.w	r3, #12
 80004dc:	d007      	beq.n	80004ee <HAL_RCC_OscConfig+0xea>
       || ((__HAL_RCC_GET_SYSCLK_SOURCE() == RCC_SYSCLKSOURCE_STATUS_PLLCLK) && (__HAL_RCC_GET_PLL_OSCSOURCE() == RCC_PLLSOURCE_HSI_DIV2)))
 80004de:	6863      	ldr	r3, [r4, #4]
 80004e0:	f003 030c 	and.w	r3, r3, #12
 80004e4:	2b08      	cmp	r3, #8
 80004e6:	d110      	bne.n	800050a <HAL_RCC_OscConfig+0x106>
 80004e8:	6863      	ldr	r3, [r4, #4]
 80004ea:	03da      	lsls	r2, r3, #15
 80004ec:	d40d      	bmi.n	800050a <HAL_RCC_OscConfig+0x106>
      if((__HAL_RCC_GET_FLAG(RCC_FLAG_HSIRDY) != RESET) && (RCC_OscInitStruct->HSIState != RCC_HSI_ON))
 80004ee:	6823      	ldr	r3, [r4, #0]
 80004f0:	079b      	lsls	r3, r3, #30
 80004f2:	d502      	bpl.n	80004fa <HAL_RCC_OscConfig+0xf6>
 80004f4:	692b      	ldr	r3, [r5, #16]
 80004f6:	2b01      	cmp	r3, #1
 80004f8:	d1af      	bne.n	800045a <HAL_RCC_OscConfig+0x56>
        __HAL_RCC_HSI_CALIBRATIONVALUE_ADJUST(RCC_OscInitStruct->HSICalibrationValue);
 80004fa:	6823      	ldr	r3, [r4, #0]
 80004fc:	696a      	ldr	r2, [r5, #20]
 80004fe:	f023 03f8 	bic.w	r3, r3, #248	; 0xf8
 8000502:	ea43 03c2 	orr.w	r3, r3, r2, lsl #3
 8000506:	6023      	str	r3, [r4, #0]
 8000508:	e785      	b.n	8000416 <HAL_RCC_OscConfig+0x12>
      if(RCC_OscInitStruct->HSIState != RCC_HSI_OFF)
 800050a:	692a      	ldr	r2, [r5, #16]
 800050c:	4b5a      	ldr	r3, [pc, #360]	; (8000678 <HAL_RCC_OscConfig+0x274>)
 800050e:	b16a      	cbz	r2, 800052c <HAL_RCC_OscConfig+0x128>
        __HAL_RCC_HSI_ENABLE();
 8000510:	2201      	movs	r2, #1
 8000512:	601a      	str	r2, [r3, #0]
        tickstart = HAL_GetTick();
 8000514:	f7ff fe38 	bl	8000188 <HAL_GetTick>
 8000518:	4606      	mov	r6, r0
        while(__HAL_RCC_GET_FLAG(RCC_FLAG_HSIRDY) == RESET)
 800051a:	6823      	ldr	r3, [r4, #0]
 800051c:	079f      	lsls	r7, r3, #30
 800051e:	d4ec      	bmi.n	80004fa <HAL_RCC_OscConfig+0xf6>
          if((HAL_GetTick() - tickstart ) > HSI_TIMEOUT_VALUE)
 8000520:	f7ff fe32 	bl	8000188 <HAL_GetTick>
 8000524:	1b80      	subs	r0, r0, r6
 8000526:	2802      	cmp	r0, #2
 8000528:	d9f7      	bls.n	800051a <HAL_RCC_OscConfig+0x116>
 800052a:	e7ad      	b.n	8000488 <HAL_RCC_OscConfig+0x84>
        __HAL_RCC_HSI_DISABLE();
 800052c:	601a      	str	r2, [r3, #0]
        tickstart = HAL_GetTick();
 800052e:	f7ff fe2b 	bl	8000188 <HAL_GetTick>
 8000532:	4606      	mov	r6, r0
        while(__HAL_RCC_GET_FLAG(RCC_FLAG_HSIRDY) != RESET)
 8000534:	6823      	ldr	r3, [r4, #0]
 8000536:	0798      	lsls	r0, r3, #30
 8000538:	f57f af6d 	bpl.w	8000416 <HAL_RCC_OscConfig+0x12>
          if((HAL_GetTick() - tickstart ) > HSI_TIMEOUT_VALUE)
 800053c:	f7ff fe24 	bl	8000188 <HAL_GetTick>
 8000540:	1b80      	subs	r0, r0, r6
 8000542:	2802      	cmp	r0, #2
 8000544:	d9f6      	bls.n	8000534 <HAL_RCC_OscConfig+0x130>
 8000546:	e79f      	b.n	8000488 <HAL_RCC_OscConfig+0x84>
    if(RCC_OscInitStruct->LSIState != RCC_LSI_OFF)
 8000548:	69aa      	ldr	r2, [r5, #24]
 800054a:	4c4a      	ldr	r4, [pc, #296]	; (8000674 <HAL_RCC_OscConfig+0x270>)
 800054c:	4b4b      	ldr	r3, [pc, #300]	; (800067c <HAL_RCC_OscConfig+0x278>)
 800054e:	b1da      	cbz	r2, 8000588 <HAL_RCC_OscConfig+0x184>
      __HAL_RCC_LSI_ENABLE();
 8000550:	2201      	movs	r2, #1
 8000552:	601a      	str	r2, [r3, #0]
      tickstart = HAL_GetTick();
 8000554:	f7ff fe18 	bl	8000188 <HAL_GetTick>
 8000558:	4606      	mov	r6, r0
      while(__HAL_RCC_GET_FLAG(RCC_FLAG_LSIRDY) == RESET)
 800055a:	6a63      	ldr	r3, [r4, #36]	; 0x24
 800055c:	079b      	lsls	r3, r3, #30
 800055e:	d50d      	bpl.n	800057c <HAL_RCC_OscConfig+0x178>
  * @param  mdelay: specifies the delay time length, in milliseconds.
  * @retval None
  */
static void RCC_Delay(uint32_t mdelay)
{
  __IO uint32_t Delay = mdelay * (SystemCoreClock / 8U / 1000U);
 8000560:	f44f 52fa 	mov.w	r2, #8000	; 0x1f40
 8000564:	4b46      	ldr	r3, [pc, #280]	; (8000680 <HAL_RCC_OscConfig+0x27c>)
 8000566:	681b      	ldr	r3, [r3, #0]
 8000568:	fbb3 f3f2 	udiv	r3, r3, r2
 800056c:	9301      	str	r3, [sp, #4]
  \brief   No Operation
  \details No Operation does nothing. This instruction can be used for code alignment purposes.
 */
__attribute__((always_inline)) __STATIC_INLINE void __NOP(void)
{
  __ASM volatile ("nop");
 800056e:	bf00      	nop
  do 
  {
    __NOP();
  } 
  while (Delay --);
 8000570:	9b01      	ldr	r3, [sp, #4]
 8000572:	1e5a      	subs	r2, r3, #1
 8000574:	9201      	str	r2, [sp, #4]
 8000576:	2b00      	cmp	r3, #0
 8000578:	d1f9      	bne.n	800056e <HAL_RCC_OscConfig+0x16a>
 800057a:	e750      	b.n	800041e <HAL_RCC_OscConfig+0x1a>
        if((HAL_GetTick() - tickstart ) > LSI_TIMEOUT_VALUE)
 800057c:	f7ff fe04 	bl	8000188 <HAL_GetTick>
 8000580:	1b80      	subs	r0, r0, r6
 8000582:	2802      	cmp	r0, #2
 8000584:	d9e9      	bls.n	800055a <HAL_RCC_OscConfig+0x156>
 8000586:	e77f      	b.n	8000488 <HAL_RCC_OscConfig+0x84>
      __HAL_RCC_LSI_DISABLE();
 8000588:	601a      	str	r2, [r3, #0]
      tickstart = HAL_GetTick();
 800058a:	f7ff fdfd 	bl	8000188 <HAL_GetTick>
 800058e:	4606      	mov	r6, r0
      while(__HAL_RCC_GET_FLAG(RCC_FLAG_LSIRDY) != RESET)
 8000590:	6a63      	ldr	r3, [r4, #36]	; 0x24
 8000592:	079f      	lsls	r7, r3, #30
 8000594:	f57f af43 	bpl.w	800041e <HAL_RCC_OscConfig+0x1a>
        if((HAL_GetTick() - tickstart ) > LSI_TIMEOUT_VALUE)
 8000598:	f7ff fdf6 	bl	8000188 <HAL_GetTick>
 800059c:	1b80      	subs	r0, r0, r6
 800059e:	2802      	cmp	r0, #2
 80005a0:	d9f6      	bls.n	8000590 <HAL_RCC_OscConfig+0x18c>
 80005a2:	e771      	b.n	8000488 <HAL_RCC_OscConfig+0x84>
    if(__HAL_RCC_PWR_IS_CLK_DISABLED())
 80005a4:	4c33      	ldr	r4, [pc, #204]	; (8000674 <HAL_RCC_OscConfig+0x270>)
 80005a6:	69e3      	ldr	r3, [r4, #28]
 80005a8:	00d8      	lsls	r0, r3, #3
 80005aa:	d424      	bmi.n	80005f6 <HAL_RCC_OscConfig+0x1f2>
      pwrclkchanged = SET;
 80005ac:	2701      	movs	r7, #1
      __HAL_RCC_PWR_CLK_ENABLE();
 80005ae:	69e3      	ldr	r3, [r4, #28]
 80005b0:	f043 5380 	orr.w	r3, r3, #268435456	; 0x10000000
 80005b4:	61e3      	str	r3, [r4, #28]
 80005b6:	69e3      	ldr	r3, [r4, #28]
 80005b8:	f003 5380 	and.w	r3, r3, #268435456	; 0x10000000
 80005bc:	9300      	str	r3, [sp, #0]
 80005be:	9b00      	ldr	r3, [sp, #0]
    if(HAL_IS_BIT_CLR(PWR->CR, PWR_CR_DBP))
 80005c0:	4e30      	ldr	r6, [pc, #192]	; (8000684 <HAL_RCC_OscConfig+0x280>)
 80005c2:	6833      	ldr	r3, [r6, #0]
 80005c4:	05d9      	lsls	r1, r3, #23
 80005c6:	d518      	bpl.n	80005fa <HAL_RCC_OscConfig+0x1f6>
    __HAL_RCC_LSE_CONFIG(RCC_OscInitStruct->LSEState);
 80005c8:	68eb      	ldr	r3, [r5, #12]
 80005ca:	2b01      	cmp	r3, #1
 80005cc:	d126      	bne.n	800061c <HAL_RCC_OscConfig+0x218>
 80005ce:	6a23      	ldr	r3, [r4, #32]
 80005d0:	f043 0301 	orr.w	r3, r3, #1
 80005d4:	6223      	str	r3, [r4, #32]
      tickstart = HAL_GetTick();
 80005d6:	f7ff fdd7 	bl	8000188 <HAL_GetTick>
        if((HAL_GetTick() - tickstart ) > RCC_LSE_TIMEOUT_VALUE)
 80005da:	f241 3688 	movw	r6, #5000	; 0x1388
      tickstart = HAL_GetTick();
 80005de:	4680      	mov	r8, r0
      while(__HAL_RCC_GET_FLAG(RCC_FLAG_LSERDY) == RESET)
 80005e0:	6a23      	ldr	r3, [r4, #32]
 80005e2:	079b      	lsls	r3, r3, #30
 80005e4:	d53f      	bpl.n	8000666 <HAL_RCC_OscConfig+0x262>
    if(pwrclkchanged == SET)
 80005e6:	2f00      	cmp	r7, #0
 80005e8:	f43f af1d 	beq.w	8000426 <HAL_RCC_OscConfig+0x22>
      __HAL_RCC_PWR_CLK_DISABLE();
 80005ec:	69e3      	ldr	r3, [r4, #28]
 80005ee:	f023 5380 	bic.w	r3, r3, #268435456	; 0x10000000
 80005f2:	61e3      	str	r3, [r4, #28]
 80005f4:	e717      	b.n	8000426 <HAL_RCC_OscConfig+0x22>
    FlagStatus       pwrclkchanged = RESET;
 80005f6:	2700      	movs	r7, #0
 80005f8:	e7e2      	b.n	80005c0 <HAL_RCC_OscConfig+0x1bc>
      SET_BIT(PWR->CR, PWR_CR_DBP);
 80005fa:	6833      	ldr	r3, [r6, #0]
 80005fc:	f443 7380 	orr.w	r3, r3, #256	; 0x100
 8000600:	6033      	str	r3, [r6, #0]
      tickstart = HAL_GetTick();
 8000602:	f7ff fdc1 	bl	8000188 <HAL_GetTick>
 8000606:	4680      	mov	r8, r0
      while(HAL_IS_BIT_CLR(PWR->CR, PWR_CR_DBP))
 8000608:	6833      	ldr	r3, [r6, #0]
 800060a:	05da      	lsls	r2, r3, #23
 800060c:	d4dc      	bmi.n	80005c8 <HAL_RCC_OscConfig+0x1c4>
        if((HAL_GetTick() - tickstart) > RCC_DBP_TIMEOUT_VALUE)
 800060e:	f7ff fdbb 	bl	8000188 <HAL_GetTick>
 8000612:	eba0 0008 	sub.w	r0, r0, r8
 8000616:	2864      	cmp	r0, #100	; 0x64
 8000618:	d9f6      	bls.n	8000608 <HAL_RCC_OscConfig+0x204>
 800061a:	e735      	b.n	8000488 <HAL_RCC_OscConfig+0x84>
    __HAL_RCC_LSE_CONFIG(RCC_OscInitStruct->LSEState);
 800061c:	b9ab      	cbnz	r3, 800064a <HAL_RCC_OscConfig+0x246>
 800061e:	6a23      	ldr	r3, [r4, #32]
        if((HAL_GetTick() - tickstart ) > RCC_LSE_TIMEOUT_VALUE)
 8000620:	f241 3888 	movw	r8, #5000	; 0x1388
    __HAL_RCC_LSE_CONFIG(RCC_OscInitStruct->LSEState);
 8000624:	f023 0301 	bic.w	r3, r3, #1
 8000628:	6223      	str	r3, [r4, #32]
 800062a:	6a23      	ldr	r3, [r4, #32]
 800062c:	f023 0304 	bic.w	r3, r3, #4
 8000630:	6223      	str	r3, [r4, #32]
      tickstart = HAL_GetTick();
 8000632:	f7ff fda9 	bl	8000188 <HAL_GetTick>
 8000636:	4606      	mov	r6, r0
      while(__HAL_RCC_GET_FLAG(RCC_FLAG_LSERDY) != RESET)
 8000638:	6a23      	ldr	r3, [r4, #32]
 800063a:	0798      	lsls	r0, r3, #30
 800063c:	d5d3      	bpl.n	80005e6 <HAL_RCC_OscConfig+0x1e2>
        if((HAL_GetTick() - tickstart ) > RCC_LSE_TIMEOUT_VALUE)
 800063e:	f7ff fda3 	bl	8000188 <HAL_GetTick>
 8000642:	1b80      	subs	r0, r0, r6
 8000644:	4540      	cmp	r0, r8
 8000646:	d9f7      	bls.n	8000638 <HAL_RCC_OscConfig+0x234>
 8000648:	e71e      	b.n	8000488 <HAL_RCC_OscConfig+0x84>
    __HAL_RCC_LSE_CONFIG(RCC_OscInitStruct->LSEState);
 800064a:	2b05      	cmp	r3, #5
 800064c:	6a23      	ldr	r3, [r4, #32]
 800064e:	d103      	bne.n	8000658 <HAL_RCC_OscConfig+0x254>
 8000650:	f043 0304 	orr.w	r3, r3, #4
 8000654:	6223      	str	r3, [r4, #32]
 8000656:	e7ba      	b.n	80005ce <HAL_RCC_OscConfig+0x1ca>
 8000658:	f023 0301 	bic.w	r3, r3, #1
 800065c:	6223      	str	r3, [r4, #32]
 800065e:	6a23      	ldr	r3, [r4, #32]
 8000660:	f023 0304 	bic.w	r3, r3, #4
 8000664:	e7b6      	b.n	80005d4 <HAL_RCC_OscConfig+0x1d0>
        if((HAL_GetTick() - tickstart ) > RCC_LSE_TIMEOUT_VALUE)
 8000666:	f7ff fd8f 	bl	8000188 <HAL_GetTick>
 800066a:	eba0 0008 	sub.w	r0, r0, r8
 800066e:	42b0      	cmp	r0, r6
 8000670:	d9b6      	bls.n	80005e0 <HAL_RCC_OscConfig+0x1dc>
 8000672:	e709      	b.n	8000488 <HAL_RCC_OscConfig+0x84>
 8000674:	40021000 	.word	0x40021000
 8000678:	42420000 	.word	0x42420000
 800067c:	42420480 	.word	0x42420480
 8000680:	20000004 	.word	0x20000004
 8000684:	40007000 	.word	0x40007000
    if(__HAL_RCC_GET_SYSCLK_SOURCE() != RCC_SYSCLKSOURCE_STATUS_PLLCLK)
 8000688:	4c22      	ldr	r4, [pc, #136]	; (8000714 <HAL_RCC_OscConfig+0x310>)
 800068a:	6863      	ldr	r3, [r4, #4]
 800068c:	f003 030c 	and.w	r3, r3, #12
 8000690:	2b08      	cmp	r3, #8
 8000692:	f43f aee2 	beq.w	800045a <HAL_RCC_OscConfig+0x56>
 8000696:	2300      	movs	r3, #0
 8000698:	4e1f      	ldr	r6, [pc, #124]	; (8000718 <HAL_RCC_OscConfig+0x314>)
      if((RCC_OscInitStruct->PLL.PLLState) == RCC_PLL_ON)
 800069a:	2a02      	cmp	r2, #2
        __HAL_RCC_PLL_DISABLE();
 800069c:	6033      	str	r3, [r6, #0]
      if((RCC_OscInitStruct->PLL.PLLState) == RCC_PLL_ON)
 800069e:	d12b      	bne.n	80006f8 <HAL_RCC_OscConfig+0x2f4>
        tickstart = HAL_GetTick();
 80006a0:	f7ff fd72 	bl	8000188 <HAL_GetTick>
 80006a4:	4607      	mov	r7, r0
        while(__HAL_RCC_GET_FLAG(RCC_FLAG_PLLRDY)  != RESET)
 80006a6:	6823      	ldr	r3, [r4, #0]
 80006a8:	0199      	lsls	r1, r3, #6
 80006aa:	d41f      	bmi.n	80006ec <HAL_RCC_OscConfig+0x2e8>
        if(RCC_OscInitStruct->PLL.PLLSource == RCC_PLLSOURCE_HSE)
 80006ac:	6a2b      	ldr	r3, [r5, #32]
 80006ae:	f5b3 3f80 	cmp.w	r3, #65536	; 0x10000
 80006b2:	d105      	bne.n	80006c0 <HAL_RCC_OscConfig+0x2bc>
          __HAL_RCC_HSE_PREDIV_CONFIG(RCC_OscInitStruct->HSEPredivValue);
 80006b4:	6862      	ldr	r2, [r4, #4]
 80006b6:	68a9      	ldr	r1, [r5, #8]
 80006b8:	f422 3200 	bic.w	r2, r2, #131072	; 0x20000
 80006bc:	430a      	orrs	r2, r1
 80006be:	6062      	str	r2, [r4, #4]
        __HAL_RCC_PLL_CONFIG(RCC_OscInitStruct->PLL.PLLSource,
 80006c0:	6a69      	ldr	r1, [r5, #36]	; 0x24
 80006c2:	6862      	ldr	r2, [r4, #4]
 80006c4:	430b      	orrs	r3, r1
 80006c6:	f422 1274 	bic.w	r2, r2, #3997696	; 0x3d0000
 80006ca:	4313      	orrs	r3, r2
 80006cc:	6063      	str	r3, [r4, #4]
        __HAL_RCC_PLL_ENABLE();
 80006ce:	2301      	movs	r3, #1
 80006d0:	6033      	str	r3, [r6, #0]
        tickstart = HAL_GetTick();
 80006d2:	f7ff fd59 	bl	8000188 <HAL_GetTick>
 80006d6:	4605      	mov	r5, r0
        while(__HAL_RCC_GET_FLAG(RCC_FLAG_PLLRDY)  == RESET)
 80006d8:	6823      	ldr	r3, [r4, #0]
 80006da:	019a      	lsls	r2, r3, #6
 80006dc:	f53f aea7 	bmi.w	800042e <HAL_RCC_OscConfig+0x2a>
          if((HAL_GetTick() - tickstart ) > PLL_TIMEOUT_VALUE)
 80006e0:	f7ff fd52 	bl	8000188 <HAL_GetTick>
 80006e4:	1b40      	subs	r0, r0, r5
 80006e6:	2802      	cmp	r0, #2
 80006e8:	d9f6      	bls.n	80006d8 <HAL_RCC_OscConfig+0x2d4>
 80006ea:	e6cd      	b.n	8000488 <HAL_RCC_OscConfig+0x84>
          if((HAL_GetTick() - tickstart ) > PLL_TIMEOUT_VALUE)
 80006ec:	f7ff fd4c 	bl	8000188 <HAL_GetTick>
 80006f0:	1bc0      	subs	r0, r0, r7
 80006f2:	2802      	cmp	r0, #2
 80006f4:	d9d7      	bls.n	80006a6 <HAL_RCC_OscConfig+0x2a2>
 80006f6:	e6c7      	b.n	8000488 <HAL_RCC_OscConfig+0x84>
        tickstart = HAL_GetTick();
 80006f8:	f7ff fd46 	bl	8000188 <HAL_GetTick>
 80006fc:	4605      	mov	r5, r0
        while(__HAL_RCC_GET_FLAG(RCC_FLAG_PLLRDY)  != RESET)
 80006fe:	6823      	ldr	r3, [r4, #0]
 8000700:	019b      	lsls	r3, r3, #6
 8000702:	f57f ae94 	bpl.w	800042e <HAL_RCC_OscConfig+0x2a>
          if((HAL_GetTick() - tickstart ) > PLL_TIMEOUT_VALUE)
 8000706:	f7ff fd3f 	bl	8000188 <HAL_GetTick>
 800070a:	1b40      	subs	r0, r0, r5
 800070c:	2802      	cmp	r0, #2
 800070e:	d9f6      	bls.n	80006fe <HAL_RCC_OscConfig+0x2fa>
 8000710:	e6ba      	b.n	8000488 <HAL_RCC_OscConfig+0x84>
 8000712:	bf00      	nop
 8000714:	40021000 	.word	0x40021000
 8000718:	42420060 	.word	0x42420060

0800071c <HAL_RCC_GetSysClockFreq>:
{
 800071c:	b530      	push	{r4, r5, lr}
  const uint8_t aPLLMULFactorTable[16] = {2, 3, 4, 5, 6, 7, 8, 9, 10, 11, 12, 13, 14, 15, 16, 16};
 800071e:	4b19      	ldr	r3, [pc, #100]	; (8000784 <HAL_RCC_GetSysClockFreq+0x68>)
{
 8000720:	b087      	sub	sp, #28
  const uint8_t aPLLMULFactorTable[16] = {2, 3, 4, 5, 6, 7, 8, 9, 10, 11, 12, 13, 14, 15, 16, 16};
 8000722:	ac02      	add	r4, sp, #8
 8000724:	f103 0510 	add.w	r5, r3, #16
 8000728:	4622      	mov	r2, r4
 800072a:	6818      	ldr	r0, [r3, #0]
 800072c:	6859      	ldr	r1, [r3, #4]
 800072e:	3308      	adds	r3, #8
 8000730:	c203      	stmia	r2!, {r0, r1}
 8000732:	42ab      	cmp	r3, r5
 8000734:	4614      	mov	r4, r2
 8000736:	d1f7      	bne.n	8000728 <HAL_RCC_GetSysClockFreq+0xc>
  const uint8_t aPredivFactorTable[2] = {1, 2};
 8000738:	2301      	movs	r3, #1
 800073a:	f88d 3004 	strb.w	r3, [sp, #4]
 800073e:	2302      	movs	r3, #2
  tmpreg = RCC->CFGR;
 8000740:	4911      	ldr	r1, [pc, #68]	; (8000788 <HAL_RCC_GetSysClockFreq+0x6c>)
  const uint8_t aPredivFactorTable[2] = {1, 2};
 8000742:	f88d 3005 	strb.w	r3, [sp, #5]
  tmpreg = RCC->CFGR;
 8000746:	684b      	ldr	r3, [r1, #4]
  switch (tmpreg & RCC_CFGR_SWS)
 8000748:	f003 020c 	and.w	r2, r3, #12
 800074c:	2a08      	cmp	r2, #8
 800074e:	d117      	bne.n	8000780 <HAL_RCC_GetSysClockFreq+0x64>
      pllmul = aPLLMULFactorTable[(uint32_t)(tmpreg & RCC_CFGR_PLLMULL) >> RCC_CFGR_PLLMULL_Pos];
 8000750:	f3c3 4283 	ubfx	r2, r3, #18, #4
 8000754:	a806      	add	r0, sp, #24
 8000756:	4402      	add	r2, r0
      if ((tmpreg & RCC_CFGR_PLLSRC) != RCC_PLLSOURCE_HSI_DIV2)
 8000758:	03db      	lsls	r3, r3, #15
      pllmul = aPLLMULFactorTable[(uint32_t)(tmpreg & RCC_CFGR_PLLMULL) >> RCC_CFGR_PLLMULL_Pos];
 800075a:	f812 2c10 	ldrb.w	r2, [r2, #-16]
      if ((tmpreg & RCC_CFGR_PLLSRC) != RCC_PLLSOURCE_HSI_DIV2)
 800075e:	d50c      	bpl.n	800077a <HAL_RCC_GetSysClockFreq+0x5e>
        prediv = aPredivFactorTable[(uint32_t)(RCC->CFGR & RCC_CFGR_PLLXTPRE) >> RCC_CFGR_PLLXTPRE_Pos];
 8000760:	684b      	ldr	r3, [r1, #4]
        pllclk = (uint32_t)((HSE_VALUE  * pllmul) / prediv);
 8000762:	480a      	ldr	r0, [pc, #40]	; (800078c <HAL_RCC_GetSysClockFreq+0x70>)
        prediv = aPredivFactorTable[(uint32_t)(RCC->CFGR & RCC_CFGR_PLLXTPRE) >> RCC_CFGR_PLLXTPRE_Pos];
 8000764:	f3c3 4340 	ubfx	r3, r3, #17, #1
        pllclk = (uint32_t)((HSE_VALUE  * pllmul) / prediv);
 8000768:	4350      	muls	r0, r2
        prediv = aPredivFactorTable[(uint32_t)(RCC->CFGR & RCC_CFGR_PLLXTPRE) >> RCC_CFGR_PLLXTPRE_Pos];
 800076a:	aa06      	add	r2, sp, #24
 800076c:	4413      	add	r3, r2
 800076e:	f813 3c14 	ldrb.w	r3, [r3, #-20]
        pllclk = (uint32_t)((HSE_VALUE  * pllmul) / prediv);
 8000772:	fbb0 f0f3 	udiv	r0, r0, r3
}
 8000776:	b007      	add	sp, #28
 8000778:	bd30      	pop	{r4, r5, pc}
        pllclk = (uint32_t)((HSI_VALUE >> 1) * pllmul);
 800077a:	4805      	ldr	r0, [pc, #20]	; (8000790 <HAL_RCC_GetSysClockFreq+0x74>)
 800077c:	4350      	muls	r0, r2
 800077e:	e7fa      	b.n	8000776 <HAL_RCC_GetSysClockFreq+0x5a>
      sysclockfreq = HSE_VALUE;
 8000780:	4802      	ldr	r0, [pc, #8]	; (800078c <HAL_RCC_GetSysClockFreq+0x70>)
  return sysclockfreq;
 8000782:	e7f8      	b.n	8000776 <HAL_RCC_GetSysClockFreq+0x5a>
 8000784:	08002238 	.word	0x08002238
 8000788:	40021000 	.word	0x40021000
 800078c:	007a1200 	.word	0x007a1200
 8000790:	003d0900 	.word	0x003d0900

08000794 <HAL_RCC_ClockConfig>:
  if(FLatency > (FLASH->ACR & FLASH_ACR_LATENCY))
 8000794:	4a54      	ldr	r2, [pc, #336]	; (80008e8 <HAL_RCC_ClockConfig+0x154>)
{
 8000796:	e92d 41f0 	stmdb	sp!, {r4, r5, r6, r7, r8, lr}
  if(FLatency > (FLASH->ACR & FLASH_ACR_LATENCY))
 800079a:	6813      	ldr	r3, [r2, #0]
{
 800079c:	4605      	mov	r5, r0
  if(FLatency > (FLASH->ACR & FLASH_ACR_LATENCY))
 800079e:	f003 0307 	and.w	r3, r3, #7
 80007a2:	428b      	cmp	r3, r1
{
 80007a4:	460e      	mov	r6, r1
  if(FLatency > (FLASH->ACR & FLASH_ACR_LATENCY))
 80007a6:	d32a      	bcc.n	80007fe <HAL_RCC_ClockConfig+0x6a>
  if(((RCC_ClkInitStruct->ClockType) & RCC_CLOCKTYPE_HCLK) == RCC_CLOCKTYPE_HCLK)
 80007a8:	6829      	ldr	r1, [r5, #0]
 80007aa:	078c      	lsls	r4, r1, #30
 80007ac:	d434      	bmi.n	8000818 <HAL_RCC_ClockConfig+0x84>
  if(((RCC_ClkInitStruct->ClockType) & RCC_CLOCKTYPE_SYSCLK) == RCC_CLOCKTYPE_SYSCLK)
 80007ae:	07ca      	lsls	r2, r1, #31
 80007b0:	d447      	bmi.n	8000842 <HAL_RCC_ClockConfig+0xae>
  if(FLatency < (FLASH->ACR & FLASH_ACR_LATENCY))
 80007b2:	4a4d      	ldr	r2, [pc, #308]	; (80008e8 <HAL_RCC_ClockConfig+0x154>)
 80007b4:	6813      	ldr	r3, [r2, #0]
 80007b6:	f003 0307 	and.w	r3, r3, #7
 80007ba:	429e      	cmp	r6, r3
 80007bc:	f0c0 8082 	bcc.w	80008c4 <HAL_RCC_ClockConfig+0x130>
  if(((RCC_ClkInitStruct->ClockType) & RCC_CLOCKTYPE_PCLK1) == RCC_CLOCKTYPE_PCLK1)
 80007c0:	682a      	ldr	r2, [r5, #0]
 80007c2:	4c4a      	ldr	r4, [pc, #296]	; (80008ec <HAL_RCC_ClockConfig+0x158>)
 80007c4:	f012 0f04 	tst.w	r2, #4
 80007c8:	f040 8087 	bne.w	80008da <HAL_RCC_ClockConfig+0x146>
  if(((RCC_ClkInitStruct->ClockType) & RCC_CLOCKTYPE_PCLK2) == RCC_CLOCKTYPE_PCLK2)
 80007cc:	0713      	lsls	r3, r2, #28
 80007ce:	d506      	bpl.n	80007de <HAL_RCC_ClockConfig+0x4a>
    MODIFY_REG(RCC->CFGR, RCC_CFGR_PPRE2, ((RCC_ClkInitStruct->APB2CLKDivider) << 3));
 80007d0:	6863      	ldr	r3, [r4, #4]
 80007d2:	692a      	ldr	r2, [r5, #16]
 80007d4:	f423 5360 	bic.w	r3, r3, #14336	; 0x3800
 80007d8:	ea43 03c2 	orr.w	r3, r3, r2, lsl #3
 80007dc:	6063      	str	r3, [r4, #4]
  SystemCoreClock = HAL_RCC_GetSysClockFreq() >> AHBPrescTable[(RCC->CFGR & RCC_CFGR_HPRE)>> RCC_CFGR_HPRE_Pos];
 80007de:	f7ff ff9d 	bl	800071c <HAL_RCC_GetSysClockFreq>
 80007e2:	6863      	ldr	r3, [r4, #4]
 80007e4:	4a42      	ldr	r2, [pc, #264]	; (80008f0 <HAL_RCC_ClockConfig+0x15c>)
 80007e6:	f3c3 1303 	ubfx	r3, r3, #4, #4
 80007ea:	5cd3      	ldrb	r3, [r2, r3]
 80007ec:	40d8      	lsrs	r0, r3
 80007ee:	4b41      	ldr	r3, [pc, #260]	; (80008f4 <HAL_RCC_ClockConfig+0x160>)
 80007f0:	6018      	str	r0, [r3, #0]
  HAL_InitTick (TICK_INT_PRIORITY);
 80007f2:	2000      	movs	r0, #0
 80007f4:	f000 fb02 	bl	8000dfc <HAL_InitTick>
  return HAL_OK;
 80007f8:	2000      	movs	r0, #0
}
 80007fa:	e8bd 81f0 	ldmia.w	sp!, {r4, r5, r6, r7, r8, pc}
    __HAL_FLASH_SET_LATENCY(FLatency);
 80007fe:	6813      	ldr	r3, [r2, #0]
 8000800:	f023 0307 	bic.w	r3, r3, #7
 8000804:	430b      	orrs	r3, r1
 8000806:	6013      	str	r3, [r2, #0]
    if((FLASH->ACR & FLASH_ACR_LATENCY) != FLatency)
 8000808:	6813      	ldr	r3, [r2, #0]
 800080a:	f003 0307 	and.w	r3, r3, #7
 800080e:	4299      	cmp	r1, r3
 8000810:	d0ca      	beq.n	80007a8 <HAL_RCC_ClockConfig+0x14>
      return HAL_ERROR;
 8000812:	2001      	movs	r0, #1
 8000814:	e8bd 81f0 	ldmia.w	sp!, {r4, r5, r6, r7, r8, pc}
 8000818:	4b34      	ldr	r3, [pc, #208]	; (80008ec <HAL_RCC_ClockConfig+0x158>)
    if(((RCC_ClkInitStruct->ClockType) & RCC_CLOCKTYPE_PCLK1) == RCC_CLOCKTYPE_PCLK1)
 800081a:	f011 0f04 	tst.w	r1, #4
      MODIFY_REG(RCC->CFGR, RCC_CFGR_PPRE1, RCC_HCLK_DIV16);
 800081e:	bf1e      	ittt	ne
 8000820:	685a      	ldrne	r2, [r3, #4]
 8000822:	f442 62e0 	orrne.w	r2, r2, #1792	; 0x700
 8000826:	605a      	strne	r2, [r3, #4]
    if(((RCC_ClkInitStruct->ClockType) & RCC_CLOCKTYPE_PCLK2) == RCC_CLOCKTYPE_PCLK2)
 8000828:	0708      	lsls	r0, r1, #28
      MODIFY_REG(RCC->CFGR, RCC_CFGR_PPRE2, (RCC_HCLK_DIV16 << 3));
 800082a:	bf42      	ittt	mi
 800082c:	685a      	ldrmi	r2, [r3, #4]
 800082e:	f442 5260 	orrmi.w	r2, r2, #14336	; 0x3800
 8000832:	605a      	strmi	r2, [r3, #4]
    MODIFY_REG(RCC->CFGR, RCC_CFGR_HPRE, RCC_ClkInitStruct->AHBCLKDivider);
 8000834:	685a      	ldr	r2, [r3, #4]
 8000836:	68a8      	ldr	r0, [r5, #8]
 8000838:	f022 02f0 	bic.w	r2, r2, #240	; 0xf0
 800083c:	4302      	orrs	r2, r0
 800083e:	605a      	str	r2, [r3, #4]
 8000840:	e7b5      	b.n	80007ae <HAL_RCC_ClockConfig+0x1a>
    if(RCC_ClkInitStruct->SYSCLKSource == RCC_SYSCLKSOURCE_HSE)
 8000842:	686a      	ldr	r2, [r5, #4]
 8000844:	4c29      	ldr	r4, [pc, #164]	; (80008ec <HAL_RCC_ClockConfig+0x158>)
 8000846:	2a01      	cmp	r2, #1
      if(__HAL_RCC_GET_FLAG(RCC_FLAG_HSERDY) == RESET)
 8000848:	6823      	ldr	r3, [r4, #0]
    if(RCC_ClkInitStruct->SYSCLKSource == RCC_SYSCLKSOURCE_HSE)
 800084a:	d11c      	bne.n	8000886 <HAL_RCC_ClockConfig+0xf2>
      if(__HAL_RCC_GET_FLAG(RCC_FLAG_HSERDY) == RESET)
 800084c:	f413 3f00 	tst.w	r3, #131072	; 0x20000
      if(__HAL_RCC_GET_FLAG(RCC_FLAG_HSIRDY) == RESET)
 8000850:	d0df      	beq.n	8000812 <HAL_RCC_ClockConfig+0x7e>
    __HAL_RCC_SYSCLK_CONFIG(RCC_ClkInitStruct->SYSCLKSource);
 8000852:	6863      	ldr	r3, [r4, #4]
        if((HAL_GetTick() - tickstart ) > CLOCKSWITCH_TIMEOUT_VALUE)
 8000854:	f241 3888 	movw	r8, #5000	; 0x1388
    __HAL_RCC_SYSCLK_CONFIG(RCC_ClkInitStruct->SYSCLKSource);
 8000858:	f023 0303 	bic.w	r3, r3, #3
 800085c:	4313      	orrs	r3, r2
 800085e:	6063      	str	r3, [r4, #4]
    tickstart = HAL_GetTick();
 8000860:	f7ff fc92 	bl	8000188 <HAL_GetTick>
    if(RCC_ClkInitStruct->SYSCLKSource == RCC_SYSCLKSOURCE_HSE)
 8000864:	686b      	ldr	r3, [r5, #4]
    tickstart = HAL_GetTick();
 8000866:	4607      	mov	r7, r0
    if(RCC_ClkInitStruct->SYSCLKSource == RCC_SYSCLKSOURCE_HSE)
 8000868:	2b01      	cmp	r3, #1
 800086a:	d114      	bne.n	8000896 <HAL_RCC_ClockConfig+0x102>
      while (__HAL_RCC_GET_SYSCLK_SOURCE() != RCC_SYSCLKSOURCE_STATUS_HSE)
 800086c:	6863      	ldr	r3, [r4, #4]
 800086e:	f003 030c 	and.w	r3, r3, #12
 8000872:	2b04      	cmp	r3, #4
 8000874:	d09d      	beq.n	80007b2 <HAL_RCC_ClockConfig+0x1e>
        if((HAL_GetTick() - tickstart ) > CLOCKSWITCH_TIMEOUT_VALUE)
 8000876:	f7ff fc87 	bl	8000188 <HAL_GetTick>
 800087a:	1bc0      	subs	r0, r0, r7
 800087c:	4540      	cmp	r0, r8
 800087e:	d9f5      	bls.n	800086c <HAL_RCC_ClockConfig+0xd8>
          return HAL_TIMEOUT;
 8000880:	2003      	movs	r0, #3
 8000882:	e8bd 81f0 	ldmia.w	sp!, {r4, r5, r6, r7, r8, pc}
    else if(RCC_ClkInitStruct->SYSCLKSource == RCC_SYSCLKSOURCE_PLLCLK)
 8000886:	2a02      	cmp	r2, #2
 8000888:	d102      	bne.n	8000890 <HAL_RCC_ClockConfig+0xfc>
      if(__HAL_RCC_GET_FLAG(RCC_FLAG_PLLRDY) == RESET)
 800088a:	f013 7f00 	tst.w	r3, #33554432	; 0x2000000
 800088e:	e7df      	b.n	8000850 <HAL_RCC_ClockConfig+0xbc>
      if(__HAL_RCC_GET_FLAG(RCC_FLAG_HSIRDY) == RESET)
 8000890:	f013 0f02 	tst.w	r3, #2
 8000894:	e7dc      	b.n	8000850 <HAL_RCC_ClockConfig+0xbc>
    else if(RCC_ClkInitStruct->SYSCLKSource == RCC_SYSCLKSOURCE_PLLCLK)
 8000896:	2b02      	cmp	r3, #2
 8000898:	d10f      	bne.n	80008ba <HAL_RCC_ClockConfig+0x126>
      while (__HAL_RCC_GET_SYSCLK_SOURCE() != RCC_SYSCLKSOURCE_STATUS_PLLCLK)
 800089a:	6863      	ldr	r3, [r4, #4]
 800089c:	f003 030c 	and.w	r3, r3, #12
 80008a0:	2b08      	cmp	r3, #8
 80008a2:	d086      	beq.n	80007b2 <HAL_RCC_ClockConfig+0x1e>
        if((HAL_GetTick() - tickstart ) > CLOCKSWITCH_TIMEOUT_VALUE)
 80008a4:	f7ff fc70 	bl	8000188 <HAL_GetTick>
 80008a8:	1bc0      	subs	r0, r0, r7
 80008aa:	4540      	cmp	r0, r8
 80008ac:	d9f5      	bls.n	800089a <HAL_RCC_ClockConfig+0x106>
 80008ae:	e7e7      	b.n	8000880 <HAL_RCC_ClockConfig+0xec>
        if((HAL_GetTick() - tickstart ) > CLOCKSWITCH_TIMEOUT_VALUE)
 80008b0:	f7ff fc6a 	bl	8000188 <HAL_GetTick>
 80008b4:	1bc0      	subs	r0, r0, r7
 80008b6:	4540      	cmp	r0, r8
 80008b8:	d8e2      	bhi.n	8000880 <HAL_RCC_ClockConfig+0xec>
      while (__HAL_RCC_GET_SYSCLK_SOURCE() != RCC_SYSCLKSOURCE_STATUS_HSI)
 80008ba:	6863      	ldr	r3, [r4, #4]
 80008bc:	f013 0f0c 	tst.w	r3, #12
 80008c0:	d1f6      	bne.n	80008b0 <HAL_RCC_ClockConfig+0x11c>
 80008c2:	e776      	b.n	80007b2 <HAL_RCC_ClockConfig+0x1e>
    __HAL_FLASH_SET_LATENCY(FLatency);
 80008c4:	6813      	ldr	r3, [r2, #0]
 80008c6:	f023 0307 	bic.w	r3, r3, #7
 80008ca:	4333      	orrs	r3, r6
 80008cc:	6013      	str	r3, [r2, #0]
    if((FLASH->ACR & FLASH_ACR_LATENCY) != FLatency)
 80008ce:	6813      	ldr	r3, [r2, #0]
 80008d0:	f003 0307 	and.w	r3, r3, #7
 80008d4:	429e      	cmp	r6, r3
 80008d6:	d19c      	bne.n	8000812 <HAL_RCC_ClockConfig+0x7e>
 80008d8:	e772      	b.n	80007c0 <HAL_RCC_ClockConfig+0x2c>
    MODIFY_REG(RCC->CFGR, RCC_CFGR_PPRE1, RCC_ClkInitStruct->APB1CLKDivider);
 80008da:	6863      	ldr	r3, [r4, #4]
 80008dc:	68e9      	ldr	r1, [r5, #12]
 80008de:	f423 63e0 	bic.w	r3, r3, #1792	; 0x700
 80008e2:	430b      	orrs	r3, r1
 80008e4:	6063      	str	r3, [r4, #4]
 80008e6:	e771      	b.n	80007cc <HAL_RCC_ClockConfig+0x38>
 80008e8:	40022000 	.word	0x40022000
 80008ec:	40021000 	.word	0x40021000
 80008f0:	08002258 	.word	0x08002258
 80008f4:	20000004 	.word	0x20000004

080008f8 <HAL_RCC_GetPCLK1Freq>:
  return (HAL_RCC_GetHCLKFreq() >> APBPrescTable[(RCC->CFGR & RCC_CFGR_PPRE1) >> RCC_CFGR_PPRE1_Pos]);
 80008f8:	4b04      	ldr	r3, [pc, #16]	; (800090c <HAL_RCC_GetPCLK1Freq+0x14>)
 80008fa:	4a05      	ldr	r2, [pc, #20]	; (8000910 <HAL_RCC_GetPCLK1Freq+0x18>)
 80008fc:	685b      	ldr	r3, [r3, #4]
 80008fe:	f3c3 2302 	ubfx	r3, r3, #8, #3
 8000902:	5cd3      	ldrb	r3, [r2, r3]
 8000904:	4a03      	ldr	r2, [pc, #12]	; (8000914 <HAL_RCC_GetPCLK1Freq+0x1c>)
 8000906:	6810      	ldr	r0, [r2, #0]
}    
 8000908:	40d8      	lsrs	r0, r3
 800090a:	4770      	bx	lr
 800090c:	40021000 	.word	0x40021000
 8000910:	08002268 	.word	0x08002268
 8000914:	20000004 	.word	0x20000004

08000918 <HAL_RCC_GetClockConfig>:
  RCC_ClkInitStruct->ClockType = RCC_CLOCKTYPE_SYSCLK | RCC_CLOCKTYPE_HCLK | RCC_CLOCKTYPE_PCLK1 | RCC_CLOCKTYPE_PCLK2;
 8000918:	230f      	movs	r3, #15
 800091a:	6003      	str	r3, [r0, #0]
  RCC_ClkInitStruct->SYSCLKSource = (uint32_t)(RCC->CFGR & RCC_CFGR_SW);
 800091c:	4b0b      	ldr	r3, [pc, #44]	; (800094c <HAL_RCC_GetClockConfig+0x34>)
 800091e:	685a      	ldr	r2, [r3, #4]
 8000920:	f002 0203 	and.w	r2, r2, #3
 8000924:	6042      	str	r2, [r0, #4]
  RCC_ClkInitStruct->AHBCLKDivider = (uint32_t)(RCC->CFGR & RCC_CFGR_HPRE); 
 8000926:	685a      	ldr	r2, [r3, #4]
 8000928:	f002 02f0 	and.w	r2, r2, #240	; 0xf0
 800092c:	6082      	str	r2, [r0, #8]
  RCC_ClkInitStruct->APB1CLKDivider = (uint32_t)(RCC->CFGR & RCC_CFGR_PPRE1);   
 800092e:	685a      	ldr	r2, [r3, #4]
 8000930:	f402 62e0 	and.w	r2, r2, #1792	; 0x700
 8000934:	60c2      	str	r2, [r0, #12]
  RCC_ClkInitStruct->APB2CLKDivider = (uint32_t)((RCC->CFGR & RCC_CFGR_PPRE2) >> 3);
 8000936:	685b      	ldr	r3, [r3, #4]
 8000938:	08db      	lsrs	r3, r3, #3
 800093a:	f403 63e0 	and.w	r3, r3, #1792	; 0x700
 800093e:	6103      	str	r3, [r0, #16]
  *pFLatency = (uint32_t)(FLASH->ACR & FLASH_ACR_LATENCY); 
 8000940:	4b03      	ldr	r3, [pc, #12]	; (8000950 <HAL_RCC_GetClockConfig+0x38>)
 8000942:	681b      	ldr	r3, [r3, #0]
 8000944:	f003 0307 	and.w	r3, r3, #7
 8000948:	600b      	str	r3, [r1, #0]
 800094a:	4770      	bx	lr
 800094c:	40021000 	.word	0x40021000
 8000950:	40022000 	.word	0x40022000

08000954 <HAL_TIM_Base_MspInit>:
 8000954:	4770      	bx	lr

08000956 <HAL_TIM_Base_Start_IT>:
{
  /* Check the parameters */
  assert_param(IS_TIM_INSTANCE(htim->Instance));

   /* Enable the TIM Update interrupt */
   __HAL_TIM_ENABLE_IT(htim, TIM_IT_UPDATE);
 8000956:	6803      	ldr	r3, [r0, #0]
   /* Enable the Peripheral */
  __HAL_TIM_ENABLE(htim);

  /* Return function status */
  return HAL_OK;
}
 8000958:	2000      	movs	r0, #0
   __HAL_TIM_ENABLE_IT(htim, TIM_IT_UPDATE);
 800095a:	68da      	ldr	r2, [r3, #12]
 800095c:	f042 0201 	orr.w	r2, r2, #1
 8000960:	60da      	str	r2, [r3, #12]
  __HAL_TIM_ENABLE(htim);
 8000962:	681a      	ldr	r2, [r3, #0]
 8000964:	f042 0201 	orr.w	r2, r2, #1
 8000968:	601a      	str	r2, [r3, #0]
}
 800096a:	4770      	bx	lr

0800096c <HAL_TIM_OC_DelayElapsedCallback>:
 800096c:	4770      	bx	lr

0800096e <HAL_TIM_IC_CaptureCallback>:
 800096e:	4770      	bx	lr

08000970 <HAL_TIM_PWM_PulseFinishedCallback>:
 8000970:	4770      	bx	lr

08000972 <HAL_TIM_TriggerCallback>:
 8000972:	4770      	bx	lr

08000974 <HAL_TIM_IRQHandler>:
  * @retval None
  */
void HAL_TIM_IRQHandler(TIM_HandleTypeDef *htim)
{
  /* Capture compare 1 event */
  if(__HAL_TIM_GET_FLAG(htim, TIM_FLAG_CC1) != RESET)
 8000974:	6803      	ldr	r3, [r0, #0]
{
 8000976:	b510      	push	{r4, lr}
  if(__HAL_TIM_GET_FLAG(htim, TIM_FLAG_CC1) != RESET)
 8000978:	691a      	ldr	r2, [r3, #16]
{
 800097a:	4604      	mov	r4, r0
  if(__HAL_TIM_GET_FLAG(htim, TIM_FLAG_CC1) != RESET)
 800097c:	0791      	lsls	r1, r2, #30
 800097e:	d50e      	bpl.n	800099e <HAL_TIM_IRQHandler+0x2a>
  {
    if(__HAL_TIM_GET_IT_SOURCE(htim, TIM_IT_CC1) !=RESET)
 8000980:	68da      	ldr	r2, [r3, #12]
 8000982:	0792      	lsls	r2, r2, #30
 8000984:	d50b      	bpl.n	800099e <HAL_TIM_IRQHandler+0x2a>
    {
      {
        __HAL_TIM_CLEAR_IT(htim, TIM_IT_CC1);
 8000986:	f06f 0202 	mvn.w	r2, #2
 800098a:	611a      	str	r2, [r3, #16]
        htim->Channel = HAL_TIM_ACTIVE_CHANNEL_1;
 800098c:	2201      	movs	r2, #1

        /* Input capture event */
        if((htim->Instance->CCMR1 & TIM_CCMR1_CC1S) != 0x00U)
 800098e:	699b      	ldr	r3, [r3, #24]
        htim->Channel = HAL_TIM_ACTIVE_CHANNEL_1;
 8000990:	7702      	strb	r2, [r0, #28]
        if((htim->Instance->CCMR1 & TIM_CCMR1_CC1S) != 0x00U)
 8000992:	079b      	lsls	r3, r3, #30
 8000994:	d077      	beq.n	8000a86 <HAL_TIM_IRQHandler+0x112>
        {
          HAL_TIM_IC_CaptureCallback(htim);
 8000996:	f7ff ffea 	bl	800096e <HAL_TIM_IC_CaptureCallback>
        else
        {
          HAL_TIM_OC_DelayElapsedCallback(htim);
          HAL_TIM_PWM_PulseFinishedCallback(htim);
        }
        htim->Channel = HAL_TIM_ACTIVE_CHANNEL_CLEARED;
 800099a:	2300      	movs	r3, #0
 800099c:	7723      	strb	r3, [r4, #28]
      }
    }
  }
  /* Capture compare 2 event */
  if(__HAL_TIM_GET_FLAG(htim, TIM_FLAG_CC2) != RESET)
 800099e:	6823      	ldr	r3, [r4, #0]
 80009a0:	691a      	ldr	r2, [r3, #16]
 80009a2:	0750      	lsls	r0, r2, #29
 80009a4:	d510      	bpl.n	80009c8 <HAL_TIM_IRQHandler+0x54>
  {
    if(__HAL_TIM_GET_IT_SOURCE(htim, TIM_IT_CC2) !=RESET)
 80009a6:	68da      	ldr	r2, [r3, #12]
 80009a8:	0751      	lsls	r1, r2, #29
 80009aa:	d50d      	bpl.n	80009c8 <HAL_TIM_IRQHandler+0x54>
    {
      __HAL_TIM_CLEAR_IT(htim, TIM_IT_CC2);
 80009ac:	f06f 0204 	mvn.w	r2, #4
 80009b0:	611a      	str	r2, [r3, #16]
      htim->Channel = HAL_TIM_ACTIVE_CHANNEL_2;
 80009b2:	2202      	movs	r2, #2
      /* Input capture event */
      if((htim->Instance->CCMR1 & TIM_CCMR1_CC2S) != 0x00U)
 80009b4:	699b      	ldr	r3, [r3, #24]
      htim->Channel = HAL_TIM_ACTIVE_CHANNEL_2;
 80009b6:	7722      	strb	r2, [r4, #28]
      if((htim->Instance->CCMR1 & TIM_CCMR1_CC2S) != 0x00U)
 80009b8:	f413 7f40 	tst.w	r3, #768	; 0x300
      {
        HAL_TIM_IC_CaptureCallback(htim);
 80009bc:	4620      	mov	r0, r4
      if((htim->Instance->CCMR1 & TIM_CCMR1_CC2S) != 0x00U)
 80009be:	d068      	beq.n	8000a92 <HAL_TIM_IRQHandler+0x11e>
        HAL_TIM_IC_CaptureCallback(htim);
 80009c0:	f7ff ffd5 	bl	800096e <HAL_TIM_IC_CaptureCallback>
      else
      {
        HAL_TIM_OC_DelayElapsedCallback(htim);
        HAL_TIM_PWM_PulseFinishedCallback(htim);
      }
      htim->Channel = HAL_TIM_ACTIVE_CHANNEL_CLEARED;
 80009c4:	2300      	movs	r3, #0
 80009c6:	7723      	strb	r3, [r4, #28]
    }
  }
  /* Capture compare 3 event */
  if(__HAL_TIM_GET_FLAG(htim, TIM_FLAG_CC3) != RESET)
 80009c8:	6823      	ldr	r3, [r4, #0]
 80009ca:	691a      	ldr	r2, [r3, #16]
 80009cc:	0712      	lsls	r2, r2, #28
 80009ce:	d50f      	bpl.n	80009f0 <HAL_TIM_IRQHandler+0x7c>
  {
    if(__HAL_TIM_GET_IT_SOURCE(htim, TIM_IT_CC3) !=RESET)
 80009d0:	68da      	ldr	r2, [r3, #12]
 80009d2:	0710      	lsls	r0, r2, #28
 80009d4:	d50c      	bpl.n	80009f0 <HAL_TIM_IRQHandler+0x7c>
    {
      __HAL_TIM_CLEAR_IT(htim, TIM_IT_CC3);
 80009d6:	f06f 0208 	mvn.w	r2, #8
 80009da:	611a      	str	r2, [r3, #16]
      htim->Channel = HAL_TIM_ACTIVE_CHANNEL_3;
 80009dc:	2204      	movs	r2, #4
      /* Input capture event */
      if((htim->Instance->CCMR2 & TIM_CCMR2_CC3S) != 0x00U)
 80009de:	69db      	ldr	r3, [r3, #28]
      htim->Channel = HAL_TIM_ACTIVE_CHANNEL_3;
 80009e0:	7722      	strb	r2, [r4, #28]
      if((htim->Instance->CCMR2 & TIM_CCMR2_CC3S) != 0x00U)
 80009e2:	0799      	lsls	r1, r3, #30
      {
        HAL_TIM_IC_CaptureCallback(htim);
 80009e4:	4620      	mov	r0, r4
      if((htim->Instance->CCMR2 & TIM_CCMR2_CC3S) != 0x00U)
 80009e6:	d05a      	beq.n	8000a9e <HAL_TIM_IRQHandler+0x12a>
        HAL_TIM_IC_CaptureCallback(htim);
 80009e8:	f7ff ffc1 	bl	800096e <HAL_TIM_IC_CaptureCallback>
      else
      {
        HAL_TIM_OC_DelayElapsedCallback(htim);
        HAL_TIM_PWM_PulseFinishedCallback(htim);
      }
      htim->Channel = HAL_TIM_ACTIVE_CHANNEL_CLEARED;
 80009ec:	2300      	movs	r3, #0
 80009ee:	7723      	strb	r3, [r4, #28]
    }
  }
  /* Capture compare 4 event */
  if(__HAL_TIM_GET_FLAG(htim, TIM_FLAG_CC4) != RESET)
 80009f0:	6823      	ldr	r3, [r4, #0]
 80009f2:	691a      	ldr	r2, [r3, #16]
 80009f4:	06d2      	lsls	r2, r2, #27
 80009f6:	d510      	bpl.n	8000a1a <HAL_TIM_IRQHandler+0xa6>
  {
    if(__HAL_TIM_GET_IT_SOURCE(htim, TIM_IT_CC4) !=RESET)
 80009f8:	68da      	ldr	r2, [r3, #12]
 80009fa:	06d0      	lsls	r0, r2, #27
 80009fc:	d50d      	bpl.n	8000a1a <HAL_TIM_IRQHandler+0xa6>
    {
      __HAL_TIM_CLEAR_IT(htim, TIM_IT_CC4);
 80009fe:	f06f 0210 	mvn.w	r2, #16
 8000a02:	611a      	str	r2, [r3, #16]
      htim->Channel = HAL_TIM_ACTIVE_CHANNEL_4;
 8000a04:	2208      	movs	r2, #8
      /* Input capture event */
      if((htim->Instance->CCMR2 & TIM_CCMR2_CC4S) != 0x00U)
 8000a06:	69db      	ldr	r3, [r3, #28]
      htim->Channel = HAL_TIM_ACTIVE_CHANNEL_4;
 8000a08:	7722      	strb	r2, [r4, #28]
      if((htim->Instance->CCMR2 & TIM_CCMR2_CC4S) != 0x00U)
 8000a0a:	f413 7f40 	tst.w	r3, #768	; 0x300
      {
        HAL_TIM_IC_CaptureCallback(htim);
 8000a0e:	4620      	mov	r0, r4
      if((htim->Instance->CCMR2 & TIM_CCMR2_CC4S) != 0x00U)
 8000a10:	d04b      	beq.n	8000aaa <HAL_TIM_IRQHandler+0x136>
        HAL_TIM_IC_CaptureCallback(htim);
 8000a12:	f7ff ffac 	bl	800096e <HAL_TIM_IC_CaptureCallback>
      else
      {
        HAL_TIM_OC_DelayElapsedCallback(htim);
        HAL_TIM_PWM_PulseFinishedCallback(htim);
      }
      htim->Channel = HAL_TIM_ACTIVE_CHANNEL_CLEARED;
 8000a16:	2300      	movs	r3, #0
 8000a18:	7723      	strb	r3, [r4, #28]
    }
  }
  /* TIM Update event */
  if(__HAL_TIM_GET_FLAG(htim, TIM_FLAG_UPDATE) != RESET)
 8000a1a:	6823      	ldr	r3, [r4, #0]
 8000a1c:	691a      	ldr	r2, [r3, #16]
 8000a1e:	07d1      	lsls	r1, r2, #31
 8000a20:	d508      	bpl.n	8000a34 <HAL_TIM_IRQHandler+0xc0>
  {
    if(__HAL_TIM_GET_IT_SOURCE(htim, TIM_IT_UPDATE) !=RESET)
 8000a22:	68da      	ldr	r2, [r3, #12]
 8000a24:	07d2      	lsls	r2, r2, #31
 8000a26:	d505      	bpl.n	8000a34 <HAL_TIM_IRQHandler+0xc0>
    {
      __HAL_TIM_CLEAR_IT(htim, TIM_IT_UPDATE);
 8000a28:	f06f 0201 	mvn.w	r2, #1
      HAL_TIM_PeriodElapsedCallback(htim);
 8000a2c:	4620      	mov	r0, r4
      __HAL_TIM_CLEAR_IT(htim, TIM_IT_UPDATE);
 8000a2e:	611a      	str	r2, [r3, #16]
      HAL_TIM_PeriodElapsedCallback(htim);
 8000a30:	f000 f94c 	bl	8000ccc <HAL_TIM_PeriodElapsedCallback>
    }
  }
  /* TIM Break input event */
  if(__HAL_TIM_GET_FLAG(htim, TIM_FLAG_BREAK) != RESET)
 8000a34:	6823      	ldr	r3, [r4, #0]
 8000a36:	691a      	ldr	r2, [r3, #16]
 8000a38:	0610      	lsls	r0, r2, #24
 8000a3a:	d508      	bpl.n	8000a4e <HAL_TIM_IRQHandler+0xda>
  {
    if(__HAL_TIM_GET_IT_SOURCE(htim, TIM_IT_BREAK) !=RESET)
 8000a3c:	68da      	ldr	r2, [r3, #12]
 8000a3e:	0611      	lsls	r1, r2, #24
 8000a40:	d505      	bpl.n	8000a4e <HAL_TIM_IRQHandler+0xda>
    {
      __HAL_TIM_CLEAR_IT(htim, TIM_IT_BREAK);
 8000a42:	f06f 0280 	mvn.w	r2, #128	; 0x80
      HAL_TIMEx_BreakCallback(htim);
 8000a46:	4620      	mov	r0, r4
      __HAL_TIM_CLEAR_IT(htim, TIM_IT_BREAK);
 8000a48:	611a      	str	r2, [r3, #16]
      HAL_TIMEx_BreakCallback(htim);
 8000a4a:	f000 f888 	bl	8000b5e <HAL_TIMEx_BreakCallback>
    }
  }
  /* TIM Trigger detection event */
  if(__HAL_TIM_GET_FLAG(htim, TIM_FLAG_TRIGGER) != RESET)
 8000a4e:	6823      	ldr	r3, [r4, #0]
 8000a50:	691a      	ldr	r2, [r3, #16]
 8000a52:	0652      	lsls	r2, r2, #25
 8000a54:	d508      	bpl.n	8000a68 <HAL_TIM_IRQHandler+0xf4>
  {
    if(__HAL_TIM_GET_IT_SOURCE(htim, TIM_IT_TRIGGER) !=RESET)
 8000a56:	68da      	ldr	r2, [r3, #12]
 8000a58:	0650      	lsls	r0, r2, #25
 8000a5a:	d505      	bpl.n	8000a68 <HAL_TIM_IRQHandler+0xf4>
    {
      __HAL_TIM_CLEAR_IT(htim, TIM_IT_TRIGGER);
 8000a5c:	f06f 0240 	mvn.w	r2, #64	; 0x40
      HAL_TIM_TriggerCallback(htim);
 8000a60:	4620      	mov	r0, r4
      __HAL_TIM_CLEAR_IT(htim, TIM_IT_TRIGGER);
 8000a62:	611a      	str	r2, [r3, #16]
      HAL_TIM_TriggerCallback(htim);
 8000a64:	f7ff ff85 	bl	8000972 <HAL_TIM_TriggerCallback>
    }
  }
  /* TIM commutation event */
  if(__HAL_TIM_GET_FLAG(htim, TIM_FLAG_COM) != RESET)
 8000a68:	6823      	ldr	r3, [r4, #0]
 8000a6a:	691a      	ldr	r2, [r3, #16]
 8000a6c:	0691      	lsls	r1, r2, #26
 8000a6e:	d522      	bpl.n	8000ab6 <HAL_TIM_IRQHandler+0x142>
  {
    if(__HAL_TIM_GET_IT_SOURCE(htim, TIM_IT_COM) !=RESET)
 8000a70:	68da      	ldr	r2, [r3, #12]
 8000a72:	0692      	lsls	r2, r2, #26
 8000a74:	d51f      	bpl.n	8000ab6 <HAL_TIM_IRQHandler+0x142>
    {
      __HAL_TIM_CLEAR_IT(htim, TIM_FLAG_COM);
 8000a76:	f06f 0220 	mvn.w	r2, #32
      HAL_TIMEx_CommutationCallback(htim);
 8000a7a:	4620      	mov	r0, r4
    }
  }
}
 8000a7c:	e8bd 4010 	ldmia.w	sp!, {r4, lr}
      __HAL_TIM_CLEAR_IT(htim, TIM_FLAG_COM);
 8000a80:	611a      	str	r2, [r3, #16]
      HAL_TIMEx_CommutationCallback(htim);
 8000a82:	f000 b86b 	b.w	8000b5c <HAL_TIMEx_CommutationCallback>
          HAL_TIM_OC_DelayElapsedCallback(htim);
 8000a86:	f7ff ff71 	bl	800096c <HAL_TIM_OC_DelayElapsedCallback>
          HAL_TIM_PWM_PulseFinishedCallback(htim);
 8000a8a:	4620      	mov	r0, r4
 8000a8c:	f7ff ff70 	bl	8000970 <HAL_TIM_PWM_PulseFinishedCallback>
 8000a90:	e783      	b.n	800099a <HAL_TIM_IRQHandler+0x26>
        HAL_TIM_OC_DelayElapsedCallback(htim);
 8000a92:	f7ff ff6b 	bl	800096c <HAL_TIM_OC_DelayElapsedCallback>
        HAL_TIM_PWM_PulseFinishedCallback(htim);
 8000a96:	4620      	mov	r0, r4
 8000a98:	f7ff ff6a 	bl	8000970 <HAL_TIM_PWM_PulseFinishedCallback>
 8000a9c:	e792      	b.n	80009c4 <HAL_TIM_IRQHandler+0x50>
        HAL_TIM_OC_DelayElapsedCallback(htim);
 8000a9e:	f7ff ff65 	bl	800096c <HAL_TIM_OC_DelayElapsedCallback>
        HAL_TIM_PWM_PulseFinishedCallback(htim);
 8000aa2:	4620      	mov	r0, r4
 8000aa4:	f7ff ff64 	bl	8000970 <HAL_TIM_PWM_PulseFinishedCallback>
 8000aa8:	e7a0      	b.n	80009ec <HAL_TIM_IRQHandler+0x78>
        HAL_TIM_OC_DelayElapsedCallback(htim);
 8000aaa:	f7ff ff5f 	bl	800096c <HAL_TIM_OC_DelayElapsedCallback>
        HAL_TIM_PWM_PulseFinishedCallback(htim);
 8000aae:	4620      	mov	r0, r4
 8000ab0:	f7ff ff5e 	bl	8000970 <HAL_TIM_PWM_PulseFinishedCallback>
 8000ab4:	e7af      	b.n	8000a16 <HAL_TIM_IRQHandler+0xa2>
 8000ab6:	bd10      	pop	{r4, pc}

08000ab8 <TIM_Base_SetConfig>:
{
  uint32_t tmpcr1 = 0U;
  tmpcr1 = TIMx->CR1;

  /* Set TIM Time Base Unit parameters ---------------------------------------*/
  if (IS_TIM_COUNTER_MODE_SELECT_INSTANCE(TIMx))
 8000ab8:	4a1a      	ldr	r2, [pc, #104]	; (8000b24 <TIM_Base_SetConfig+0x6c>)
  tmpcr1 = TIMx->CR1;
 8000aba:	6803      	ldr	r3, [r0, #0]
  if (IS_TIM_COUNTER_MODE_SELECT_INSTANCE(TIMx))
 8000abc:	4290      	cmp	r0, r2
 8000abe:	d00a      	beq.n	8000ad6 <TIM_Base_SetConfig+0x1e>
 8000ac0:	f1b0 4f80 	cmp.w	r0, #1073741824	; 0x40000000
 8000ac4:	d007      	beq.n	8000ad6 <TIM_Base_SetConfig+0x1e>
 8000ac6:	f5a2 3294 	sub.w	r2, r2, #75776	; 0x12800
 8000aca:	4290      	cmp	r0, r2
 8000acc:	d003      	beq.n	8000ad6 <TIM_Base_SetConfig+0x1e>
 8000ace:	f502 6280 	add.w	r2, r2, #1024	; 0x400
 8000ad2:	4290      	cmp	r0, r2
 8000ad4:	d115      	bne.n	8000b02 <TIM_Base_SetConfig+0x4a>
  {
    /* Select the Counter Mode */
    tmpcr1 &= ~(TIM_CR1_DIR | TIM_CR1_CMS);
    tmpcr1 |= Structure->CounterMode;
 8000ad6:	684a      	ldr	r2, [r1, #4]
    tmpcr1 &= ~(TIM_CR1_DIR | TIM_CR1_CMS);
 8000ad8:	f023 0370 	bic.w	r3, r3, #112	; 0x70
    tmpcr1 |= Structure->CounterMode;
 8000adc:	4313      	orrs	r3, r2
  }

  if(IS_TIM_CLOCK_DIVISION_INSTANCE(TIMx))
 8000ade:	4a11      	ldr	r2, [pc, #68]	; (8000b24 <TIM_Base_SetConfig+0x6c>)
 8000ae0:	4290      	cmp	r0, r2
 8000ae2:	d00a      	beq.n	8000afa <TIM_Base_SetConfig+0x42>
 8000ae4:	f1b0 4f80 	cmp.w	r0, #1073741824	; 0x40000000
 8000ae8:	d007      	beq.n	8000afa <TIM_Base_SetConfig+0x42>
 8000aea:	f5a2 3294 	sub.w	r2, r2, #75776	; 0x12800
 8000aee:	4290      	cmp	r0, r2
 8000af0:	d003      	beq.n	8000afa <TIM_Base_SetConfig+0x42>
 8000af2:	f502 6280 	add.w	r2, r2, #1024	; 0x400
 8000af6:	4290      	cmp	r0, r2
 8000af8:	d103      	bne.n	8000b02 <TIM_Base_SetConfig+0x4a>
  {
    /* Set the clock division */
    tmpcr1 &= ~TIM_CR1_CKD;
    tmpcr1 |= (uint32_t)Structure->ClockDivision;
 8000afa:	68ca      	ldr	r2, [r1, #12]
    tmpcr1 &= ~TIM_CR1_CKD;
 8000afc:	f423 7340 	bic.w	r3, r3, #768	; 0x300
    tmpcr1 |= (uint32_t)Structure->ClockDivision;
 8000b00:	4313      	orrs	r3, r2
  }

  /* Set the auto-reload preload */
  tmpcr1 &= ~TIM_CR1_ARPE;
  tmpcr1 |= (uint32_t)Structure->AutoReloadPreload;
 8000b02:	694a      	ldr	r2, [r1, #20]
  tmpcr1 &= ~TIM_CR1_ARPE;
 8000b04:	f023 0380 	bic.w	r3, r3, #128	; 0x80
  tmpcr1 |= (uint32_t)Structure->AutoReloadPreload;
 8000b08:	4313      	orrs	r3, r2

  TIMx->CR1 = tmpcr1;
 8000b0a:	6003      	str	r3, [r0, #0]

  /* Set the Autoreload value */
  TIMx->ARR = (uint32_t)Structure->Period ;
 8000b0c:	688b      	ldr	r3, [r1, #8]
 8000b0e:	62c3      	str	r3, [r0, #44]	; 0x2c

  /* Set the Prescaler value */
  TIMx->PSC = (uint32_t)Structure->Prescaler;
 8000b10:	680b      	ldr	r3, [r1, #0]
 8000b12:	6283      	str	r3, [r0, #40]	; 0x28

  if (IS_TIM_REPETITION_COUNTER_INSTANCE(TIMx))
 8000b14:	4b03      	ldr	r3, [pc, #12]	; (8000b24 <TIM_Base_SetConfig+0x6c>)
 8000b16:	4298      	cmp	r0, r3
  {
    /* Set the Repetition Counter value */
    TIMx->RCR = Structure->RepetitionCounter;
 8000b18:	bf04      	itt	eq
 8000b1a:	690b      	ldreq	r3, [r1, #16]
 8000b1c:	6303      	streq	r3, [r0, #48]	; 0x30
  }

  /* Generate an update event to reload the Prescaler 
     and the repetition counter(only for TIM1 and TIM8) value immediatly */
  TIMx->EGR = TIM_EGR_UG;
 8000b1e:	2301      	movs	r3, #1
 8000b20:	6143      	str	r3, [r0, #20]
 8000b22:	4770      	bx	lr
 8000b24:	40012c00 	.word	0x40012c00

08000b28 <HAL_TIM_Base_Init>:
{
 8000b28:	b510      	push	{r4, lr}
  if(htim == NULL)
 8000b2a:	4604      	mov	r4, r0
 8000b2c:	b1a0      	cbz	r0, 8000b58 <HAL_TIM_Base_Init+0x30>
  if(htim->State == HAL_TIM_STATE_RESET)
 8000b2e:	f890 303d 	ldrb.w	r3, [r0, #61]	; 0x3d
 8000b32:	f003 02ff 	and.w	r2, r3, #255	; 0xff
 8000b36:	b91b      	cbnz	r3, 8000b40 <HAL_TIM_Base_Init+0x18>
    htim->Lock = HAL_UNLOCKED;
 8000b38:	f880 203c 	strb.w	r2, [r0, #60]	; 0x3c
    HAL_TIM_Base_MspInit(htim);
 8000b3c:	f7ff ff0a 	bl	8000954 <HAL_TIM_Base_MspInit>
  htim->State= HAL_TIM_STATE_BUSY;
 8000b40:	2302      	movs	r3, #2
  TIM_Base_SetConfig(htim->Instance, &htim->Init);
 8000b42:	6820      	ldr	r0, [r4, #0]
  htim->State= HAL_TIM_STATE_BUSY;
 8000b44:	f884 303d 	strb.w	r3, [r4, #61]	; 0x3d
  TIM_Base_SetConfig(htim->Instance, &htim->Init);
 8000b48:	1d21      	adds	r1, r4, #4
 8000b4a:	f7ff ffb5 	bl	8000ab8 <TIM_Base_SetConfig>
  htim->State= HAL_TIM_STATE_READY;
 8000b4e:	2301      	movs	r3, #1
  return HAL_OK;
 8000b50:	2000      	movs	r0, #0
  htim->State= HAL_TIM_STATE_READY;
 8000b52:	f884 303d 	strb.w	r3, [r4, #61]	; 0x3d
  return HAL_OK;
 8000b56:	bd10      	pop	{r4, pc}
    return HAL_ERROR;
 8000b58:	2001      	movs	r0, #1
}
 8000b5a:	bd10      	pop	{r4, pc}

08000b5c <HAL_TIMEx_CommutationCallback>:
 8000b5c:	4770      	bx	lr

08000b5e <HAL_TIMEx_BreakCallback>:
  * @brief  Hall Break detection callback in non blocking mode
  * @param  htim : TIM handle
  * @retval None
  */
__weak void HAL_TIMEx_BreakCallback(TIM_HandleTypeDef *htim)
{
 8000b5e:	4770      	bx	lr

08000b60 <bsp_on>:
#include "bsp.h"
#include "pisca.h"
#include "main.h"

void bsp_on(){
	HAL_GPIO_WritePin(GPIOC, GPIO_PIN_13, GPIO_PIN_SET);
 8000b60:	2201      	movs	r2, #1
 8000b62:	f44f 5100 	mov.w	r1, #8192	; 0x2000
 8000b66:	4801      	ldr	r0, [pc, #4]	; (8000b6c <bsp_on+0xc>)
 8000b68:	f7ff bc46 	b.w	80003f8 <HAL_GPIO_WritePin>
 8000b6c:	40011000 	.word	0x40011000

08000b70 <bsp_off>:
}

void bsp_off(){
	HAL_GPIO_WritePin(GPIOC, GPIO_PIN_13, GPIO_PIN_RESET);
 8000b70:	2200      	movs	r2, #0
 8000b72:	f44f 5100 	mov.w	r1, #8192	; 0x2000
 8000b76:	4801      	ldr	r0, [pc, #4]	; (8000b7c <bsp_off+0xc>)
 8000b78:	f7ff bc3e 	b.w	80003f8 <HAL_GPIO_WritePin>
 8000b7c:	40011000 	.word	0x40011000

08000b80 <bsp_init>:
}

void bsp_init(int t){
 8000b80:	4770      	bx	lr

08000b82 <QF_onStartup>:

}

/*..........................................................................*/
void QF_onStartup(void) {                               /* startup callback */
 8000b82:	4770      	bx	lr

08000b84 <QF_onCleanup>:

}
/*..........................................................................*/
void QF_onCleanup(void) {                               /* cleanup callback */
    printf("\nBye! Bye!\n");
 8000b84:	4801      	ldr	r0, [pc, #4]	; (8000b8c <QF_onCleanup+0x8>)
 8000b86:	f000 befd 	b.w	8001984 <puts>
 8000b8a:	bf00      	nop
 8000b8c:	08002248 	.word	0x08002248

08000b90 <tickHandler>:
}
/*..........................................................................*/
void tickHandler(void) {
	QF_TICK_X(0U,&l_clock_tick);         /* perform the QF clock tick processing */
 8000b90:	2000      	movs	r0, #0
 8000b92:	f000 bd23 	b.w	80015dc <QF_tickX_>

08000b96 <Q_onAssert>:
}
/*..........................................................................*/
void Q_onAssert(char const Q_ROM * const Q_ROM_VAR file, int line) {

    QF_stop();
 8000b96:	f000 bde1 	b.w	800175c <QF_stop>

08000b9a <QV_onIdle>:
    * instead of your broken code. When done disconnect BOOT0, and start over.
    */
    //QV_CPU_SLEEP();  /* atomically go to sleep and enable interrupts */
    QF_INT_ENABLE(); /* just enable interrupts */
#else
    QV_CPU_SLEEP();
 8000b9a:	b672      	cpsid	i
 8000b9c:	2300      	movs	r3, #0
 8000b9e:	f383 8811 	msr	BASEPRI, r3
 8000ba2:	bf30      	wfi
 8000ba4:	b662      	cpsie	i
 8000ba6:	4770      	bx	lr

08000ba8 <SystemClock_Config>:
/**
  * @brief System Clock Configuration
  * @retval None
  */
void SystemClock_Config(void)
{
 8000ba8:	b510      	push	{r4, lr}
 8000baa:	b090      	sub	sp, #64	; 0x40
  RCC_OscInitTypeDef RCC_OscInitStruct = {0};
 8000bac:	2228      	movs	r2, #40	; 0x28
 8000bae:	2100      	movs	r1, #0
 8000bb0:	a806      	add	r0, sp, #24
 8000bb2:	f000 fe83 	bl	80018bc <memset>
  RCC_ClkInitTypeDef RCC_ClkInitStruct = {0};
 8000bb6:	2100      	movs	r1, #0
 8000bb8:	2214      	movs	r2, #20
 8000bba:	a801      	add	r0, sp, #4
 8000bbc:	f000 fe7e 	bl	80018bc <memset>

  /**Initializes the CPU, AHB and APB busses clocks 
  */
  RCC_OscInitStruct.OscillatorType = RCC_OSCILLATORTYPE_HSE;
  RCC_OscInitStruct.HSEState = RCC_HSE_ON;
 8000bc0:	f44f 3380 	mov.w	r3, #65536	; 0x10000
  RCC_OscInitStruct.OscillatorType = RCC_OSCILLATORTYPE_HSE;
 8000bc4:	2201      	movs	r2, #1
  RCC_OscInitStruct.HSEPredivValue = RCC_HSE_PREDIV_DIV1;
  RCC_OscInitStruct.HSIState = RCC_HSI_ON;
  RCC_OscInitStruct.PLL.PLLState = RCC_PLL_ON;
 8000bc6:	2402      	movs	r4, #2
  RCC_OscInitStruct.HSEState = RCC_HSE_ON;
 8000bc8:	9307      	str	r3, [sp, #28]
  RCC_OscInitStruct.PLL.PLLSource = RCC_PLLSOURCE_HSE;
 8000bca:	930e      	str	r3, [sp, #56]	; 0x38
  RCC_OscInitStruct.PLL.PLLMUL = RCC_PLL_MUL9;
 8000bcc:	f44f 13e0 	mov.w	r3, #1835008	; 0x1c0000
  if (HAL_RCC_OscConfig(&RCC_OscInitStruct) != HAL_OK)
 8000bd0:	a806      	add	r0, sp, #24
  RCC_OscInitStruct.OscillatorType = RCC_OSCILLATORTYPE_HSE;
 8000bd2:	9206      	str	r2, [sp, #24]
  RCC_OscInitStruct.HSIState = RCC_HSI_ON;
 8000bd4:	920a      	str	r2, [sp, #40]	; 0x28
  RCC_OscInitStruct.PLL.PLLMUL = RCC_PLL_MUL9;
 8000bd6:	930f      	str	r3, [sp, #60]	; 0x3c
  RCC_OscInitStruct.PLL.PLLState = RCC_PLL_ON;
 8000bd8:	940d      	str	r4, [sp, #52]	; 0x34
  if (HAL_RCC_OscConfig(&RCC_OscInitStruct) != HAL_OK)
 8000bda:	f7ff fc13 	bl	8000404 <HAL_RCC_OscConfig>
  {
    Error_Handler();
  }
  /**Initializes the CPU, AHB and APB busses clocks 
  */
  RCC_ClkInitStruct.ClockType = RCC_CLOCKTYPE_HCLK|RCC_CLOCKTYPE_SYSCLK
 8000bde:	230f      	movs	r3, #15
                              |RCC_CLOCKTYPE_PCLK1|RCC_CLOCKTYPE_PCLK2;
  RCC_ClkInitStruct.SYSCLKSource = RCC_SYSCLKSOURCE_PLLCLK;
  RCC_ClkInitStruct.AHBCLKDivider = RCC_SYSCLK_DIV1;
  RCC_ClkInitStruct.APB1CLKDivider = RCC_HCLK_DIV2;
 8000be0:	f44f 6280 	mov.w	r2, #1024	; 0x400
  RCC_ClkInitStruct.ClockType = RCC_CLOCKTYPE_HCLK|RCC_CLOCKTYPE_SYSCLK
 8000be4:	9301      	str	r3, [sp, #4]
  RCC_ClkInitStruct.AHBCLKDivider = RCC_SYSCLK_DIV1;
 8000be6:	2300      	movs	r3, #0
  RCC_ClkInitStruct.APB2CLKDivider = RCC_HCLK_DIV1;

  if (HAL_RCC_ClockConfig(&RCC_ClkInitStruct, FLASH_LATENCY_2) != HAL_OK)
 8000be8:	4621      	mov	r1, r4
 8000bea:	a801      	add	r0, sp, #4
  RCC_ClkInitStruct.SYSCLKSource = RCC_SYSCLKSOURCE_PLLCLK;
 8000bec:	9402      	str	r4, [sp, #8]
  RCC_ClkInitStruct.AHBCLKDivider = RCC_SYSCLK_DIV1;
 8000bee:	9303      	str	r3, [sp, #12]
  RCC_ClkInitStruct.APB1CLKDivider = RCC_HCLK_DIV2;
 8000bf0:	9204      	str	r2, [sp, #16]
  RCC_ClkInitStruct.APB2CLKDivider = RCC_HCLK_DIV1;
 8000bf2:	9305      	str	r3, [sp, #20]
  if (HAL_RCC_ClockConfig(&RCC_ClkInitStruct, FLASH_LATENCY_2) != HAL_OK)
 8000bf4:	f7ff fdce 	bl	8000794 <HAL_RCC_ClockConfig>
  {
    Error_Handler();
  }
}
 8000bf8:	b010      	add	sp, #64	; 0x40
 8000bfa:	bd10      	pop	{r4, pc}

08000bfc <main>:
{
 8000bfc:	b570      	push	{r4, r5, r6, lr}
 8000bfe:	b08c      	sub	sp, #48	; 0x30
  HAL_Init();
 8000c00:	f7ff faa4 	bl	800014c <HAL_Init>
  SystemClock_Config();
 8000c04:	f7ff ffd0 	bl	8000ba8 <SystemClock_Config>
  * @param None
  * @retval None
  */
static void MX_GPIO_Init(void)
{
  GPIO_InitTypeDef GPIO_InitStruct = {0};
 8000c08:	2210      	movs	r2, #16
 8000c0a:	2100      	movs	r1, #0
 8000c0c:	a808      	add	r0, sp, #32
 8000c0e:	f000 fe55 	bl	80018bc <memset>

  /* GPIO Ports Clock Enable */
  __HAL_RCC_GPIOC_CLK_ENABLE();
 8000c12:	4b28      	ldr	r3, [pc, #160]	; (8000cb4 <main+0xb8>)
  __HAL_RCC_GPIOD_CLK_ENABLE();
  __HAL_RCC_GPIOA_CLK_ENABLE();

  /*Configure GPIO pin Output Level */
  HAL_GPIO_WritePin(GPIOC, GPIO_PIN_13, GPIO_PIN_RESET);
 8000c14:	4e28      	ldr	r6, [pc, #160]	; (8000cb8 <main+0xbc>)
  __HAL_RCC_GPIOC_CLK_ENABLE();
 8000c16:	699a      	ldr	r2, [r3, #24]
  HAL_GPIO_WritePin(GPIOC, GPIO_PIN_13, GPIO_PIN_RESET);
 8000c18:	4630      	mov	r0, r6
  __HAL_RCC_GPIOC_CLK_ENABLE();
 8000c1a:	f042 0210 	orr.w	r2, r2, #16
 8000c1e:	619a      	str	r2, [r3, #24]
 8000c20:	699a      	ldr	r2, [r3, #24]
  HAL_GPIO_WritePin(GPIOC, GPIO_PIN_13, GPIO_PIN_RESET);
 8000c22:	f44f 5100 	mov.w	r1, #8192	; 0x2000
  __HAL_RCC_GPIOC_CLK_ENABLE();
 8000c26:	f002 0210 	and.w	r2, r2, #16
 8000c2a:	9205      	str	r2, [sp, #20]
 8000c2c:	9a05      	ldr	r2, [sp, #20]
  __HAL_RCC_GPIOD_CLK_ENABLE();
 8000c2e:	699a      	ldr	r2, [r3, #24]

  /*Configure GPIO pin : PC13 */
  GPIO_InitStruct.Pin = GPIO_PIN_13;
  GPIO_InitStruct.Mode = GPIO_MODE_OUTPUT_PP;
  GPIO_InitStruct.Pull = GPIO_NOPULL;
 8000c30:	2400      	movs	r4, #0
  __HAL_RCC_GPIOD_CLK_ENABLE();
 8000c32:	f042 0220 	orr.w	r2, r2, #32
 8000c36:	619a      	str	r2, [r3, #24]
 8000c38:	699a      	ldr	r2, [r3, #24]
  GPIO_InitStruct.Mode = GPIO_MODE_OUTPUT_PP;
 8000c3a:	2501      	movs	r5, #1
  __HAL_RCC_GPIOD_CLK_ENABLE();
 8000c3c:	f002 0220 	and.w	r2, r2, #32
 8000c40:	9206      	str	r2, [sp, #24]
 8000c42:	9a06      	ldr	r2, [sp, #24]
  __HAL_RCC_GPIOA_CLK_ENABLE();
 8000c44:	699a      	ldr	r2, [r3, #24]
 8000c46:	f042 0204 	orr.w	r2, r2, #4
 8000c4a:	619a      	str	r2, [r3, #24]
 8000c4c:	699b      	ldr	r3, [r3, #24]
  HAL_GPIO_WritePin(GPIOC, GPIO_PIN_13, GPIO_PIN_RESET);
 8000c4e:	2200      	movs	r2, #0
  __HAL_RCC_GPIOA_CLK_ENABLE();
 8000c50:	f003 0304 	and.w	r3, r3, #4
 8000c54:	9307      	str	r3, [sp, #28]
 8000c56:	9b07      	ldr	r3, [sp, #28]
  HAL_GPIO_WritePin(GPIOC, GPIO_PIN_13, GPIO_PIN_RESET);
 8000c58:	f7ff fbce 	bl	80003f8 <HAL_GPIO_WritePin>
  GPIO_InitStruct.Pin = GPIO_PIN_13;
 8000c5c:	f44f 5300 	mov.w	r3, #8192	; 0x2000
 8000c60:	9308      	str	r3, [sp, #32]
  GPIO_InitStruct.Speed = GPIO_SPEED_FREQ_LOW;
 8000c62:	2302      	movs	r3, #2
  HAL_GPIO_Init(GPIOC, &GPIO_InitStruct);
 8000c64:	a908      	add	r1, sp, #32
 8000c66:	4630      	mov	r0, r6
  GPIO_InitStruct.Speed = GPIO_SPEED_FREQ_LOW;
 8000c68:	930b      	str	r3, [sp, #44]	; 0x2c
  GPIO_InitStruct.Pull = GPIO_NOPULL;
 8000c6a:	940a      	str	r4, [sp, #40]	; 0x28
  GPIO_InitStruct.Mode = GPIO_MODE_OUTPUT_PP;
 8000c6c:	9509      	str	r5, [sp, #36]	; 0x24
  HAL_GPIO_Init(GPIOC, &GPIO_InitStruct);
 8000c6e:	f7ff fae3 	bl	8000238 <HAL_GPIO_Init>
    Pisca_ctor();                    /* instantiate the Pisca active object */
 8000c72:	f000 f88d 	bl	8000d90 <Pisca_ctor>
    QF_init();     /* initialize the framework and the underlying RT kernel */
 8000c76:	f000 fd4d 	bl	8001714 <QF_init>
    bsp_init(0);           /* initialize the Board Support Package */
 8000c7a:	4620      	mov	r0, r4
 8000c7c:	f7ff ff80 	bl	8000b80 <bsp_init>
    QF_psInit(l_subscrSto, Q_DIM(l_subscrSto));   /* init publish-subscribe */
 8000c80:	2105      	movs	r1, #5
 8000c82:	480e      	ldr	r0, [pc, #56]	; (8000cbc <main+0xc0>)
 8000c84:	f000 fc4c 	bl	8001520 <QF_psInit>
    QF_poolInit(l_smlPoolSto, sizeof(l_smlPoolSto), sizeof(l_smlPoolSto[0]));
 8000c88:	2208      	movs	r2, #8
 8000c8a:	2128      	movs	r1, #40	; 0x28
 8000c8c:	480c      	ldr	r0, [pc, #48]	; (8000cc0 <main+0xc4>)
 8000c8e:	f000 fb83 	bl	8001398 <QF_poolInit>
    QACTIVE_START(AO_Pisca, (uint8_t)(1),
 8000c92:	f44f 6280 	mov.w	r2, #1024	; 0x400
 8000c96:	4b0b      	ldr	r3, [pc, #44]	; (8000cc4 <main+0xc8>)
 8000c98:	4629      	mov	r1, r5
 8000c9a:	6818      	ldr	r0, [r3, #0]
 8000c9c:	6803      	ldr	r3, [r0, #0]
 8000c9e:	9201      	str	r2, [sp, #4]
 8000ca0:	9402      	str	r4, [sp, #8]
 8000ca2:	9400      	str	r4, [sp, #0]
 8000ca4:	689c      	ldr	r4, [r3, #8]
 8000ca6:	4a08      	ldr	r2, [pc, #32]	; (8000cc8 <main+0xcc>)
 8000ca8:	2305      	movs	r3, #5
 8000caa:	47a0      	blx	r4
    return QF_run();                              /* run the QF application */
 8000cac:	f000 fd58 	bl	8001760 <QF_run>
}
 8000cb0:	b00c      	add	sp, #48	; 0x30
 8000cb2:	bd70      	pop	{r4, r5, r6, pc}
 8000cb4:	40021000 	.word	0x40021000
 8000cb8:	40011000 	.word	0x40011000
 8000cbc:	200000c4 	.word	0x200000c4
 8000cc0:	2000009c 	.word	0x2000009c
 8000cc4:	08002254 	.word	0x08002254
 8000cc8:	20000088 	.word	0x20000088

08000ccc <HAL_TIM_PeriodElapsedCallback>:
  * a global variable "uwTick" used as application time base.
  * @param  htim : TIM handle
  * @retval None
  */
void HAL_TIM_PeriodElapsedCallback(TIM_HandleTypeDef *htim)
{
 8000ccc:	b508      	push	{r3, lr}
  /* USER CODE BEGIN Callback 0 */

  /* USER CODE END Callback 0 */
  if (htim->Instance == TIM4) {
 8000cce:	6802      	ldr	r2, [r0, #0]
 8000cd0:	4b04      	ldr	r3, [pc, #16]	; (8000ce4 <HAL_TIM_PeriodElapsedCallback+0x18>)
 8000cd2:	429a      	cmp	r2, r3
 8000cd4:	d105      	bne.n	8000ce2 <HAL_TIM_PeriodElapsedCallback+0x16>
    HAL_IncTick();
 8000cd6:	f7ff fa4b 	bl	8000170 <HAL_IncTick>
    tickHandler();
  }
  /* USER CODE BEGIN Callback 1 */

  /* USER CODE END Callback 1 */
}
 8000cda:	e8bd 4008 	ldmia.w	sp!, {r3, lr}
    tickHandler();
 8000cde:	f7ff bf57 	b.w	8000b90 <tickHandler>
 8000ce2:	bd08      	pop	{r3, pc}
 8000ce4:	40000800 	.word	0x40000800

08000ce8 <Pisca_initial>:
    Pisca *me = &l_pisca;
    QActive_ctor(&me->super, Q_STATE_CAST(&Pisca_initial));
    QTimeEvt_ctor(&me->timeEvt, TIMEOUT_SIG);
}

static QState Pisca_initial(Pisca * const me, QEvt const * const e) {
 8000ce8:	b510      	push	{r4, lr}
 8000cea:	4604      	mov	r4, r0

    (void)e; /* suppress the compiler warning about unused parameter */

    QActive_subscribe(&me->super, B1_SIG);
 8000cec:	2104      	movs	r1, #4
 8000cee:	f000 fc23 	bl	8001538 <QActive_subscribe>

    return Q_TRAN(&Pisca_on);
 8000cf2:	4b02      	ldr	r3, [pc, #8]	; (8000cfc <Pisca_initial+0x14>)
}
 8000cf4:	2008      	movs	r0, #8
    return Q_TRAN(&Pisca_on);
 8000cf6:	60a3      	str	r3, [r4, #8]
}
 8000cf8:	bd10      	pop	{r4, pc}
 8000cfa:	bf00      	nop
 8000cfc:	08000d01 	.word	0x08000d01

08000d00 <Pisca_on>:
    return status;
}

static QState Pisca_on(Pisca * const me, QEvt const * const e) {
    QState status;
    switch (e->sig) {
 8000d00:	880b      	ldrh	r3, [r1, #0]
static QState Pisca_on(Pisca * const me, QEvt const * const e) {
 8000d02:	b510      	push	{r4, lr}
    switch (e->sig) {
 8000d04:	3b01      	subs	r3, #1
static QState Pisca_on(Pisca * const me, QEvt const * const e) {
 8000d06:	4604      	mov	r4, r0
    switch (e->sig) {
 8000d08:	2b06      	cmp	r3, #6
 8000d0a:	d815      	bhi.n	8000d38 <Pisca_on+0x38>
 8000d0c:	e8df f003 	tbb	[pc, r3]
 8000d10:	0e141404 	.word	0x0e141404
 8000d14:	0e14      	.short	0x0e14
 8000d16:	10          	.byte	0x10
 8000d17:	00          	.byte	0x00
    case Q_ENTRY_SIG: {
                bsp_on();
 8000d18:	f7ff ff22 	bl	8000b60 <bsp_on>
                QTimeEvt_postIn(&me->timeEvt, &me->super, ON_TIME);
 8000d1c:	62a4      	str	r4, [r4, #40]	; 0x28
 8000d1e:	2200      	movs	r2, #0
 8000d20:	f44f 61fa 	mov.w	r1, #2000	; 0x7d0
 8000d24:	f104 0020 	add.w	r0, r4, #32
 8000d28:	f000 fcc0 	bl	80016ac <QTimeEvt_armX>
                status = Q_HANDLED();
                break;
            }
    case B1_SIG:
    case B2_SIG: {
        status = Q_HANDLED();
 8000d2c:	2003      	movs	r0, #3
    		status = Q_SUPER(&QHsm_top);
            break;
        }
    }
    return status;
}
 8000d2e:	bd10      	pop	{r4, pc}
    	status = Q_TRAN(&Pisca_off);
 8000d30:	4b03      	ldr	r3, [pc, #12]	; (8000d40 <Pisca_on+0x40>)
 8000d32:	6083      	str	r3, [r0, #8]
 8000d34:	2008      	movs	r0, #8
    	break;
 8000d36:	bd10      	pop	{r4, pc}
    		status = Q_SUPER(&QHsm_top);
 8000d38:	4b02      	ldr	r3, [pc, #8]	; (8000d44 <Pisca_on+0x44>)
 8000d3a:	6083      	str	r3, [r0, #8]
 8000d3c:	2000      	movs	r0, #0
            break;
 8000d3e:	bd10      	pop	{r4, pc}
 8000d40:	08000d49 	.word	0x08000d49
 8000d44:	08000f31 	.word	0x08000f31

08000d48 <Pisca_off>:
    switch (e->sig) {
 8000d48:	880b      	ldrh	r3, [r1, #0]
static QState Pisca_off(Pisca * const me, QEvt const * const e) {
 8000d4a:	b510      	push	{r4, lr}
    switch (e->sig) {
 8000d4c:	3b01      	subs	r3, #1
static QState Pisca_off(Pisca * const me, QEvt const * const e) {
 8000d4e:	4604      	mov	r4, r0
    switch (e->sig) {
 8000d50:	2b06      	cmp	r3, #6
 8000d52:	d815      	bhi.n	8000d80 <Pisca_off+0x38>
 8000d54:	e8df f003 	tbb	[pc, r3]
 8000d58:	10141404 	.word	0x10141404
 8000d5c:	1014      	.short	0x1014
 8000d5e:	10          	.byte	0x10
 8000d5f:	00          	.byte	0x00
    		bsp_off();
 8000d60:	f7ff ff06 	bl	8000b70 <bsp_off>
    		QTimeEvt_postIn(&me->timeEvt, &me->super, ON_TIME);
 8000d64:	f104 0020 	add.w	r0, r4, #32
 8000d68:	62a4      	str	r4, [r4, #40]	; 0x28
 8000d6a:	2200      	movs	r2, #0
 8000d6c:	f44f 61fa 	mov.w	r1, #2000	; 0x7d0
 8000d70:	f000 fc9c 	bl	80016ac <QTimeEvt_armX>
 8000d74:	2003      	movs	r0, #3
 8000d76:	bd10      	pop	{r4, pc}
        	status = Q_TRAN(&Pisca_on);
 8000d78:	4b03      	ldr	r3, [pc, #12]	; (8000d88 <Pisca_off+0x40>)
 8000d7a:	6083      	str	r3, [r0, #8]
 8000d7c:	2008      	movs	r0, #8
        	break;
 8000d7e:	bd10      	pop	{r4, pc}
            status = Q_SUPER(&QHsm_top);
 8000d80:	4b02      	ldr	r3, [pc, #8]	; (8000d8c <Pisca_off+0x44>)
 8000d82:	6083      	str	r3, [r0, #8]
 8000d84:	2000      	movs	r0, #0
}
 8000d86:	bd10      	pop	{r4, pc}
 8000d88:	08000d01 	.word	0x08000d01
 8000d8c:	08000f31 	.word	0x08000f31

08000d90 <Pisca_ctor>:
void Pisca_ctor(void) {
 8000d90:	b510      	push	{r4, lr}
    QActive_ctor(&me->super, Q_STATE_CAST(&Pisca_initial));
 8000d92:	4c07      	ldr	r4, [pc, #28]	; (8000db0 <Pisca_ctor+0x20>)
 8000d94:	4907      	ldr	r1, [pc, #28]	; (8000db4 <Pisca_ctor+0x24>)
 8000d96:	4620      	mov	r0, r4
 8000d98:	f000 fc00 	bl	800159c <QActive_ctor>
    QTimeEvt_ctor(&me->timeEvt, TIMEOUT_SIG);
 8000d9c:	2300      	movs	r3, #0
 8000d9e:	f104 0020 	add.w	r0, r4, #32
 8000da2:	2207      	movs	r2, #7
}
 8000da4:	e8bd 4010 	ldmia.w	sp!, {r4, lr}
    QTimeEvt_ctor(&me->timeEvt, TIMEOUT_SIG);
 8000da8:	4619      	mov	r1, r3
 8000daa:	f000 bc65 	b.w	8001678 <QTimeEvt_ctorX>
 8000dae:	bf00      	nop
 8000db0:	200000d8 	.word	0x200000d8
 8000db4:	08000ce9 	.word	0x08000ce9

08000db8 <HAL_MspInit>:
{
  /* USER CODE BEGIN MspInit 0 */

  /* USER CODE END MspInit 0 */

  __HAL_RCC_AFIO_CLK_ENABLE();
 8000db8:	4b0e      	ldr	r3, [pc, #56]	; (8000df4 <HAL_MspInit+0x3c>)
{
 8000dba:	b082      	sub	sp, #8
  __HAL_RCC_AFIO_CLK_ENABLE();
 8000dbc:	699a      	ldr	r2, [r3, #24]
 8000dbe:	f042 0201 	orr.w	r2, r2, #1
 8000dc2:	619a      	str	r2, [r3, #24]
 8000dc4:	699a      	ldr	r2, [r3, #24]
 8000dc6:	f002 0201 	and.w	r2, r2, #1
 8000dca:	9200      	str	r2, [sp, #0]
 8000dcc:	9a00      	ldr	r2, [sp, #0]
  __HAL_RCC_PWR_CLK_ENABLE();
 8000dce:	69da      	ldr	r2, [r3, #28]
 8000dd0:	f042 5280 	orr.w	r2, r2, #268435456	; 0x10000000
 8000dd4:	61da      	str	r2, [r3, #28]
 8000dd6:	69db      	ldr	r3, [r3, #28]

  /* System interrupt init*/

  /**NOJTAG: JTAG-DP Disabled and SW-DP Enabled 
  */
  __HAL_AFIO_REMAP_SWJ_NOJTAG();
 8000dd8:	4a07      	ldr	r2, [pc, #28]	; (8000df8 <HAL_MspInit+0x40>)
  __HAL_RCC_PWR_CLK_ENABLE();
 8000dda:	f003 5380 	and.w	r3, r3, #268435456	; 0x10000000
 8000dde:	9301      	str	r3, [sp, #4]
 8000de0:	9b01      	ldr	r3, [sp, #4]
  __HAL_AFIO_REMAP_SWJ_NOJTAG();
 8000de2:	6853      	ldr	r3, [r2, #4]
 8000de4:	f023 63e0 	bic.w	r3, r3, #117440512	; 0x7000000
 8000de8:	f043 7300 	orr.w	r3, r3, #33554432	; 0x2000000
 8000dec:	6053      	str	r3, [r2, #4]

  /* USER CODE BEGIN MspInit 1 */

  /* USER CODE END MspInit 1 */
}
 8000dee:	b002      	add	sp, #8
 8000df0:	4770      	bx	lr
 8000df2:	bf00      	nop
 8000df4:	40021000 	.word	0x40021000
 8000df8:	40010000 	.word	0x40010000

08000dfc <HAL_InitTick>:
  *         reset by HAL_Init() or at any time when clock is configured, by HAL_RCC_ClockConfig(). 
  * @param  TickPriority: Tick interrupt priority.
  * @retval HAL status
  */
HAL_StatusTypeDef HAL_InitTick(uint32_t TickPriority)
{
 8000dfc:	b510      	push	{r4, lr}
  uint32_t              uwTimclock = 0;
  uint32_t              uwPrescalerValue = 0;
  uint32_t              pFLatency;
  
  /*Configure the TIM4 IRQ priority */
  HAL_NVIC_SetPriority(TIM4_IRQn, TickPriority ,0); 
 8000dfe:	4601      	mov	r1, r0
{
 8000e00:	b088      	sub	sp, #32
  HAL_NVIC_SetPriority(TIM4_IRQn, TickPriority ,0); 
 8000e02:	2200      	movs	r2, #0
 8000e04:	201e      	movs	r0, #30
 8000e06:	f7ff f9d7 	bl	80001b8 <HAL_NVIC_SetPriority>
  
  /* Enable the TIM4 global Interrupt */
  HAL_NVIC_EnableIRQ(TIM4_IRQn); 
 8000e0a:	201e      	movs	r0, #30
 8000e0c:	f7ff fa08 	bl	8000220 <HAL_NVIC_EnableIRQ>
  
  /* Enable TIM4 clock */
  __HAL_RCC_TIM4_CLK_ENABLE();
 8000e10:	4b14      	ldr	r3, [pc, #80]	; (8000e64 <HAL_InitTick+0x68>)
  
  /* Get clock configuration */
  HAL_RCC_GetClockConfig(&clkconfig, &pFLatency);
 8000e12:	a901      	add	r1, sp, #4
  __HAL_RCC_TIM4_CLK_ENABLE();
 8000e14:	69da      	ldr	r2, [r3, #28]
  HAL_RCC_GetClockConfig(&clkconfig, &pFLatency);
 8000e16:	a803      	add	r0, sp, #12
  __HAL_RCC_TIM4_CLK_ENABLE();
 8000e18:	f042 0204 	orr.w	r2, r2, #4
 8000e1c:	61da      	str	r2, [r3, #28]
 8000e1e:	69db      	ldr	r3, [r3, #28]
   
  /* Compute the prescaler value to have TIM4 counter clock equal to 1MHz */
  uwPrescalerValue = (uint32_t) ((uwTimclock / 1000000) - 1);
  
  /* Initialize TIM4 */
  htim4.Instance = TIM4;
 8000e20:	4c11      	ldr	r4, [pc, #68]	; (8000e68 <HAL_InitTick+0x6c>)
  __HAL_RCC_TIM4_CLK_ENABLE();
 8000e22:	f003 0304 	and.w	r3, r3, #4
 8000e26:	9302      	str	r3, [sp, #8]
 8000e28:	9b02      	ldr	r3, [sp, #8]
  HAL_RCC_GetClockConfig(&clkconfig, &pFLatency);
 8000e2a:	f7ff fd75 	bl	8000918 <HAL_RCC_GetClockConfig>
  uwTimclock = 2*HAL_RCC_GetPCLK1Freq();
 8000e2e:	f7ff fd63 	bl	80008f8 <HAL_RCC_GetPCLK1Freq>
  htim4.Instance = TIM4;
 8000e32:	4b0e      	ldr	r3, [pc, #56]	; (8000e6c <HAL_InitTick+0x70>)
  uwTimclock = 2*HAL_RCC_GetPCLK1Freq();
 8000e34:	0040      	lsls	r0, r0, #1
  htim4.Instance = TIM4;
 8000e36:	6023      	str	r3, [r4, #0]
  + Period = [(TIM4CLK/1000) - 1]. to have a (1/1000) s time base.
  + Prescaler = (uwTimclock/1000000 - 1) to have a 1MHz counter clock.
  + ClockDivision = 0
  + Counter direction = Up
  */
  htim4.Init.Period = (1000000 / 1000) - 1;
 8000e38:	f240 33e7 	movw	r3, #999	; 0x3e7
 8000e3c:	60e3      	str	r3, [r4, #12]
  uwPrescalerValue = (uint32_t) ((uwTimclock / 1000000) - 1);
 8000e3e:	4b0c      	ldr	r3, [pc, #48]	; (8000e70 <HAL_InitTick+0x74>)
 8000e40:	fbb0 f0f3 	udiv	r0, r0, r3
  htim4.Init.Prescaler = uwPrescalerValue;
  htim4.Init.ClockDivision = 0;
 8000e44:	2300      	movs	r3, #0
  uwPrescalerValue = (uint32_t) ((uwTimclock / 1000000) - 1);
 8000e46:	3801      	subs	r0, #1
  htim4.Init.Prescaler = uwPrescalerValue;
 8000e48:	6060      	str	r0, [r4, #4]
  htim4.Init.CounterMode = TIM_COUNTERMODE_UP;
  if(HAL_TIM_Base_Init(&htim4) == HAL_OK)
 8000e4a:	4620      	mov	r0, r4
  htim4.Init.ClockDivision = 0;
 8000e4c:	6123      	str	r3, [r4, #16]
  htim4.Init.CounterMode = TIM_COUNTERMODE_UP;
 8000e4e:	60a3      	str	r3, [r4, #8]
  if(HAL_TIM_Base_Init(&htim4) == HAL_OK)
 8000e50:	f7ff fe6a 	bl	8000b28 <HAL_TIM_Base_Init>
 8000e54:	b920      	cbnz	r0, 8000e60 <HAL_InitTick+0x64>
  {
    /* Start the TIM time Base generation in interrupt mode */
    return HAL_TIM_Base_Start_IT(&htim4);
 8000e56:	4620      	mov	r0, r4
 8000e58:	f7ff fd7d 	bl	8000956 <HAL_TIM_Base_Start_IT>
  }
  
  /* Return function status */
  return HAL_ERROR;
}
 8000e5c:	b008      	add	sp, #32
 8000e5e:	bd10      	pop	{r4, pc}
  return HAL_ERROR;
 8000e60:	2001      	movs	r0, #1
 8000e62:	e7fb      	b.n	8000e5c <HAL_InitTick+0x60>
 8000e64:	40021000 	.word	0x40021000
 8000e68:	20000118 	.word	0x20000118
 8000e6c:	40000800 	.word	0x40000800
 8000e70:	000f4240 	.word	0x000f4240

08000e74 <NMI_Handler>:
 8000e74:	4770      	bx	lr

08000e76 <HardFault_Handler>:

/**
  * @brief This function handles Hard fault interrupt.
  */
void HardFault_Handler(void)
{
 8000e76:	e7fe      	b.n	8000e76 <HardFault_Handler>

08000e78 <MemManage_Handler>:

/**
  * @brief This function handles Memory management fault.
  */
void MemManage_Handler(void)
{
 8000e78:	e7fe      	b.n	8000e78 <MemManage_Handler>

08000e7a <BusFault_Handler>:

/**
  * @brief This function handles Prefetch fault, memory access fault.
  */
void BusFault_Handler(void)
{
 8000e7a:	e7fe      	b.n	8000e7a <BusFault_Handler>

08000e7c <UsageFault_Handler>:

/**
  * @brief This function handles Undefined instruction or illegal state.
  */
void UsageFault_Handler(void)
{
 8000e7c:	e7fe      	b.n	8000e7c <UsageFault_Handler>

08000e7e <SVC_Handler>:
 8000e7e:	4770      	bx	lr

08000e80 <DebugMon_Handler>:
 8000e80:	4770      	bx	lr

08000e82 <PendSV_Handler>:
 8000e82:	4770      	bx	lr

08000e84 <SysTick_Handler>:

/**
  * @brief This function handles System tick timer.
  */
void SysTick_Handler(void)
{
 8000e84:	4770      	bx	lr
	...

08000e88 <TIM4_IRQHandler>:
void TIM4_IRQHandler(void)
{
  /* USER CODE BEGIN TIM4_IRQn 0 */

  /* USER CODE END TIM4_IRQn 0 */
  HAL_TIM_IRQHandler(&htim4);
 8000e88:	4801      	ldr	r0, [pc, #4]	; (8000e90 <TIM4_IRQHandler+0x8>)
 8000e8a:	f7ff bd73 	b.w	8000974 <HAL_TIM_IRQHandler>
 8000e8e:	bf00      	nop
 8000e90:	20000118 	.word	0x20000118

08000e94 <SystemInit>:
  */
void SystemInit (void)
{
  /* Reset the RCC clock configuration to the default reset state(for debug purpose) */
  /* Set HSION bit */
  RCC->CR |= 0x00000001U;
 8000e94:	4b0f      	ldr	r3, [pc, #60]	; (8000ed4 <SystemInit+0x40>)
 8000e96:	681a      	ldr	r2, [r3, #0]
 8000e98:	f042 0201 	orr.w	r2, r2, #1
 8000e9c:	601a      	str	r2, [r3, #0]

  /* Reset SW, HPRE, PPRE1, PPRE2, ADCPRE and MCO bits */
#if !defined(STM32F105xC) && !defined(STM32F107xC)
  RCC->CFGR &= 0xF8FF0000U;
 8000e9e:	6859      	ldr	r1, [r3, #4]
 8000ea0:	4a0d      	ldr	r2, [pc, #52]	; (8000ed8 <SystemInit+0x44>)
 8000ea2:	400a      	ands	r2, r1
 8000ea4:	605a      	str	r2, [r3, #4]
#else
  RCC->CFGR &= 0xF0FF0000U;
#endif /* STM32F105xC */   
  
  /* Reset HSEON, CSSON and PLLON bits */
  RCC->CR &= 0xFEF6FFFFU;
 8000ea6:	681a      	ldr	r2, [r3, #0]
 8000ea8:	f022 7284 	bic.w	r2, r2, #17301504	; 0x1080000
 8000eac:	f422 3280 	bic.w	r2, r2, #65536	; 0x10000
 8000eb0:	601a      	str	r2, [r3, #0]

  /* Reset HSEBYP bit */
  RCC->CR &= 0xFFFBFFFFU;
 8000eb2:	681a      	ldr	r2, [r3, #0]
 8000eb4:	f422 2280 	bic.w	r2, r2, #262144	; 0x40000
 8000eb8:	601a      	str	r2, [r3, #0]

  /* Reset PLLSRC, PLLXTPRE, PLLMUL and USBPRE/OTGFSPRE bits */
  RCC->CFGR &= 0xFF80FFFFU;
 8000eba:	685a      	ldr	r2, [r3, #4]
 8000ebc:	f422 02fe 	bic.w	r2, r2, #8323072	; 0x7f0000
 8000ec0:	605a      	str	r2, [r3, #4]

  /* Reset CFGR2 register */
  RCC->CFGR2 = 0x00000000U;      
#else
  /* Disable all interrupts and clear pending bits  */
  RCC->CIR = 0x009F0000U;
 8000ec2:	f44f 021f 	mov.w	r2, #10420224	; 0x9f0000
 8000ec6:	609a      	str	r2, [r3, #8]
#endif 

#ifdef VECT_TAB_SRAM
  SCB->VTOR = SRAM_BASE | VECT_TAB_OFFSET; /* Vector Table Relocation in Internal SRAM. */
#else
  SCB->VTOR = FLASH_BASE | VECT_TAB_OFFSET; /* Vector Table Relocation in Internal FLASH. */
 8000ec8:	f04f 6200 	mov.w	r2, #134217728	; 0x8000000
 8000ecc:	4b03      	ldr	r3, [pc, #12]	; (8000edc <SystemInit+0x48>)
 8000ece:	609a      	str	r2, [r3, #8]
 8000ed0:	4770      	bx	lr
 8000ed2:	bf00      	nop
 8000ed4:	40021000 	.word	0x40021000
 8000ed8:	f8ff0000 	.word	0xf8ff0000
 8000edc:	e000ed00 	.word	0xe000ed00

08000ee0 <QV_init>:

    /* set all implemented IRQ priories to QF_BASEPRI... */
    n = 8U + ((*SCnSCB_ICTR & 0x7U) << 3); /* (# NVIC_PRIO registers)/4 */
    do {
        --n;
        NVIC_IP[n] = (QF_BASEPRI << 24) | (QF_BASEPRI << 16)
 8000ee0:	f04f 313f 	mov.w	r1, #1061109567	; 0x3f3f3f3f
    SCB_SYSPRI[1] |= (QF_BASEPRI << 16) | (QF_BASEPRI << 8) | QF_BASEPRI;
 8000ee4:	4a0f      	ldr	r2, [pc, #60]	; (8000f24 <QV_init+0x44>)
 8000ee6:	6813      	ldr	r3, [r2, #0]
 8000ee8:	f043 133f 	orr.w	r3, r3, #4128831	; 0x3f003f
 8000eec:	f443 537c 	orr.w	r3, r3, #16128	; 0x3f00
 8000ef0:	6013      	str	r3, [r2, #0]
    SCB_SYSPRI[2] |= (QF_BASEPRI << 24);
 8000ef2:	6853      	ldr	r3, [r2, #4]
 8000ef4:	f043 537c 	orr.w	r3, r3, #1056964608	; 0x3f000000
 8000ef8:	6053      	str	r3, [r2, #4]
    SCB_SYSPRI[3] |= (QF_BASEPRI << 24) | (QF_BASEPRI << 16) | QF_BASEPRI;
 8000efa:	6893      	ldr	r3, [r2, #8]
 8000efc:	f043 537c 	orr.w	r3, r3, #1056964608	; 0x3f000000
 8000f00:	f043 133f 	orr.w	r3, r3, #4128831	; 0x3f003f
 8000f04:	6093      	str	r3, [r2, #8]
    n = 8U + ((*SCnSCB_ICTR & 0x7U) << 3); /* (# NVIC_PRIO registers)/4 */
 8000f06:	4b08      	ldr	r3, [pc, #32]	; (8000f28 <QV_init+0x48>)
 8000f08:	681a      	ldr	r2, [r3, #0]
 8000f0a:	f503 6383 	add.w	r3, r3, #1048	; 0x418
 8000f0e:	0152      	lsls	r2, r2, #5
 8000f10:	f002 02e0 	and.w	r2, r2, #224	; 0xe0
 8000f14:	4413      	add	r3, r2
                     | (QF_BASEPRI << 8) | QF_BASEPRI;
    } while (n != 0);
 8000f16:	4a05      	ldr	r2, [pc, #20]	; (8000f2c <QV_init+0x4c>)
        NVIC_IP[n] = (QF_BASEPRI << 24) | (QF_BASEPRI << 16)
 8000f18:	f843 1904 	str.w	r1, [r3], #-4
    } while (n != 0);
 8000f1c:	4293      	cmp	r3, r2
 8000f1e:	d1fb      	bne.n	8000f18 <QV_init+0x38>
}
 8000f20:	4770      	bx	lr
 8000f22:	bf00      	nop
 8000f24:	e000ed18 	.word	0xe000ed18
 8000f28:	e000e004 	.word	0xe000e004
 8000f2c:	e000e3fc 	.word	0xe000e3fc

08000f30 <QHsm_top>:
*/
QState QHsm_top(void const * const me, QEvt const * const e) {
    (void)me; /* suppress the "unused parameter" compiler warning */
    (void)e;  /* suppress the "unused parameter" compiler warning */
    return (QState)Q_RET_IGNORED; /* the top state ignores all events */
}
 8000f30:	2004      	movs	r0, #4
 8000f32:	4770      	bx	lr

08000f34 <QHsm_init_>:
void QHsm_init_(QHsm * const me, QEvt const * const e) {
 8000f34:	e92d 47f0 	stmdb	sp!, {r4, r5, r6, r7, r8, r9, sl, lr}
 8000f38:	4604      	mov	r4, r0
    Q_REQUIRE_ID(200, (me->vptr != (QMsmVtbl const *)0)
 8000f3a:	e890 0048 	ldmia.w	r0, {r3, r6}
void QHsm_init_(QHsm * const me, QEvt const * const e) {
 8000f3e:	b086      	sub	sp, #24
 8000f40:	460d      	mov	r5, r1
    Q_REQUIRE_ID(200, (me->vptr != (QMsmVtbl const *)0)
 8000f42:	b123      	cbz	r3, 8000f4e <QHsm_init_+0x1a>
 8000f44:	6883      	ldr	r3, [r0, #8]
 8000f46:	b113      	cbz	r3, 8000f4e <QHsm_init_+0x1a>
 8000f48:	4b21      	ldr	r3, [pc, #132]	; (8000fd0 <QHsm_init_+0x9c>)
 8000f4a:	429e      	cmp	r6, r3
 8000f4c:	d003      	beq.n	8000f56 <QHsm_init_+0x22>
 8000f4e:	21c8      	movs	r1, #200	; 0xc8
 8000f50:	4820      	ldr	r0, [pc, #128]	; (8000fd4 <QHsm_init_+0xa0>)
 8000f52:	f7ff fe20 	bl	8000b96 <Q_onAssert>
    r = (*me->temp.fun)(me, e); /* execute the top-most initial transition */
 8000f56:	68a3      	ldr	r3, [r4, #8]
 8000f58:	4629      	mov	r1, r5
 8000f5a:	4620      	mov	r0, r4
 8000f5c:	4798      	blx	r3
    Q_ASSERT_ID(210, r == (QState)Q_RET_TRAN);
 8000f5e:	2808      	cmp	r0, #8
 8000f60:	d003      	beq.n	8000f6a <QHsm_init_+0x36>
 8000f62:	21d2      	movs	r1, #210	; 0xd2
 8000f64:	481b      	ldr	r0, [pc, #108]	; (8000fd4 <QHsm_init_+0xa0>)
 8000f66:	f7ff fe16 	bl	8000b96 <Q_onAssert>
        (void)QEP_TRIG_(me->temp.fun, QEP_EMPTY_SIG_);
 8000f6a:	f8df 8070 	ldr.w	r8, [pc, #112]	; 8000fdc <QHsm_init_+0xa8>
            Q_ASSERT_ID(220, ip < (int_fast8_t)Q_DIM(path));
 8000f6e:	f8df a064 	ldr.w	sl, [pc, #100]	; 8000fd4 <QHsm_init_+0xa0>
            QEP_ENTER_(path[ip]); /* enter path[ip] */
 8000f72:	f108 0904 	add.w	r9, r8, #4
        path[0] = me->temp.fun;
 8000f76:	68a3      	ldr	r3, [r4, #8]
 8000f78:	af06      	add	r7, sp, #24
        (void)QEP_TRIG_(me->temp.fun, QEP_EMPTY_SIG_);
 8000f7a:	4641      	mov	r1, r8
 8000f7c:	4620      	mov	r0, r4
        path[0] = me->temp.fun;
 8000f7e:	f847 3d18 	str.w	r3, [r7, #-24]!
        int_fast8_t ip = (int_fast8_t)0;          /* tran entry path index */
 8000f82:	2500      	movs	r5, #0
        (void)QEP_TRIG_(me->temp.fun, QEP_EMPTY_SIG_);
 8000f84:	4798      	blx	r3
        while (me->temp.fun != t) {
 8000f86:	68a3      	ldr	r3, [r4, #8]
 8000f88:	429e      	cmp	r6, r3
 8000f8a:	d113      	bne.n	8000fb4 <QHsm_init_+0x80>
        me->temp.fun = path[0];
 8000f8c:	9e00      	ldr	r6, [sp, #0]
 8000f8e:	60a6      	str	r6, [r4, #8]
            QEP_ENTER_(path[ip]); /* enter path[ip] */
 8000f90:	f857 3025 	ldr.w	r3, [r7, r5, lsl #2]
 8000f94:	4649      	mov	r1, r9
 8000f96:	4620      	mov	r0, r4
 8000f98:	4798      	blx	r3
        } while (ip >= (int_fast8_t)0);
 8000f9a:	f115 35ff 	adds.w	r5, r5, #4294967295	; 0xffffffff
 8000f9e:	d2f7      	bcs.n	8000f90 <QHsm_init_+0x5c>
        r = QEP_TRIG_(t, Q_INIT_SIG); /* execute initial transition */
 8000fa0:	490d      	ldr	r1, [pc, #52]	; (8000fd8 <QHsm_init_+0xa4>)
 8000fa2:	4620      	mov	r0, r4
 8000fa4:	47b0      	blx	r6
    } while (r == (QState)Q_RET_TRAN);
 8000fa6:	2808      	cmp	r0, #8
 8000fa8:	d0e5      	beq.n	8000f76 <QHsm_init_+0x42>
    me->state.fun = t; /* change the current active state */
 8000faa:	6066      	str	r6, [r4, #4]
    me->temp.fun  = t; /* mark the configuration as stable */
 8000fac:	60a6      	str	r6, [r4, #8]
}
 8000fae:	b006      	add	sp, #24
 8000fb0:	e8bd 87f0 	ldmia.w	sp!, {r4, r5, r6, r7, r8, r9, sl, pc}
            ++ip;
 8000fb4:	3501      	adds	r5, #1
            Q_ASSERT_ID(220, ip < (int_fast8_t)Q_DIM(path));
 8000fb6:	2d06      	cmp	r5, #6
 8000fb8:	d103      	bne.n	8000fc2 <QHsm_init_+0x8e>
 8000fba:	21dc      	movs	r1, #220	; 0xdc
 8000fbc:	4650      	mov	r0, sl
 8000fbe:	f7ff fdea 	bl	8000b96 <Q_onAssert>
            path[ip] = me->temp.fun;
 8000fc2:	68a3      	ldr	r3, [r4, #8]
            (void)QEP_TRIG_(me->temp.fun, QEP_EMPTY_SIG_);
 8000fc4:	4641      	mov	r1, r8
 8000fc6:	4620      	mov	r0, r4
            path[ip] = me->temp.fun;
 8000fc8:	f847 3025 	str.w	r3, [r7, r5, lsl #2]
            (void)QEP_TRIG_(me->temp.fun, QEP_EMPTY_SIG_);
 8000fcc:	4798      	blx	r3
 8000fce:	e7da      	b.n	8000f86 <QHsm_init_+0x52>
 8000fd0:	08000f31 	.word	0x08000f31
 8000fd4:	08002280 	.word	0x08002280
 8000fd8:	0800227c 	.word	0x0800227c
 8000fdc:	08002270 	.word	0x08002270

08000fe0 <QHsm_dispatch_>:
*
* @note
* This function should be called only via the virtual table (see
* QHSM_DISPATCH()) and should NOT be called directly in the applications.
*/
void QHsm_dispatch_(QHsm * const me, QEvt const * const e) {
 8000fe0:	e92d 47f0 	stmdb	sp!, {r4, r5, r6, r7, r8, r9, sl, lr}
    QStateHandler t = me->state.fun;
 8000fe4:	6845      	ldr	r5, [r0, #4]
void QHsm_dispatch_(QHsm * const me, QEvt const * const e) {
 8000fe6:	b086      	sub	sp, #24
 8000fe8:	4604      	mov	r4, r0
 8000fea:	460f      	mov	r7, r1
    QS_CRIT_STAT_

    /** @pre the current state must be initialized and
    * the state configuration must be stable
    */
    Q_REQUIRE_ID(400, (t != Q_STATE_CAST(0))
 8000fec:	b115      	cbz	r5, 8000ff4 <QHsm_dispatch_+0x14>
 8000fee:	6883      	ldr	r3, [r0, #8]
 8000ff0:	429d      	cmp	r5, r3
 8000ff2:	d004      	beq.n	8000ffe <QHsm_dispatch_+0x1e>
 8000ff4:	f44f 71c8 	mov.w	r1, #400	; 0x190
 8000ff8:	4862      	ldr	r0, [pc, #392]	; (8001184 <QHsm_dispatch_+0x1a4>)
 8000ffa:	f7ff fdcc 	bl	8000b96 <Q_onAssert>
                QS_SIG_(e->sig); /* the signal of the event */
                QS_OBJ_(me);     /* this state machine object */
                QS_FUN_(s);      /* the current state */
            QS_END_()

            r = QEP_TRIG_(s, QEP_EMPTY_SIG_); /* find superstate of s */
 8000ffe:	f8df 8190 	ldr.w	r8, [pc, #400]	; 8001190 <QHsm_dispatch_+0x1b0>
        s = me->temp.fun;
 8001002:	68a6      	ldr	r6, [r4, #8]
        r = (*s)(me, e); /* invoke state handler s */
 8001004:	4639      	mov	r1, r7
 8001006:	4620      	mov	r0, r4
 8001008:	47b0      	blx	r6
        if (r == (QState)Q_RET_UNHANDLED) { /* unhandled due to a guard? */
 800100a:	2802      	cmp	r0, #2
 800100c:	d102      	bne.n	8001014 <QHsm_dispatch_+0x34>
            r = QEP_TRIG_(s, QEP_EMPTY_SIG_); /* find superstate of s */
 800100e:	4641      	mov	r1, r8
 8001010:	4620      	mov	r0, r4
 8001012:	47b0      	blx	r6
        }
    } while (r == (QState)Q_RET_SUPER);
 8001014:	2800      	cmp	r0, #0
 8001016:	d0f4      	beq.n	8001002 <QHsm_dispatch_+0x22>

    /* transition taken? */
    if (r >= (QState)Q_RET_TRAN) {
 8001018:	2807      	cmp	r0, #7
 800101a:	d942      	bls.n	80010a2 <QHsm_dispatch_+0xc2>
        QStateHandler path[QHSM_MAX_NEST_DEPTH_];
        int_fast8_t ip;

        path[0] = me->temp.fun; /* save the target of the transition */
 800101c:	f8d4 8008 	ldr.w	r8, [r4, #8]
        path[1] = t;
        path[2] = s;

        /* exit current state to transition source s... */
        for (; t != s; t = me->temp.fun) {
            if (QEP_TRIG_(t, Q_EXIT_SIG) == (QState)Q_RET_HANDLED) {
 8001020:	4f59      	ldr	r7, [pc, #356]	; (8001188 <QHsm_dispatch_+0x1a8>)
        path[0] = me->temp.fun; /* save the target of the transition */
 8001022:	f8cd 8000 	str.w	r8, [sp]
        path[1] = t;
 8001026:	9501      	str	r5, [sp, #4]
        path[2] = s;
 8001028:	9602      	str	r6, [sp, #8]
                QS_BEGIN_(QS_QEP_STATE_EXIT, QS_priv_.locFilter[SM_OBJ], me)
                    QS_OBJ_(me);  /* this state machine object */
                    QS_FUN_(t);   /* the exited state */
                QS_END_()

                (void)QEP_TRIG_(t, QEP_EMPTY_SIG_); /* find superstate of t */
 800102a:	f1a7 0908 	sub.w	r9, r7, #8
        for (; t != s; t = me->temp.fun) {
 800102e:	42b5      	cmp	r5, r6
 8001030:	d10f      	bne.n	8001052 <QHsm_dispatch_+0x72>
    QStateHandler s = path[2];
    QState r;
    QS_CRIT_STAT_

    /* (a) check source==target (transition to self)... */
    if (s == t) {
 8001032:	4545      	cmp	r5, r8
 8001034:	d117      	bne.n	8001066 <QHsm_dispatch_+0x86>
        QEP_EXIT_(s);        /* exit the source */
 8001036:	4954      	ldr	r1, [pc, #336]	; (8001188 <QHsm_dispatch_+0x1a8>)
 8001038:	4620      	mov	r0, r4
 800103a:	47a8      	blx	r5

        t = me->temp.fun;

        /* (b) check source==target->super... */
        if (s == t) {
            ip = (int_fast8_t)0; /* enter the target */
 800103c:	2600      	movs	r6, #0
            QEP_ENTER_(path[ip]);  /* enter path[ip] */
 800103e:	4d53      	ldr	r5, [pc, #332]	; (800118c <QHsm_dispatch_+0x1ac>)
        for (; ip >= (int_fast8_t)0; --ip) {
 8001040:	1c73      	adds	r3, r6, #1
 8001042:	d021      	beq.n	8001088 <QHsm_dispatch_+0xa8>
            QEP_ENTER_(path[ip]);  /* enter path[ip] */
 8001044:	f85d 3026 	ldr.w	r3, [sp, r6, lsl #2]
 8001048:	4629      	mov	r1, r5
 800104a:	4620      	mov	r0, r4
 800104c:	4798      	blx	r3
        for (; ip >= (int_fast8_t)0; --ip) {
 800104e:	3e01      	subs	r6, #1
 8001050:	e7f6      	b.n	8001040 <QHsm_dispatch_+0x60>
            if (QEP_TRIG_(t, Q_EXIT_SIG) == (QState)Q_RET_HANDLED) {
 8001052:	4639      	mov	r1, r7
 8001054:	4620      	mov	r0, r4
 8001056:	47a8      	blx	r5
 8001058:	2803      	cmp	r0, #3
 800105a:	d102      	bne.n	8001062 <QHsm_dispatch_+0x82>
                (void)QEP_TRIG_(t, QEP_EMPTY_SIG_); /* find superstate of t */
 800105c:	4649      	mov	r1, r9
 800105e:	4620      	mov	r0, r4
 8001060:	47a8      	blx	r5
        for (; t != s; t = me->temp.fun) {
 8001062:	68a5      	ldr	r5, [r4, #8]
 8001064:	e7e3      	b.n	800102e <QHsm_dispatch_+0x4e>
        (void)QEP_TRIG_(t, QEP_EMPTY_SIG_); /* find superstate of target */
 8001066:	494a      	ldr	r1, [pc, #296]	; (8001190 <QHsm_dispatch_+0x1b0>)
 8001068:	4620      	mov	r0, r4
 800106a:	47c0      	blx	r8
        t = me->temp.fun;
 800106c:	68a6      	ldr	r6, [r4, #8]
        if (s == t) {
 800106e:	42b5      	cmp	r5, r6
 8001070:	d0e4      	beq.n	800103c <QHsm_dispatch_+0x5c>
        }
        else {
            (void)QEP_TRIG_(s, QEP_EMPTY_SIG_); /* find superstate of src */
 8001072:	4947      	ldr	r1, [pc, #284]	; (8001190 <QHsm_dispatch_+0x1b0>)
 8001074:	4620      	mov	r0, r4
 8001076:	47a8      	blx	r5

            /* (c) check source->super==target->super... */
            if (me->temp.fun == t) {
 8001078:	68a7      	ldr	r7, [r4, #8]
 800107a:	42be      	cmp	r6, r7
 800107c:	d0db      	beq.n	8001036 <QHsm_dispatch_+0x56>
                QEP_EXIT_(s);        /* exit the source */
                ip = (int_fast8_t)0; /* enter the target */
            }
            else {
                /* (d) check source->super==target... */
                if (me->temp.fun == path[0]) {
 800107e:	45b8      	cmp	r8, r7
 8001080:	d114      	bne.n	80010ac <QHsm_dispatch_+0xcc>
                    QEP_EXIT_(s); /* exit the source */
 8001082:	4941      	ldr	r1, [pc, #260]	; (8001188 <QHsm_dispatch_+0x1a8>)
 8001084:	4620      	mov	r0, r4
 8001086:	47a8      	blx	r5
        while (QEP_TRIG_(t, Q_INIT_SIG) == (QState)Q_RET_TRAN) {
 8001088:	f8df 9108 	ldr.w	r9, [pc, #264]	; 8001194 <QHsm_dispatch_+0x1b4>
        t = path[0]; /* stick the target into register */
 800108c:	9d00      	ldr	r5, [sp, #0]
            (void)QEP_TRIG_(me->temp.fun, QEP_EMPTY_SIG_);/*find superstate */
 800108e:	f1a9 080c 	sub.w	r8, r9, #12
        me->temp.fun = t; /* update the next state */
 8001092:	60a5      	str	r5, [r4, #8]
                QEP_ENTER_(path[ip]); /* enter path[ip] */
 8001094:	f108 0a04 	add.w	sl, r8, #4
        while (QEP_TRIG_(t, Q_INIT_SIG) == (QState)Q_RET_TRAN) {
 8001098:	4649      	mov	r1, r9
 800109a:	4620      	mov	r0, r4
 800109c:	47a8      	blx	r5
 800109e:	2808      	cmp	r0, #8
 80010a0:	d052      	beq.n	8001148 <QHsm_dispatch_+0x168>
    me->state.fun = t; /* change the current active state */
 80010a2:	6065      	str	r5, [r4, #4]
    me->temp.fun  = t; /* mark the configuration as stable */
 80010a4:	60a5      	str	r5, [r4, #8]
}
 80010a6:	b006      	add	sp, #24
 80010a8:	e8bd 87f0 	ldmia.w	sp!, {r4, r5, r6, r7, r8, r9, sl, pc}
                    /* (e) check rest of source==target->super->super..
                    * and store the entry path along the way
                    */
                    iq = (int_fast8_t)0; /* indicate that LCA not found */
                    ip = (int_fast8_t)1; /* enter target and its superstate */
                    path[1] = t;         /* save the superstate of target */
 80010ac:	9601      	str	r6, [sp, #4]
                    t = me->temp.fun;    /* save source->super */

                    /* find target->super->super... */
                    r = QEP_TRIG_(path[1], QEP_EMPTY_SIG_);
 80010ae:	4938      	ldr	r1, [pc, #224]	; (8001190 <QHsm_dispatch_+0x1b0>)
 80010b0:	4620      	mov	r0, r4
 80010b2:	47b0      	blx	r6
                    iq = (int_fast8_t)0; /* indicate that LCA not found */
 80010b4:	f04f 0900 	mov.w	r9, #0
                    ip = (int_fast8_t)1; /* enter target and its superstate */
 80010b8:	2601      	movs	r6, #1
                            --ip; /* do not enter the source */
                            r = (QState)Q_RET_HANDLED; /* terminate loop */
                        }
                         /* it is not the source, keep going up */
                        else {
                            r = QEP_TRIG_(me->temp.fun, QEP_EMPTY_SIG_);
 80010ba:	f8df a0d4 	ldr.w	sl, [pc, #212]	; 8001190 <QHsm_dispatch_+0x1b0>
                    while (r == (QState)Q_RET_SUPER) {
 80010be:	b1a0      	cbz	r0, 80010ea <QHsm_dispatch_+0x10a>
                        }
                    }

                    /* the LCA not found yet? */
                    if (iq == (int_fast8_t)0) {
 80010c0:	f1b9 0f00 	cmp.w	r9, #0
 80010c4:	d1bb      	bne.n	800103e <QHsm_dispatch_+0x5e>

                        /* entry path must not overflow */
                        Q_ASSERT_ID(520,
 80010c6:	2e05      	cmp	r6, #5
 80010c8:	dd04      	ble.n	80010d4 <QHsm_dispatch_+0xf4>
 80010ca:	f44f 7102 	mov.w	r1, #520	; 0x208
 80010ce:	482d      	ldr	r0, [pc, #180]	; (8001184 <QHsm_dispatch_+0x1a4>)
 80010d0:	f7ff fd61 	bl	8000b96 <Q_onAssert>
                            ip < (int_fast8_t)QHSM_MAX_NEST_DEPTH_);

                        QEP_EXIT_(s); /* exit the source */
 80010d4:	492c      	ldr	r1, [pc, #176]	; (8001188 <QHsm_dispatch_+0x1a8>)
 80010d6:	4620      	mov	r0, r4
 80010d8:	47a8      	blx	r5
 80010da:	4633      	mov	r3, r6
                        *                  == target->super->super...
                        */
                        iq = ip;
                        r = (QState)Q_RET_IGNORED; /* LCA NOT found */
                        do {
                            if (t == path[iq]) { /* is this the LCA? */
 80010dc:	f85d 2023 	ldr.w	r2, [sp, r3, lsl #2]
 80010e0:	3b01      	subs	r3, #1
 80010e2:	4297      	cmp	r7, r2
 80010e4:	d119      	bne.n	800111a <QHsm_dispatch_+0x13a>
                                iq = ip;
                                do {
                                    /* is this LCA? */
                                    if (t == path[iq]) {
                                        /* do not enter LCA */
                                        ip = (int_fast8_t)(iq-(int_fast8_t)1);
 80010e6:	461e      	mov	r6, r3
 80010e8:	e7a9      	b.n	800103e <QHsm_dispatch_+0x5e>
                        path[ip] = me->temp.fun; /* store the entry path */
 80010ea:	68a3      	ldr	r3, [r4, #8]
                        ++ip;
 80010ec:	f106 0801 	add.w	r8, r6, #1
                        path[ip] = me->temp.fun; /* store the entry path */
 80010f0:	aa06      	add	r2, sp, #24
 80010f2:	eb02 0288 	add.w	r2, r2, r8, lsl #2
                        if (me->temp.fun == s) { /* is it the source? */
 80010f6:	429d      	cmp	r5, r3
                        path[ip] = me->temp.fun; /* store the entry path */
 80010f8:	f842 3c18 	str.w	r3, [r2, #-24]
                        if (me->temp.fun == s) { /* is it the source? */
 80010fc:	d108      	bne.n	8001110 <QHsm_dispatch_+0x130>
                            Q_ASSERT_ID(510,
 80010fe:	f1b8 0f05 	cmp.w	r8, #5
 8001102:	dd9c      	ble.n	800103e <QHsm_dispatch_+0x5e>
 8001104:	f44f 71ff 	mov.w	r1, #510	; 0x1fe
 8001108:	481e      	ldr	r0, [pc, #120]	; (8001184 <QHsm_dispatch_+0x1a4>)
 800110a:	f7ff fd44 	bl	8000b96 <Q_onAssert>
 800110e:	e796      	b.n	800103e <QHsm_dispatch_+0x5e>
                            r = QEP_TRIG_(me->temp.fun, QEP_EMPTY_SIG_);
 8001110:	4651      	mov	r1, sl
 8001112:	4620      	mov	r0, r4
 8001114:	4798      	blx	r3
                        ++ip;
 8001116:	4646      	mov	r6, r8
 8001118:	e7d1      	b.n	80010be <QHsm_dispatch_+0xde>
                        } while (iq >= (int_fast8_t)0);
 800111a:	1c59      	adds	r1, r3, #1
 800111c:	d1de      	bne.n	80010dc <QHsm_dispatch_+0xfc>
                                if (QEP_TRIG_(t, Q_EXIT_SIG)
 800111e:	4d1a      	ldr	r5, [pc, #104]	; (8001188 <QHsm_dispatch_+0x1a8>)
                                    (void)QEP_TRIG_(t, QEP_EMPTY_SIG_);
 8001120:	f1a5 0808 	sub.w	r8, r5, #8
                                if (QEP_TRIG_(t, Q_EXIT_SIG)
 8001124:	4629      	mov	r1, r5
 8001126:	4620      	mov	r0, r4
 8001128:	47b8      	blx	r7
 800112a:	2803      	cmp	r0, #3
 800112c:	d102      	bne.n	8001134 <QHsm_dispatch_+0x154>
                                    (void)QEP_TRIG_(t, QEP_EMPTY_SIG_);
 800112e:	4641      	mov	r1, r8
 8001130:	4620      	mov	r0, r4
 8001132:	47b8      	blx	r7
                                t = me->temp.fun; /* set to super of t */
 8001134:	4633      	mov	r3, r6
 8001136:	68a7      	ldr	r7, [r4, #8]
                                    if (t == path[iq]) {
 8001138:	f85d 2023 	ldr.w	r2, [sp, r3, lsl #2]
 800113c:	3b01      	subs	r3, #1
 800113e:	4297      	cmp	r7, r2
 8001140:	d0d1      	beq.n	80010e6 <QHsm_dispatch_+0x106>
                                        r = (QState)Q_RET_HANDLED; /* break */
                                    }
                                    else {
                                        --iq;
                                    }
                                } while (iq >= (int_fast8_t)0);
 8001142:	1c5a      	adds	r2, r3, #1
 8001144:	d1f8      	bne.n	8001138 <QHsm_dispatch_+0x158>
 8001146:	e7ed      	b.n	8001124 <QHsm_dispatch_+0x144>
            path[0] = me->temp.fun;
 8001148:	68a3      	ldr	r3, [r4, #8]
 800114a:	af06      	add	r7, sp, #24
            (void)QEP_TRIG_(me->temp.fun, QEP_EMPTY_SIG_);/*find superstate */
 800114c:	4641      	mov	r1, r8
 800114e:	4620      	mov	r0, r4
            path[0] = me->temp.fun;
 8001150:	f847 3d18 	str.w	r3, [r7, #-24]!
            ip = (int_fast8_t)0;
 8001154:	2600      	movs	r6, #0
            (void)QEP_TRIG_(me->temp.fun, QEP_EMPTY_SIG_);/*find superstate */
 8001156:	4798      	blx	r3
            while (me->temp.fun != t) {
 8001158:	68a3      	ldr	r3, [r4, #8]
 800115a:	429d      	cmp	r5, r3
 800115c:	d10a      	bne.n	8001174 <QHsm_dispatch_+0x194>
            me->temp.fun = path[0];
 800115e:	9d00      	ldr	r5, [sp, #0]
 8001160:	60a5      	str	r5, [r4, #8]
                QEP_ENTER_(path[ip]); /* enter path[ip] */
 8001162:	f857 3026 	ldr.w	r3, [r7, r6, lsl #2]
 8001166:	4651      	mov	r1, sl
 8001168:	4620      	mov	r0, r4
 800116a:	4798      	blx	r3
            } while (ip >= (int_fast8_t)0);
 800116c:	f116 36ff 	adds.w	r6, r6, #4294967295	; 0xffffffff
 8001170:	d2f7      	bcs.n	8001162 <QHsm_dispatch_+0x182>
 8001172:	e791      	b.n	8001098 <QHsm_dispatch_+0xb8>
                ++ip;
 8001174:	3601      	adds	r6, #1
                (void)QEP_TRIG_(me->temp.fun, QEP_EMPTY_SIG_);/* find super */
 8001176:	4641      	mov	r1, r8
 8001178:	4620      	mov	r0, r4
                path[ip] = me->temp.fun;
 800117a:	f847 3026 	str.w	r3, [r7, r6, lsl #2]
                (void)QEP_TRIG_(me->temp.fun, QEP_EMPTY_SIG_);/* find super */
 800117e:	4798      	blx	r3
 8001180:	e7ea      	b.n	8001158 <QHsm_dispatch_+0x178>
 8001182:	bf00      	nop
 8001184:	08002280 	.word	0x08002280
 8001188:	08002278 	.word	0x08002278
 800118c:	08002274 	.word	0x08002274
 8001190:	08002270 	.word	0x08002270
 8001194:	0800227c 	.word	0x0800227c

08001198 <QHsm_ctor>:
    me->vptr      = &vtbl;
 8001198:	4b02      	ldr	r3, [pc, #8]	; (80011a4 <QHsm_ctor+0xc>)
    me->temp.fun  = initial;
 800119a:	6081      	str	r1, [r0, #8]
    me->vptr      = &vtbl;
 800119c:	6003      	str	r3, [r0, #0]
    me->state.fun = Q_STATE_CAST(&QHsm_top);
 800119e:	4b02      	ldr	r3, [pc, #8]	; (80011a8 <QHsm_ctor+0x10>)
 80011a0:	6043      	str	r3, [r0, #4]
    me->temp.fun  = initial;
 80011a2:	4770      	bx	lr
 80011a4:	08002288 	.word	0x08002288
 80011a8:	08000f31 	.word	0x08000f31

080011ac <QF_add_>:
* @note The priority of the active object @p a should be set before calling
* this function.
*
* @sa QF_remove_()
*/
void QF_add_(QActive * const a) {
 80011ac:	b570      	push	{r4, r5, r6, lr}
    uint_fast8_t p = (uint_fast8_t)a->prio;
 80011ae:	7f04      	ldrb	r4, [r0, #28]
void QF_add_(QActive * const a) {
 80011b0:	4606      	mov	r6, r0
    /** @pre the priority of the active object must not be zero and cannot
    * exceed the maximum #QF_MAX_ACTIVE. Also, the priority of the active
    * object must not be already in use. QF requires each active object to
    * have a __unique__ priority.
    */
    Q_REQUIRE_ID(100, ((uint_fast8_t)0 < p)
 80011b2:	1e63      	subs	r3, r4, #1
 80011b4:	2b1f      	cmp	r3, #31
 80011b6:	4d0a      	ldr	r5, [pc, #40]	; (80011e0 <QF_add_+0x34>)
 80011b8:	d802      	bhi.n	80011c0 <QF_add_+0x14>
 80011ba:	f855 3024 	ldr.w	r3, [r5, r4, lsl #2]
 80011be:	b11b      	cbz	r3, 80011c8 <QF_add_+0x1c>
 80011c0:	2164      	movs	r1, #100	; 0x64
 80011c2:	4808      	ldr	r0, [pc, #32]	; (80011e4 <QF_add_+0x38>)
 80011c4:	f7ff fce7 	bl	8000b96 <Q_onAssert>
                       && (p <= (uint_fast8_t)QF_MAX_ACTIVE)
                       && (QF_active_[p] == (QActive *)0));

    QF_CRIT_ENTRY_();
 80011c8:	233f      	movs	r3, #63	; 0x3f
 80011ca:	b672      	cpsid	i
 80011cc:	f383 8811 	msr	BASEPRI, r3
 80011d0:	b662      	cpsie	i
    QF_active_[p] = a; /* register the active object at this priority */
    QF_CRIT_EXIT_();
 80011d2:	2300      	movs	r3, #0
    QF_active_[p] = a; /* register the active object at this priority */
 80011d4:	f845 6024 	str.w	r6, [r5, r4, lsl #2]
    QF_CRIT_EXIT_();
 80011d8:	f383 8811 	msr	BASEPRI, r3
 80011dc:	bd70      	pop	{r4, r5, r6, pc}
 80011de:	bf00      	nop
 80011e0:	20000158 	.word	0x20000158
 80011e4:	08002290 	.word	0x08002290

080011e8 <QF_bzero>:
* required by the ANSI C standard.
*/
void QF_bzero(void * const start, uint_fast16_t len) {
    uint8_t *ptr = (uint8_t *)start;
    while (len != (uint_fast16_t)0) {
        *ptr = (uint8_t)0;
 80011e8:	2300      	movs	r3, #0
 80011ea:	4401      	add	r1, r0
    while (len != (uint_fast16_t)0) {
 80011ec:	4288      	cmp	r0, r1
 80011ee:	d100      	bne.n	80011f2 <QF_bzero+0xa>
        QF_PTR_INC_(ptr);
        --len;
    }
}
 80011f0:	4770      	bx	lr
        *ptr = (uint8_t)0;
 80011f2:	f800 3b01 	strb.w	r3, [r0], #1
 80011f6:	e7f9      	b.n	80011ec <QF_bzero+0x4>

080011f8 <QActive_post_>:
                   uint_fast16_t const margin)
#else
bool QActive_post_(QActive * const me, QEvt const * const e,
                   uint_fast16_t const margin, void const * const sender)
#endif
{
 80011f8:	b5f8      	push	{r3, r4, r5, r6, r7, lr}
 80011fa:	4604      	mov	r4, r0
 80011fc:	4616      	mov	r6, r2
    bool status;
    QF_CRIT_STAT_
    QS_TEST_PROBE_DEF(&QActive_post_)

    /** @pre event pointer must be valid */
    Q_REQUIRE_ID(100, e != (QEvt const *)0);
 80011fe:	460f      	mov	r7, r1
 8001200:	b919      	cbnz	r1, 800120a <QActive_post_+0x12>
 8001202:	2164      	movs	r1, #100	; 0x64
 8001204:	4827      	ldr	r0, [pc, #156]	; (80012a4 <QActive_post_+0xac>)
 8001206:	f7ff fcc6 	bl	8000b96 <Q_onAssert>

    QF_CRIT_ENTRY_();
 800120a:	233f      	movs	r3, #63	; 0x3f
 800120c:	b672      	cpsid	i
 800120e:	f383 8811 	msr	BASEPRI, r3
 8001212:	b662      	cpsie	i
    /* test-probe#1 for faking queue overflow */
    QS_TEST_PROBE_ID(1,
        nFree = (QEQueueCtr)0;
    )

    if (margin == QF_NO_MARGIN) {
 8001214:	f64f 73ff 	movw	r3, #65535	; 0xffff
    nFree = me->eQueue.nFree; /* get volatile into the temporary */
 8001218:	7de5      	ldrb	r5, [r4, #23]
    if (margin == QF_NO_MARGIN) {
 800121a:	429e      	cmp	r6, r3
    nFree = me->eQueue.nFree; /* get volatile into the temporary */
 800121c:	b2ed      	uxtb	r5, r5
    if (margin == QF_NO_MARGIN) {
 800121e:	d125      	bne.n	800126c <QActive_post_+0x74>
        if (nFree > (QEQueueCtr)0) {
 8001220:	bb55      	cbnz	r5, 8001278 <QActive_post_+0x80>
            status = true; /* can post */
        }
        else {
            status = false; /* cannot post */
            Q_ERROR_CRIT_(110); /* must be able to post the event */
 8001222:	f385 8811 	msr	BASEPRI, r5
 8001226:	216e      	movs	r1, #110	; 0x6e
 8001228:	481e      	ldr	r0, [pc, #120]	; (80012a4 <QActive_post_+0xac>)
 800122a:	f7ff fcb4 	bl	8000b96 <Q_onAssert>
            status = false; /* cannot post */
 800122e:	462e      	mov	r6, r5
    else {
        status = false; /* cannot post, but don't assert */
    }

    /* is it a dynamic event? */
    if (e->poolId_ != (uint8_t)0) {
 8001230:	78bb      	ldrb	r3, [r7, #2]
 8001232:	b11b      	cbz	r3, 800123c <QActive_post_+0x44>
        QF_EVT_REF_CTR_INC_(e); /* increment the reference counter */
 8001234:	78fb      	ldrb	r3, [r7, #3]
 8001236:	3301      	adds	r3, #1
 8001238:	b2db      	uxtb	r3, r3
 800123a:	70fb      	strb	r3, [r7, #3]
    }

    if (status) { /* can post the event? */
 800123c:	b35e      	cbz	r6, 8001296 <QActive_post_+0x9e>

        --nFree; /* one free entry just used up */
 800123e:	3d01      	subs	r5, #1
 8001240:	b2ed      	uxtb	r5, r5
        me->eQueue.nFree = nFree; /* update the volatile */
        if (me->eQueue.nMin > nFree) {
 8001242:	7e23      	ldrb	r3, [r4, #24]
        me->eQueue.nFree = nFree; /* update the volatile */
 8001244:	75e5      	strb	r5, [r4, #23]
        if (me->eQueue.nMin > nFree) {
 8001246:	42ab      	cmp	r3, r5
            QS_onTestPost(sender, me, e, status);
        }
#endif

        /* empty queue? */
        if (me->eQueue.frontEvt == (QEvt const *)0) {
 8001248:	68e3      	ldr	r3, [r4, #12]
            me->eQueue.nMin = nFree; /* increase minimum so far */
 800124a:	bf88      	it	hi
 800124c:	7625      	strbhi	r5, [r4, #24]
        if (me->eQueue.frontEvt == (QEvt const *)0) {
 800124e:	b9ab      	cbnz	r3, 800127c <QActive_post_+0x84>
            me->eQueue.frontEvt = e;    /* deliver event directly */
            QACTIVE_EQUEUE_SIGNAL_(me); /* signal the event queue */
 8001250:	7f23      	ldrb	r3, [r4, #28]
 8001252:	4915      	ldr	r1, [pc, #84]	; (80012a8 <QActive_post_+0xb0>)
 8001254:	1e5a      	subs	r2, r3, #1
 8001256:	2301      	movs	r3, #1
            me->eQueue.frontEvt = e;    /* deliver event directly */
 8001258:	60e7      	str	r7, [r4, #12]
            QACTIVE_EQUEUE_SIGNAL_(me); /* signal the event queue */
 800125a:	6808      	ldr	r0, [r1, #0]
 800125c:	4093      	lsls	r3, r2
 800125e:	4303      	orrs	r3, r0
 8001260:	600b      	str	r3, [r1, #0]
                me->eQueue.head = me->eQueue.end;   /* wrap around */
            }
            --me->eQueue.head; /* advance the head (counter clockwise) */
        }

        QF_CRIT_EXIT_();
 8001262:	2300      	movs	r3, #0
 8001264:	f383 8811 	msr	BASEPRI, r3

        QF_gc(e); /* recycle the event to avoid a leak */
    }

    return status;
}
 8001268:	4630      	mov	r0, r6
 800126a:	bdf8      	pop	{r3, r4, r5, r6, r7, pc}
    else if (nFree > (QEQueueCtr)margin) {
 800126c:	b2f6      	uxtb	r6, r6
 800126e:	42b5      	cmp	r5, r6
 8001270:	bf94      	ite	ls
 8001272:	2600      	movls	r6, #0
 8001274:	2601      	movhi	r6, #1
 8001276:	e7db      	b.n	8001230 <QActive_post_+0x38>
            status = true; /* can post */
 8001278:	2601      	movs	r6, #1
 800127a:	e7d9      	b.n	8001230 <QActive_post_+0x38>
            QF_PTR_AT_(me->eQueue.ring, me->eQueue.head) = e;
 800127c:	7d62      	ldrb	r2, [r4, #21]
 800127e:	6923      	ldr	r3, [r4, #16]
 8001280:	f843 7022 	str.w	r7, [r3, r2, lsl #2]
            if (me->eQueue.head == (QEQueueCtr)0) { /* need to wrap head? */
 8001284:	7d63      	ldrb	r3, [r4, #21]
 8001286:	b90b      	cbnz	r3, 800128c <QActive_post_+0x94>
                me->eQueue.head = me->eQueue.end;   /* wrap around */
 8001288:	7d23      	ldrb	r3, [r4, #20]
 800128a:	7563      	strb	r3, [r4, #21]
            --me->eQueue.head; /* advance the head (counter clockwise) */
 800128c:	7d63      	ldrb	r3, [r4, #21]
 800128e:	3b01      	subs	r3, #1
 8001290:	b2db      	uxtb	r3, r3
 8001292:	7563      	strb	r3, [r4, #21]
 8001294:	e7e5      	b.n	8001262 <QActive_post_+0x6a>
        QF_CRIT_EXIT_();
 8001296:	f386 8811 	msr	BASEPRI, r6
        QF_gc(e); /* recycle the event to avoid a leak */
 800129a:	4638      	mov	r0, r7
 800129c:	f000 f8ac 	bl	80013f8 <QF_gc>
 80012a0:	e7e2      	b.n	8001268 <QActive_post_+0x70>
 80012a2:	bf00      	nop
 80012a4:	08002297 	.word	0x08002297
 80012a8:	20000244 	.word	0x20000244

080012ac <QActive_postLIFO_>:
* @attention
* This function should be called only via the macro QACTIVE_POST_LIFO().
*
* @sa QActive_post_(), QACTIVE_POST(), QACTIVE_POST_X()
*/
void QActive_postLIFO_(QActive * const me, QEvt const * const e) {
 80012ac:	b570      	push	{r4, r5, r6, lr}
    QEvt const *frontEvt;  /* temporary to avoid UB for volatile access */
    QEQueueCtr nFree;      /* temporary to avoid UB for volatile access */
    QF_CRIT_STAT_
    QS_TEST_PROBE_DEF(&QActive_postLIFO_)

    QF_CRIT_ENTRY_();
 80012ae:	233f      	movs	r3, #63	; 0x3f
void QActive_postLIFO_(QActive * const me, QEvt const * const e) {
 80012b0:	4604      	mov	r4, r0
 80012b2:	460e      	mov	r6, r1
    QF_CRIT_ENTRY_();
 80012b4:	b672      	cpsid	i
 80012b6:	f383 8811 	msr	BASEPRI, r3
 80012ba:	b662      	cpsie	i
    nFree = me->eQueue.nFree; /* get volatile into the temporary */
 80012bc:	7dc3      	ldrb	r3, [r0, #23]
    QS_TEST_PROBE_ID(1,
        nFree = (QEQueueCtr)0;
    )

    /* the queue must be able to accept the event (cannot overflow) */
    Q_ASSERT_CRIT_(210, nFree != (QEQueueCtr)0);
 80012be:	f003 05ff 	and.w	r5, r3, #255	; 0xff
 80012c2:	b92b      	cbnz	r3, 80012d0 <QActive_postLIFO_+0x24>
 80012c4:	f385 8811 	msr	BASEPRI, r5
 80012c8:	21d2      	movs	r1, #210	; 0xd2
 80012ca:	4817      	ldr	r0, [pc, #92]	; (8001328 <QActive_postLIFO_+0x7c>)
 80012cc:	f7ff fc63 	bl	8000b96 <Q_onAssert>

    /* is it a dynamic event? */
    if (e->poolId_ != (uint8_t)0) {
 80012d0:	78b3      	ldrb	r3, [r6, #2]
 80012d2:	b11b      	cbz	r3, 80012dc <QActive_postLIFO_+0x30>
        QF_EVT_REF_CTR_INC_(e); /* increment the reference counter */
 80012d4:	78f3      	ldrb	r3, [r6, #3]
 80012d6:	3301      	adds	r3, #1
 80012d8:	b2db      	uxtb	r3, r3
 80012da:	70f3      	strb	r3, [r6, #3]
    }

    --nFree; /* one free entry just used up */
 80012dc:	1e6b      	subs	r3, r5, #1
 80012de:	b2db      	uxtb	r3, r3
    me->eQueue.nFree = nFree; /* update the volatile */
    if (me->eQueue.nMin > nFree) {
 80012e0:	7e22      	ldrb	r2, [r4, #24]
    me->eQueue.nFree = nFree; /* update the volatile */
 80012e2:	75e3      	strb	r3, [r4, #23]
    if (me->eQueue.nMin > nFree) {
 80012e4:	429a      	cmp	r2, r3
        {
            QS_onTestPost((QActive *)0, me, e, true);
        }
#endif

    frontEvt = me->eQueue.frontEvt; /* read volatile into the temporary */
 80012e6:	68e2      	ldr	r2, [r4, #12]
        me->eQueue.nMin = nFree; /* update minimum so far */
 80012e8:	bf88      	it	hi
 80012ea:	7623      	strbhi	r3, [r4, #24]
    me->eQueue.frontEvt = e; /* deliver the event directly to the front */
 80012ec:	60e6      	str	r6, [r4, #12]

    /* was the queue empty? */
    if (frontEvt == (QEvt const *)0) {
 80012ee:	b95a      	cbnz	r2, 8001308 <QActive_postLIFO_+0x5c>
        QACTIVE_EQUEUE_SIGNAL_(me); /* signal the event queue */
 80012f0:	7f23      	ldrb	r3, [r4, #28]
 80012f2:	490e      	ldr	r1, [pc, #56]	; (800132c <QActive_postLIFO_+0x80>)
 80012f4:	1e5a      	subs	r2, r3, #1
 80012f6:	2301      	movs	r3, #1
 80012f8:	6808      	ldr	r0, [r1, #0]
 80012fa:	4093      	lsls	r3, r2
 80012fc:	4303      	orrs	r3, r0
 80012fe:	600b      	str	r3, [r1, #0]
            me->eQueue.tail = (QEQueueCtr)0; /* wrap around */
        }

        QF_PTR_AT_(me->eQueue.ring, me->eQueue.tail) = frontEvt;
    }
    QF_CRIT_EXIT_();
 8001300:	2300      	movs	r3, #0
 8001302:	f383 8811 	msr	BASEPRI, r3
 8001306:	bd70      	pop	{r4, r5, r6, pc}
        ++me->eQueue.tail;
 8001308:	7da3      	ldrb	r3, [r4, #22]
        if (me->eQueue.tail == me->eQueue.end) {
 800130a:	7d21      	ldrb	r1, [r4, #20]
        ++me->eQueue.tail;
 800130c:	3301      	adds	r3, #1
 800130e:	b2db      	uxtb	r3, r3
 8001310:	75a3      	strb	r3, [r4, #22]
        if (me->eQueue.tail == me->eQueue.end) {
 8001312:	7da3      	ldrb	r3, [r4, #22]
 8001314:	4299      	cmp	r1, r3
            me->eQueue.tail = (QEQueueCtr)0; /* wrap around */
 8001316:	bf04      	itt	eq
 8001318:	2300      	moveq	r3, #0
 800131a:	75a3      	strbeq	r3, [r4, #22]
        QF_PTR_AT_(me->eQueue.ring, me->eQueue.tail) = frontEvt;
 800131c:	7da1      	ldrb	r1, [r4, #22]
 800131e:	6923      	ldr	r3, [r4, #16]
 8001320:	f843 2021 	str.w	r2, [r3, r1, lsl #2]
 8001324:	e7ec      	b.n	8001300 <QActive_postLIFO_+0x54>
 8001326:	bf00      	nop
 8001328:	08002297 	.word	0x08002297
 800132c:	20000244 	.word	0x20000244

08001330 <QActive_get_>:
* queue implementation and is sometimes customized in the QF port
* (file qf_port.h). Depending on the definition of the macro
* QACTIVE_EQUEUE_WAIT_(), the function might block the calling thread when
* no events are available.
*/
QEvt const *QActive_get_(QActive * const me) {
 8001330:	b538      	push	{r3, r4, r5, lr}
 8001332:	4604      	mov	r4, r0
    QEQueueCtr nFree;
    QEvt const *e;
    QF_CRIT_STAT_

    QF_CRIT_ENTRY_();
 8001334:	233f      	movs	r3, #63	; 0x3f
 8001336:	b672      	cpsid	i
 8001338:	f383 8811 	msr	BASEPRI, r3
 800133c:	b662      	cpsie	i
    QACTIVE_EQUEUE_WAIT_(me);  /* wait for event to arrive directly */
 800133e:	68c1      	ldr	r1, [r0, #12]
 8001340:	b911      	cbnz	r1, 8001348 <QActive_get_+0x18>
 8001342:	4814      	ldr	r0, [pc, #80]	; (8001394 <QActive_get_+0x64>)
 8001344:	f7ff fc27 	bl	8000b96 <Q_onAssert>

    e = me->eQueue.frontEvt; /* always remove event from the front location */
 8001348:	68e5      	ldr	r5, [r4, #12]
    nFree = me->eQueue.nFree + (QEQueueCtr)1; /* get volatile into tmp */
 800134a:	7de3      	ldrb	r3, [r4, #23]
    me->eQueue.nFree = nFree; /* update the number of free */

    /* any events in the ring buffer? */
    if (nFree <= me->eQueue.end) {
 800134c:	7d22      	ldrb	r2, [r4, #20]
    nFree = me->eQueue.nFree + (QEQueueCtr)1; /* get volatile into tmp */
 800134e:	3301      	adds	r3, #1
 8001350:	b2db      	uxtb	r3, r3
    if (nFree <= me->eQueue.end) {
 8001352:	4293      	cmp	r3, r2
    me->eQueue.nFree = nFree; /* update the number of free */
 8001354:	75e3      	strb	r3, [r4, #23]
    if (nFree <= me->eQueue.end) {
 8001356:	d810      	bhi.n	800137a <QActive_get_+0x4a>

        /* remove event from the tail */
        me->eQueue.frontEvt = QF_PTR_AT_(me->eQueue.ring, me->eQueue.tail);
 8001358:	7da1      	ldrb	r1, [r4, #22]
 800135a:	6923      	ldr	r3, [r4, #16]
 800135c:	f853 3021 	ldr.w	r3, [r3, r1, lsl #2]
 8001360:	60e3      	str	r3, [r4, #12]
        if (me->eQueue.tail == (QEQueueCtr)0) { /* need to wrap the tail? */
 8001362:	7da3      	ldrb	r3, [r4, #22]
 8001364:	b903      	cbnz	r3, 8001368 <QActive_get_+0x38>
            me->eQueue.tail = me->eQueue.end;   /* wrap around */
 8001366:	75a2      	strb	r2, [r4, #22]
        }
        --me->eQueue.tail;
 8001368:	7da3      	ldrb	r3, [r4, #22]
 800136a:	3b01      	subs	r3, #1
 800136c:	b2db      	uxtb	r3, r3
 800136e:	75a3      	strb	r3, [r4, #22]
            QS_SIG_(e->sig);              /* the signal of this event */
            QS_OBJ_(me);                  /* this active object */
            QS_2U8_(e->poolId_, e->refCtr_); /* pool Id & ref Count */
        QS_END_NOCRIT_()
    }
    QF_CRIT_EXIT_();
 8001370:	2300      	movs	r3, #0
 8001372:	f383 8811 	msr	BASEPRI, r3
    return e;
}
 8001376:	4628      	mov	r0, r5
 8001378:	bd38      	pop	{r3, r4, r5, pc}
        me->eQueue.frontEvt = (QEvt const *)0; /* queue becomes empty */
 800137a:	2100      	movs	r1, #0
        Q_ASSERT_CRIT_(310, nFree == (me->eQueue.end + (QEQueueCtr)1));
 800137c:	3201      	adds	r2, #1
 800137e:	4293      	cmp	r3, r2
        me->eQueue.frontEvt = (QEvt const *)0; /* queue becomes empty */
 8001380:	60e1      	str	r1, [r4, #12]
        Q_ASSERT_CRIT_(310, nFree == (me->eQueue.end + (QEQueueCtr)1));
 8001382:	d0f5      	beq.n	8001370 <QActive_get_+0x40>
 8001384:	f381 8811 	msr	BASEPRI, r1
 8001388:	f44f 719b 	mov.w	r1, #310	; 0x136
 800138c:	4801      	ldr	r0, [pc, #4]	; (8001394 <QActive_get_+0x64>)
 800138e:	f7ff fc02 	bl	8000b96 <Q_onAssert>
 8001392:	e7ed      	b.n	8001370 <QActive_get_+0x40>
 8001394:	08002297 	.word	0x08002297

08001398 <QF_poolInit>:
*
* @sa QF initialization example for QF_init()
*/
void QF_poolInit(void * const poolSto, uint_fast32_t const poolSize,
                 uint_fast16_t const evtSize)
{
 8001398:	e92d 41f0 	stmdb	sp!, {r4, r5, r6, r7, r8, lr}
    /** @pre cannot exceed the number of available memory pools */
    Q_REQUIRE_ID(200, QF_maxPool_ < (uint_fast8_t)Q_DIM(QF_pool_));
 800139c:	4c13      	ldr	r4, [pc, #76]	; (80013ec <QF_poolInit+0x54>)
{
 800139e:	4607      	mov	r7, r0
    Q_REQUIRE_ID(200, QF_maxPool_ < (uint_fast8_t)Q_DIM(QF_pool_));
 80013a0:	6823      	ldr	r3, [r4, #0]
{
 80013a2:	4688      	mov	r8, r1
    Q_REQUIRE_ID(200, QF_maxPool_ < (uint_fast8_t)Q_DIM(QF_pool_));
 80013a4:	2b02      	cmp	r3, #2
{
 80013a6:	4616      	mov	r6, r2
    Q_REQUIRE_ID(200, QF_maxPool_ < (uint_fast8_t)Q_DIM(QF_pool_));
 80013a8:	d903      	bls.n	80013b2 <QF_poolInit+0x1a>
 80013aa:	21c8      	movs	r1, #200	; 0xc8
 80013ac:	4810      	ldr	r0, [pc, #64]	; (80013f0 <QF_poolInit+0x58>)
 80013ae:	f7ff fbf2 	bl	8000b96 <Q_onAssert>
    /** @pre please initialize event pools in ascending order of evtSize: */
    Q_REQUIRE_ID(201, (QF_maxPool_ == (uint_fast8_t)0)
 80013b2:	6823      	ldr	r3, [r4, #0]
 80013b4:	4d0f      	ldr	r5, [pc, #60]	; (80013f4 <QF_poolInit+0x5c>)
 80013b6:	b153      	cbz	r3, 80013ce <QF_poolInit+0x36>
 80013b8:	2214      	movs	r2, #20
 80013ba:	3b01      	subs	r3, #1
 80013bc:	fb02 5303 	mla	r3, r2, r3, r5
 80013c0:	899b      	ldrh	r3, [r3, #12]
 80013c2:	42b3      	cmp	r3, r6
 80013c4:	d303      	bcc.n	80013ce <QF_poolInit+0x36>
 80013c6:	21c9      	movs	r1, #201	; 0xc9
 80013c8:	4809      	ldr	r0, [pc, #36]	; (80013f0 <QF_poolInit+0x58>)
 80013ca:	f7ff fbe4 	bl	8000b96 <Q_onAssert>
        || (QF_EPOOL_EVENT_SIZE_(QF_pool_[QF_maxPool_ - (uint_fast8_t)1])
            < evtSize));

    /* perform the platform-dependent initialization of the pool */
    QF_EPOOL_INIT_(QF_pool_[QF_maxPool_], poolSto, poolSize, evtSize);
 80013ce:	4633      	mov	r3, r6
 80013d0:	2614      	movs	r6, #20
 80013d2:	6820      	ldr	r0, [r4, #0]
 80013d4:	4642      	mov	r2, r8
 80013d6:	4639      	mov	r1, r7
 80013d8:	fb06 5000 	mla	r0, r6, r0, r5
 80013dc:	f000 f83e 	bl	800145c <QMPool_init>
    ++QF_maxPool_; /* one more pool */
 80013e0:	6823      	ldr	r3, [r4, #0]
 80013e2:	3301      	adds	r3, #1
 80013e4:	6023      	str	r3, [r4, #0]
 80013e6:	e8bd 81f0 	ldmia.w	sp!, {r4, r5, r6, r7, r8, pc}
 80013ea:	bf00      	nop
 80013ec:	20000218 	.word	0x20000218
 80013f0:	0800229f 	.word	0x0800229f
 80013f4:	200001dc 	.word	0x200001dc

080013f8 <QF_gc>:
* dynamic events to the "raw" thread-safe queues (see ::QEQueue). Such
* queues are processed outside of QF and the automatic garbage collection
* is **NOT** performed for these events. In this case you need to call
* QF_gc() explicitly.
*/
void QF_gc(QEvt const * const e) {
 80013f8:	b538      	push	{r3, r4, r5, lr}

    /* is it a dynamic event? */
    if (e->poolId_ != (uint8_t)0) {
 80013fa:	7884      	ldrb	r4, [r0, #2]
void QF_gc(QEvt const * const e) {
 80013fc:	4605      	mov	r5, r0
    if (e->poolId_ != (uint8_t)0) {
 80013fe:	b32c      	cbz	r4, 800144c <QF_gc+0x54>
        QF_CRIT_STAT_
        QF_CRIT_ENTRY_();
 8001400:	233f      	movs	r3, #63	; 0x3f
 8001402:	b672      	cpsid	i
 8001404:	f383 8811 	msr	BASEPRI, r3
 8001408:	b662      	cpsie	i

        /* isn't this the last reference? */
        if (e->refCtr_ > (uint8_t)1) {
 800140a:	78c3      	ldrb	r3, [r0, #3]
 800140c:	2b01      	cmp	r3, #1
 800140e:	d907      	bls.n	8001420 <QF_gc+0x28>
                QS_TIME_();         /* timestamp */
                QS_SIG_(e->sig);    /* the signal of the event */
                QS_2U8_(e->poolId_, e->refCtr_); /* pool Id & ref Count */
            QS_END_NOCRIT_()

            QF_EVT_REF_CTR_DEC_(e); /* decrement the ref counter */
 8001410:	78c3      	ldrb	r3, [r0, #3]
 8001412:	3b01      	subs	r3, #1
 8001414:	b2db      	uxtb	r3, r3
 8001416:	70c3      	strb	r3, [r0, #3]

            QF_CRIT_EXIT_();
 8001418:	2300      	movs	r3, #0
 800141a:	f383 8811 	msr	BASEPRI, r3
 800141e:	bd38      	pop	{r3, r4, r5, pc}
        }
        /* this is the last reference to this event, recycle it */
        else {
            uint_fast8_t idx = (uint_fast8_t)e->poolId_ - (uint_fast8_t)1;
 8001420:	3c01      	subs	r4, #1
                QS_TIME_();         /* timestamp */
                QS_SIG_(e->sig);    /* the signal of the event */
                QS_2U8_(e->poolId_, e->refCtr_); /* pool Id & ref Count */
            QS_END_NOCRIT_()

            QF_CRIT_EXIT_();
 8001422:	2300      	movs	r3, #0
 8001424:	f383 8811 	msr	BASEPRI, r3

            /* pool ID must be in range */
            Q_ASSERT_ID(410, idx < QF_maxPool_);
 8001428:	4b09      	ldr	r3, [pc, #36]	; (8001450 <QF_gc+0x58>)
 800142a:	681b      	ldr	r3, [r3, #0]
 800142c:	429c      	cmp	r4, r3
 800142e:	d304      	bcc.n	800143a <QF_gc+0x42>
 8001430:	f44f 71cd 	mov.w	r1, #410	; 0x19a
 8001434:	4807      	ldr	r0, [pc, #28]	; (8001454 <QF_gc+0x5c>)
 8001436:	f7ff fbae 	bl	8000b96 <Q_onAssert>

            /* casting const away is legitimate, because it's a pool event */
            QF_EPOOL_PUT_(QF_pool_[idx], (QEvt *)e);
 800143a:	2014      	movs	r0, #20
 800143c:	4b06      	ldr	r3, [pc, #24]	; (8001458 <QF_gc+0x60>)
 800143e:	4629      	mov	r1, r5
 8001440:	fb00 3004 	mla	r0, r0, r4, r3
        }
    }
}
 8001444:	e8bd 4038 	ldmia.w	sp!, {r3, r4, r5, lr}
            QF_EPOOL_PUT_(QF_pool_[idx], (QEvt *)e);
 8001448:	f000 b846 	b.w	80014d8 <QMPool_put>
 800144c:	bd38      	pop	{r3, r4, r5, pc}
 800144e:	bf00      	nop
 8001450:	20000218 	.word	0x20000218
 8001454:	0800229f 	.word	0x0800229f
 8001458:	200001dc 	.word	0x200001dc

0800145c <QMPool_init>:
* The following example illustrates how to invoke QMPool_init():
* @include qmp_init.c
*/
void QMPool_init(QMPool * const me, void * const poolSto,
                 uint_fast32_t poolSize, uint_fast16_t blockSize)
{
 800145c:	e92d 41f0 	stmdb	sp!, {r4, r5, r6, r7, r8, lr}
 8001460:	4604      	mov	r4, r0
 8001462:	4616      	mov	r6, r2
 8001464:	461d      	mov	r5, r3

    /** @pre The memory block must be valid
    * and the poolSize must fit at least one free block
    * and the blockSize must not be too close to the top of the dynamic range
    */
    Q_REQUIRE_ID(100, (poolSto != (void *)0)
 8001466:	4688      	mov	r8, r1
 8001468:	b121      	cbz	r1, 8001474 <QMPool_init+0x18>
 800146a:	2a03      	cmp	r2, #3
 800146c:	d902      	bls.n	8001474 <QMPool_init+0x18>
 800146e:	3304      	adds	r3, #4
 8001470:	429d      	cmp	r5, r3
 8001472:	d303      	bcc.n	800147c <QMPool_init+0x20>
 8001474:	2164      	movs	r1, #100	; 0x64
 8001476:	4817      	ldr	r0, [pc, #92]	; (80014d4 <QMPool_init+0x78>)
 8001478:	f7ff fb8d 	bl	8000b96 <Q_onAssert>
                   + (uint_fast16_t)sizeof(QFreeBlock)) > blockSize));

    me->free_head = poolSto;

    /* round up the blockSize to fit an integer # free blocks, no division */
    me->blockSize = (QMPoolSize)sizeof(QFreeBlock);  /* start with just one */
 800147c:	2304      	movs	r3, #4
    nblocks = (uint_fast16_t)1;/* #free blocks that fit in one memory block */
 800147e:	2701      	movs	r7, #1
    me->blockSize = (QMPoolSize)sizeof(QFreeBlock);  /* start with just one */
 8001480:	81a3      	strh	r3, [r4, #12]
    me->free_head = poolSto;
 8001482:	f8c4 8000 	str.w	r8, [r4]
    while (me->blockSize < (QMPoolSize)blockSize) {
 8001486:	b2ab      	uxth	r3, r5
 8001488:	89a5      	ldrh	r5, [r4, #12]
 800148a:	429d      	cmp	r5, r3
 800148c:	d316      	bcc.n	80014bc <QMPool_init+0x60>
        ++nblocks;
    }
    blockSize = (uint_fast16_t)me->blockSize; /* round-up to nearest block */

    /* the pool buffer must fit at least one rounded-up block */
    Q_ASSERT_ID(110, poolSize >= (uint_fast32_t)blockSize);
 800148e:	42ae      	cmp	r6, r5
 8001490:	d203      	bcs.n	800149a <QMPool_init+0x3e>
 8001492:	216e      	movs	r1, #110	; 0x6e
 8001494:	480f      	ldr	r0, [pc, #60]	; (80014d4 <QMPool_init+0x78>)
 8001496:	f7ff fb7e 	bl	8000b96 <Q_onAssert>

    /* chain all blocks together in a free-list... */
    poolSize -= (uint_fast32_t)blockSize; /* don't count the last block */
    me->nTot  = (QMPoolCtr)1;    /* the last block already in the pool */
 800149a:	2301      	movs	r3, #1
 800149c:	81e3      	strh	r3, [r4, #14]
    fb = (QFreeBlock *)me->free_head; /* start at the head of the free list */
 800149e:	6823      	ldr	r3, [r4, #0]
    poolSize -= (uint_fast32_t)blockSize; /* don't count the last block */
 80014a0:	1b76      	subs	r6, r6, r5

    /* chain all blocks together in a free-list... */
    while (poolSize >= (uint_fast32_t)blockSize) {
        fb->next = &QF_PTR_AT_(fb, nblocks);/*point next link to next block */
 80014a2:	00bf      	lsls	r7, r7, #2
    while (poolSize >= (uint_fast32_t)blockSize) {
 80014a4:	42ae      	cmp	r6, r5
 80014a6:	d20d      	bcs.n	80014c4 <QMPool_init+0x68>
        fb = fb->next;           /* advance to the next block */
        poolSize -= (uint_fast32_t)blockSize; /* reduce available pool size */
        ++me->nTot;              /* increment the number of blocks so far */
    }

    fb->next  = (QFreeBlock *)0; /* the last link points to NULL */
 80014a8:	2200      	movs	r2, #0
 80014aa:	601a      	str	r2, [r3, #0]
    me->nFree = me->nTot;        /* all blocks are free */
 80014ac:	89e2      	ldrh	r2, [r4, #14]
    me->nMin  = me->nTot;        /* the minimum number of free blocks */
    me->start = poolSto;         /* the original start this pool buffer */
 80014ae:	f8c4 8004 	str.w	r8, [r4, #4]
    me->nFree = me->nTot;        /* all blocks are free */
 80014b2:	8222      	strh	r2, [r4, #16]
    me->nMin  = me->nTot;        /* the minimum number of free blocks */
 80014b4:	8262      	strh	r2, [r4, #18]
    me->end   = fb;              /* the last block in this pool */
 80014b6:	60a3      	str	r3, [r4, #8]
 80014b8:	e8bd 81f0 	ldmia.w	sp!, {r4, r5, r6, r7, r8, pc}
        me->blockSize += (QMPoolSize)sizeof(QFreeBlock);
 80014bc:	3504      	adds	r5, #4
 80014be:	81a5      	strh	r5, [r4, #12]
        ++nblocks;
 80014c0:	3701      	adds	r7, #1
 80014c2:	e7e1      	b.n	8001488 <QMPool_init+0x2c>
        fb->next = &QF_PTR_AT_(fb, nblocks);/*point next link to next block */
 80014c4:	19da      	adds	r2, r3, r7
 80014c6:	601a      	str	r2, [r3, #0]
        ++me->nTot;              /* increment the number of blocks so far */
 80014c8:	89e2      	ldrh	r2, [r4, #14]
        fb = fb->next;           /* advance to the next block */
 80014ca:	681b      	ldr	r3, [r3, #0]
        ++me->nTot;              /* increment the number of blocks so far */
 80014cc:	3201      	adds	r2, #1
        poolSize -= (uint_fast32_t)blockSize; /* reduce available pool size */
 80014ce:	1b76      	subs	r6, r6, r5
        ++me->nTot;              /* increment the number of blocks so far */
 80014d0:	81e2      	strh	r2, [r4, #14]
 80014d2:	e7e7      	b.n	80014a4 <QMPool_init+0x48>
 80014d4:	080022a6 	.word	0x080022a6

080014d8 <QMPool_put>:
*
* @usage
* The following example illustrates how to use QMPool_put():
* @include qmp_use.c
*/
void QMPool_put(QMPool * const me, void *b) {
 80014d8:	b538      	push	{r3, r4, r5, lr}
    QF_CRIT_STAT_

    /** @pre # free blocks cannot exceed the total # blocks and
    * the block pointer must be from this pool.
    */
    Q_REQUIRE_ID(200, (me->nFree < me->nTot)
 80014da:	8a03      	ldrh	r3, [r0, #16]
 80014dc:	89c2      	ldrh	r2, [r0, #14]
 80014de:	b29b      	uxth	r3, r3
 80014e0:	429a      	cmp	r2, r3
void QMPool_put(QMPool * const me, void *b) {
 80014e2:	4604      	mov	r4, r0
 80014e4:	460d      	mov	r5, r1
    Q_REQUIRE_ID(200, (me->nFree < me->nTot)
 80014e6:	d905      	bls.n	80014f4 <QMPool_put+0x1c>
 80014e8:	6843      	ldr	r3, [r0, #4]
 80014ea:	428b      	cmp	r3, r1
 80014ec:	d802      	bhi.n	80014f4 <QMPool_put+0x1c>
 80014ee:	6883      	ldr	r3, [r0, #8]
 80014f0:	4299      	cmp	r1, r3
 80014f2:	d903      	bls.n	80014fc <QMPool_put+0x24>
 80014f4:	21c8      	movs	r1, #200	; 0xc8
 80014f6:	4809      	ldr	r0, [pc, #36]	; (800151c <QMPool_put+0x44>)
 80014f8:	f7ff fb4d 	bl	8000b96 <Q_onAssert>
                      && QF_PTR_RANGE_(b, me->start, me->end));

    QF_CRIT_ENTRY_();
 80014fc:	233f      	movs	r3, #63	; 0x3f
 80014fe:	b672      	cpsid	i
 8001500:	f383 8811 	msr	BASEPRI, r3
 8001504:	b662      	cpsie	i
    ((QFreeBlock *)b)->next = (QFreeBlock *)me->free_head;/* link into list */
 8001506:	6823      	ldr	r3, [r4, #0]
 8001508:	602b      	str	r3, [r5, #0]
    me->free_head = b;      /* set as new head of the free list */
 800150a:	6025      	str	r5, [r4, #0]
    ++me->nFree;            /* one more free block in this pool */
 800150c:	8a23      	ldrh	r3, [r4, #16]
 800150e:	3301      	adds	r3, #1
 8001510:	b29b      	uxth	r3, r3
 8001512:	8223      	strh	r3, [r4, #16]
        QS_TIME_();         /* timestamp */
        QS_OBJ_(me);        /* this memory pool */
        QS_MPC_(me->nFree); /* the number of free blocks in the pool */
    QS_END_NOCRIT_()

    QF_CRIT_EXIT_();
 8001514:	2300      	movs	r3, #0
 8001516:	f383 8811 	msr	BASEPRI, r3
 800151a:	bd38      	pop	{r3, r4, r5, pc}
 800151c:	080022a6 	.word	0x080022a6

08001520 <QF_psInit>:
* @usage
* The following example shows the typical initialization sequence of QF:
* @include qf_main.c
*/
void QF_psInit(QSubscrList * const subscrSto, enum_t const maxSignal) {
    QF_subscrList_   = subscrSto;
 8001520:	4b03      	ldr	r3, [pc, #12]	; (8001530 <QF_psInit+0x10>)
 8001522:	6018      	str	r0, [r3, #0]
    QF_maxPubSignal_ = maxSignal;
 8001524:	4b03      	ldr	r3, [pc, #12]	; (8001534 <QF_psInit+0x14>)
 8001526:	6019      	str	r1, [r3, #0]

    /* zero the subscriber list, so that the framework can start correctly
    * even if the startup code fails to clear the uninitialized data
    * (as is required by the C Standard).
    */
    QF_bzero(subscrSto,
 8001528:	0089      	lsls	r1, r1, #2
 800152a:	f7ff be5d 	b.w	80011e8 <QF_bzero>
 800152e:	bf00      	nop
 8001530:	20000220 	.word	0x20000220
 8001534:	2000021c 	.word	0x2000021c

08001538 <QActive_subscribe>:
* @include qf_subscribe.c
*
* @sa
* QF_publish_(), QActive_unsubscribe(), and QActive_unsubscribeAll()
*/
void QActive_subscribe(QActive const * const me, enum_t const sig) {
 8001538:	b538      	push	{r3, r4, r5, lr}
    uint_fast8_t p = (uint_fast8_t)me->prio;
 800153a:	7f03      	ldrb	r3, [r0, #28]
    QF_CRIT_STAT_

    Q_REQUIRE_ID(300, ((enum_t)Q_USER_SIG <= sig)
 800153c:	2903      	cmp	r1, #3
void QActive_subscribe(QActive const * const me, enum_t const sig) {
 800153e:	460c      	mov	r4, r1
 8001540:	f103 35ff 	add.w	r5, r3, #4294967295	; 0xffffffff
    Q_REQUIRE_ID(300, ((enum_t)Q_USER_SIG <= sig)
 8001544:	dd0b      	ble.n	800155e <QActive_subscribe+0x26>
 8001546:	4a11      	ldr	r2, [pc, #68]	; (800158c <QActive_subscribe+0x54>)
 8001548:	6812      	ldr	r2, [r2, #0]
 800154a:	4291      	cmp	r1, r2
 800154c:	da07      	bge.n	800155e <QActive_subscribe+0x26>
 800154e:	b2ea      	uxtb	r2, r5
 8001550:	2a1f      	cmp	r2, #31
 8001552:	d804      	bhi.n	800155e <QActive_subscribe+0x26>
 8001554:	4a0e      	ldr	r2, [pc, #56]	; (8001590 <QActive_subscribe+0x58>)
 8001556:	f852 3023 	ldr.w	r3, [r2, r3, lsl #2]
 800155a:	4298      	cmp	r0, r3
 800155c:	d004      	beq.n	8001568 <QActive_subscribe+0x30>
 800155e:	f44f 7196 	mov.w	r1, #300	; 0x12c
 8001562:	480c      	ldr	r0, [pc, #48]	; (8001594 <QActive_subscribe+0x5c>)
 8001564:	f7ff fb17 	bl	8000b96 <Q_onAssert>
              && (sig < QF_maxPubSignal_)
              && ((uint_fast8_t)0 < p) && (p <= (uint_fast8_t)QF_MAX_ACTIVE)
              && (QF_active_[p] == me));

    QF_CRIT_ENTRY_();
 8001568:	233f      	movs	r3, #63	; 0x3f
 800156a:	b672      	cpsid	i
 800156c:	f383 8811 	msr	BASEPRI, r3
 8001570:	b662      	cpsie	i
        QS_SIG_((QSignal)sig);  /* the signal of this event */
        QS_OBJ_(me);            /* this active object */
    QS_END_NOCRIT_()

    /* set the priority bit */
    QPSet_insert(&QF_PTR_AT_(QF_subscrList_, sig), p);
 8001572:	4b09      	ldr	r3, [pc, #36]	; (8001598 <QActive_subscribe+0x60>)
 8001574:	681a      	ldr	r2, [r3, #0]
 8001576:	2301      	movs	r3, #1
 8001578:	f852 1024 	ldr.w	r1, [r2, r4, lsl #2]
 800157c:	40ab      	lsls	r3, r5
 800157e:	430b      	orrs	r3, r1
 8001580:	f842 3024 	str.w	r3, [r2, r4, lsl #2]

    QF_CRIT_EXIT_();
 8001584:	2300      	movs	r3, #0
 8001586:	f383 8811 	msr	BASEPRI, r3
 800158a:	bd38      	pop	{r3, r4, r5, pc}
 800158c:	2000021c 	.word	0x2000021c
 8001590:	20000158 	.word	0x20000158
 8001594:	080022ad 	.word	0x080022ad
 8001598:	20000220 	.word	0x20000220

0800159c <QActive_ctor>:
* @param[in]     initial  pointer to the event to be dispatched to the MSM
*
* @note  Must be called only __once__ before QMSM_INIT().
* @sa QMsm_ctor() and QHsm_ctor()
*/
void QActive_ctor(QActive * const me, QStateHandler initial) {
 800159c:	b538      	push	{r3, r4, r5, lr}
 800159e:	4604      	mov	r4, r0
 80015a0:	460d      	mov	r5, r1
    };
    /* clear the whole QActive object, so that the framework can start
    * correctly even if the startup code fails to clear the uninitialized
    * data (as is required by the C Standard).
    */
    QF_bzero(me, (uint_fast16_t)sizeof(*me));
 80015a2:	2120      	movs	r1, #32
 80015a4:	f7ff fe20 	bl	80011e8 <QF_bzero>

    QHsm_ctor(&me->super, initial); /* explicitly call superclass' ctor */
 80015a8:	4629      	mov	r1, r5
 80015aa:	4620      	mov	r0, r4
 80015ac:	f7ff fdf4 	bl	8001198 <QHsm_ctor>
    me->super.vptr = &vtbl.super; /* hook the vptr to QActive virtual table */
 80015b0:	4b01      	ldr	r3, [pc, #4]	; (80015b8 <QActive_ctor+0x1c>)
 80015b2:	6023      	str	r3, [r4, #0]
 80015b4:	bd38      	pop	{r3, r4, r5, pc}
 80015b6:	bf00      	nop
 80015b8:	080022b4 	.word	0x080022b4

080015bc <QEQueue_init>:
* objects in the built-int QV and QK kernels, as well as other
* QP ports to OSes/RTOSes that do provide a suitable message queue.
*/
void QEQueue_init(QEQueue * const me, QEvt const *qSto[],
                  uint_fast16_t const qLen)
{
 80015bc:	b510      	push	{r4, lr}
    me->frontEvt = (QEvt const *)0; /* no events in the queue */
 80015be:	2400      	movs	r4, #0
    me->ring     = &qSto[0];        /* the beginning of the ring buffer */
    me->end      = (QEQueueCtr)qLen;
 80015c0:	b2d3      	uxtb	r3, r2
    me->frontEvt = (QEvt const *)0; /* no events in the queue */
 80015c2:	6004      	str	r4, [r0, #0]
    me->ring     = &qSto[0];        /* the beginning of the ring buffer */
 80015c4:	6041      	str	r1, [r0, #4]
    me->end      = (QEQueueCtr)qLen;
 80015c6:	7203      	strb	r3, [r0, #8]
    if (qLen != (uint_fast16_t)0) {
 80015c8:	b10a      	cbz	r2, 80015ce <QEQueue_init+0x12>
        me->head = (QEQueueCtr)0;
 80015ca:	7244      	strb	r4, [r0, #9]
        me->tail = (QEQueueCtr)0;
 80015cc:	7284      	strb	r4, [r0, #10]
    }
    me->nFree    = (QEQueueCtr)(qLen + (uint_fast16_t)1); /*+1 for frontEvt */
 80015ce:	3301      	adds	r3, #1
 80015d0:	b2db      	uxtb	r3, r3
 80015d2:	72c3      	strb	r3, [r0, #11]
    me->nMin     = me->nFree;
 80015d4:	7ac3      	ldrb	r3, [r0, #11]
 80015d6:	7303      	strb	r3, [r0, #12]
 80015d8:	bd10      	pop	{r4, pc}
	...

080015dc <QF_tickX_>:
#ifndef Q_SPY
void QF_tickX_(uint_fast8_t const tickRate)
#else
void QF_tickX_(uint_fast8_t const tickRate, void const * const sender)
#endif
{
 80015dc:	b570      	push	{r4, r5, r6, lr}
    QTimeEvt *prev = &QF_timeEvtHead_[tickRate];
 80015de:	4c25      	ldr	r4, [pc, #148]	; (8001674 <QF_tickX_+0x98>)
    QF_CRIT_STAT_

    QF_CRIT_ENTRY_();
 80015e0:	233f      	movs	r3, #63	; 0x3f
    QTimeEvt *prev = &QF_timeEvtHead_[tickRate];
 80015e2:	eb04 1400 	add.w	r4, r4, r0, lsl #4
    QF_CRIT_ENTRY_();
 80015e6:	b672      	cpsid	i
 80015e8:	f383 8811 	msr	BASEPRI, r3
 80015ec:	b662      	cpsie	i
                /* QACTIVE_POST() asserts internally if the queue overflows */
                QACTIVE_POST(act, &t->super, sender);
            }
            else {
                prev = t;         /* advance to this time event */
                QF_CRIT_EXIT_();  /* exit crit. section to reduce latency */
 80015ee:	2600      	movs	r6, #0
            if (QF_timeEvtHead_[tickRate].act != (void *)0) {
 80015f0:	4625      	mov	r5, r4
        QTimeEvt *t = prev->next;  /* advance down the time evt. list */
 80015f2:	6861      	ldr	r1, [r4, #4]
        if (t == (QTimeEvt *)0) {
 80015f4:	b931      	cbnz	r1, 8001604 <QF_tickX_+0x28>
            if (QF_timeEvtHead_[tickRate].act != (void *)0) {
 80015f6:	68ab      	ldr	r3, [r5, #8]
 80015f8:	2b00      	cmp	r3, #0
 80015fa:	d038      	beq.n	800166e <QF_tickX_+0x92>
                prev->next = (QTimeEvt *)QF_timeEvtHead_[tickRate].act;
 80015fc:	68ab      	ldr	r3, [r5, #8]
 80015fe:	6063      	str	r3, [r4, #4]
                QF_timeEvtHead_[tickRate].act = (void *)0;
 8001600:	60a9      	str	r1, [r5, #8]
                t = prev->next;  /* switch to the new list */
 8001602:	6861      	ldr	r1, [r4, #4]
        if (t->ctr == (QTimeEvtCtr)0) {
 8001604:	898b      	ldrh	r3, [r1, #12]
 8001606:	b29b      	uxth	r3, r3
 8001608:	b98b      	cbnz	r3, 800162e <QF_tickX_+0x52>
            prev->next = t->next;
 800160a:	684a      	ldr	r2, [r1, #4]
 800160c:	6062      	str	r2, [r4, #4]
            t->super.refCtr_ &= (uint8_t)(~(uint8_t)TE_IS_LINKED);
 800160e:	78ca      	ldrb	r2, [r1, #3]
 8001610:	f002 027f 	and.w	r2, r2, #127	; 0x7f
 8001614:	70ca      	strb	r2, [r1, #3]
            QF_CRIT_EXIT_(); /* exit crit. section to reduce latency */
 8001616:	f383 8811 	msr	BASEPRI, r3
            QF_CRIT_EXIT_NOP();
 800161a:	f3bf 8f6f 	isb	sy
 800161e:	4621      	mov	r1, r4

                /* prevent merging critical sections, see NOTE1 below  */
                QF_CRIT_EXIT_NOP();
            }
        }
        QF_CRIT_ENTRY_(); /* re-enter crit. section to continue */
 8001620:	233f      	movs	r3, #63	; 0x3f
 8001622:	b672      	cpsid	i
 8001624:	f383 8811 	msr	BASEPRI, r3
 8001628:	b662      	cpsie	i
    for (;;) {
 800162a:	460c      	mov	r4, r1
 800162c:	e7e1      	b.n	80015f2 <QF_tickX_+0x16>
            --t->ctr;
 800162e:	898b      	ldrh	r3, [r1, #12]
 8001630:	3b01      	subs	r3, #1
 8001632:	b29b      	uxth	r3, r3
 8001634:	818b      	strh	r3, [r1, #12]
            if (t->ctr == (QTimeEvtCtr)0) {
 8001636:	898b      	ldrh	r3, [r1, #12]
 8001638:	b29b      	uxth	r3, r3
 800163a:	b99b      	cbnz	r3, 8001664 <QF_tickX_+0x88>
                if (t->interval != (QTimeEvtCtr)0) {
 800163c:	89cb      	ldrh	r3, [r1, #14]
                QActive *act = (QActive *)t->act; /* temp. for volatile */
 800163e:	6888      	ldr	r0, [r1, #8]
                if (t->interval != (QTimeEvtCtr)0) {
 8001640:	b14b      	cbz	r3, 8001656 <QF_tickX_+0x7a>
 8001642:	460c      	mov	r4, r1
                    t->ctr = t->interval; /* rearm the time event */
 8001644:	818b      	strh	r3, [r1, #12]
                QF_CRIT_EXIT_(); /* exit critical section before posting */
 8001646:	f386 8811 	msr	BASEPRI, r6
                QACTIVE_POST(act, &t->super, sender);
 800164a:	6803      	ldr	r3, [r0, #0]
 800164c:	f64f 72ff 	movw	r2, #65535	; 0xffff
 8001650:	68db      	ldr	r3, [r3, #12]
 8001652:	4798      	blx	r3
 8001654:	e7e3      	b.n	800161e <QF_tickX_+0x42>
                    prev->next = t->next;
 8001656:	684b      	ldr	r3, [r1, #4]
 8001658:	6063      	str	r3, [r4, #4]
                    t->super.refCtr_ &= (uint8_t)(~(uint8_t)TE_IS_LINKED);
 800165a:	78cb      	ldrb	r3, [r1, #3]
 800165c:	f003 037f 	and.w	r3, r3, #127	; 0x7f
 8001660:	70cb      	strb	r3, [r1, #3]
 8001662:	e7f0      	b.n	8001646 <QF_tickX_+0x6a>
                QF_CRIT_EXIT_();  /* exit crit. section to reduce latency */
 8001664:	f386 8811 	msr	BASEPRI, r6
                QF_CRIT_EXIT_NOP();
 8001668:	f3bf 8f6f 	isb	sy
 800166c:	e7d8      	b.n	8001620 <QF_tickX_+0x44>
    }
    QF_CRIT_EXIT_();
 800166e:	f383 8811 	msr	BASEPRI, r3
 8001672:	bd70      	pop	{r4, r5, r6, pc}
 8001674:	20000224 	.word	0x20000224

08001678 <QTimeEvt_ctorX>:
*/
void QTimeEvt_ctorX(QTimeEvt * const me, QActive * const act,
                    enum_t const sig, uint_fast8_t tickRate)
{
    /** @pre The signal must be valid and the tick rate in range */
    Q_REQUIRE_ID(300, (sig >= (enum_t)Q_USER_SIG)
 8001678:	2a03      	cmp	r2, #3
{
 800167a:	b5f8      	push	{r3, r4, r5, r6, r7, lr}
 800167c:	4604      	mov	r4, r0
 800167e:	460f      	mov	r7, r1
 8001680:	4616      	mov	r6, r2
 8001682:	461d      	mov	r5, r3
    Q_REQUIRE_ID(300, (sig >= (enum_t)Q_USER_SIG)
 8001684:	dd01      	ble.n	800168a <QTimeEvt_ctorX+0x12>
 8001686:	2b01      	cmp	r3, #1
 8001688:	d904      	bls.n	8001694 <QTimeEvt_ctorX+0x1c>
 800168a:	f44f 7196 	mov.w	r1, #300	; 0x12c
 800168e:	4806      	ldr	r0, [pc, #24]	; (80016a8 <QTimeEvt_ctorX+0x30>)
 8001690:	f7ff fa81 	bl	8000b96 <Q_onAssert>
        && (tickRate < (uint_fast8_t)QF_MAX_TICK_RATE));

    me->next      = (QTimeEvt *)0;
 8001694:	2300      	movs	r3, #0
    me->super.poolId_ = (uint8_t)0;

    /* The refCtr_ attribute is not used in time events, so it is
    * reused to hold the tickRate as well as other information
    */
    me->super.refCtr_ = (uint8_t)tickRate;
 8001696:	b2ed      	uxtb	r5, r5
    me->next      = (QTimeEvt *)0;
 8001698:	6063      	str	r3, [r4, #4]
    me->super.poolId_ = (uint8_t)0;
 800169a:	70a3      	strb	r3, [r4, #2]
    me->ctr       = (QTimeEvtCtr)0;
 800169c:	81a3      	strh	r3, [r4, #12]
    me->act       = act;
 800169e:	60a7      	str	r7, [r4, #8]
    me->super.refCtr_ = (uint8_t)tickRate;
 80016a0:	70e5      	strb	r5, [r4, #3]
    me->interval  = (QTimeEvtCtr)0;
 80016a2:	81e3      	strh	r3, [r4, #14]
    me->super.sig = (QSignal)sig;
 80016a4:	8026      	strh	r6, [r4, #0]
    me->super.refCtr_ = (uint8_t)tickRate;
 80016a6:	bdf8      	pop	{r3, r4, r5, r6, r7, pc}
 80016a8:	080022c8 	.word	0x080022c8

080016ac <QTimeEvt_armX>:
* machine of an active object:
* @include qf_state.c
*/
void QTimeEvt_armX(QTimeEvt * const me,
                   QTimeEvtCtr const nTicks, QTimeEvtCtr const interval)
{
 80016ac:	b5f8      	push	{r3, r4, r5, r6, r7, lr}
    uint_fast8_t tickRate = ((uint_fast8_t)me->super.refCtr_
 80016ae:	78c3      	ldrb	r3, [r0, #3]
{
 80016b0:	4617      	mov	r7, r2
 80016b2:	f003 050f 	and.w	r5, r3, #15
                             & (uint_fast8_t)TE_TICK_RATE);
    QTimeEvtCtr ctr = me->ctr;
 80016b6:	8983      	ldrh	r3, [r0, #12]
    QF_CRIT_STAT_

    /** @pre the host AO must be valid, time evnet must be disarmed,
    * number of clock ticks cannot be zero, and the signal must be valid.
    */
    Q_REQUIRE_ID(400, (me->act != (void *)0)
 80016b8:	6882      	ldr	r2, [r0, #8]
{
 80016ba:	4604      	mov	r4, r0
 80016bc:	460e      	mov	r6, r1
    QTimeEvtCtr ctr = me->ctr;
 80016be:	b29b      	uxth	r3, r3
    Q_REQUIRE_ID(400, (me->act != (void *)0)
 80016c0:	b132      	cbz	r2, 80016d0 <QTimeEvt_armX+0x24>
 80016c2:	b92b      	cbnz	r3, 80016d0 <QTimeEvt_armX+0x24>
 80016c4:	b121      	cbz	r1, 80016d0 <QTimeEvt_armX+0x24>
 80016c6:	2d01      	cmp	r5, #1
 80016c8:	d802      	bhi.n	80016d0 <QTimeEvt_armX+0x24>
 80016ca:	8803      	ldrh	r3, [r0, #0]
 80016cc:	2b03      	cmp	r3, #3
 80016ce:	d804      	bhi.n	80016da <QTimeEvt_armX+0x2e>
 80016d0:	f44f 71c8 	mov.w	r1, #400	; 0x190
 80016d4:	480d      	ldr	r0, [pc, #52]	; (800170c <QTimeEvt_armX+0x60>)
 80016d6:	f7ff fa5e 	bl	8000b96 <Q_onAssert>
                 && (ctr == (QTimeEvtCtr)0)
                 && (nTicks != (QTimeEvtCtr)0)
                 && (tickRate < (uint_fast8_t)QF_MAX_TICK_RATE)
                 && (me->super.sig >= (QSignal)Q_USER_SIG));

    QF_CRIT_ENTRY_();
 80016da:	233f      	movs	r3, #63	; 0x3f
 80016dc:	b672      	cpsid	i
 80016de:	f383 8811 	msr	BASEPRI, r3
 80016e2:	b662      	cpsie	i
    me->ctr = nTicks;
 80016e4:	81a6      	strh	r6, [r4, #12]
    /* is the time event unlinked?
    * NOTE: For the duration of a single clock tick of the specified tick
    * rate a time event can be disarmed and yet still linked into the list,
    * because un-linking is performed exclusively in the QF_tickX() function.
    */
    if ((me->super.refCtr_ & (uint8_t)TE_IS_LINKED) == (uint8_t)0) {
 80016e6:	78e3      	ldrb	r3, [r4, #3]
    me->interval = interval;
 80016e8:	81e7      	strh	r7, [r4, #14]
    if ((me->super.refCtr_ & (uint8_t)TE_IS_LINKED) == (uint8_t)0) {
 80016ea:	061b      	lsls	r3, r3, #24
 80016ec:	d409      	bmi.n	8001702 <QTimeEvt_armX+0x56>
        me->super.refCtr_ |= (uint8_t)TE_IS_LINKED; /* mark as linked */
 80016ee:	78e3      	ldrb	r3, [r4, #3]
 80016f0:	f043 0380 	orr.w	r3, r3, #128	; 0x80
 80016f4:	70e3      	strb	r3, [r4, #3]
        * list is appended to the main list of armed time events based on
        * QF_timeEvtHead_[tickRate].next. Again, this is to keep any
        * changes to the main list exclusively inside the QF_tickX()
        * function.
        */
        me->next = (QTimeEvt *)QF_timeEvtHead_[tickRate].act;
 80016f6:	4b06      	ldr	r3, [pc, #24]	; (8001710 <QTimeEvt_armX+0x64>)
 80016f8:	eb03 1305 	add.w	r3, r3, r5, lsl #4
 80016fc:	689a      	ldr	r2, [r3, #8]
 80016fe:	6062      	str	r2, [r4, #4]
        QF_timeEvtHead_[tickRate].act = me;
 8001700:	609c      	str	r4, [r3, #8]
        QS_TEC_(nTicks);   /* the number of ticks */
        QS_TEC_(interval); /* the interval */
        QS_U8_((uint8_t)tickRate); /* tick rate */
    QS_END_NOCRIT_()

    QF_CRIT_EXIT_();
 8001702:	2300      	movs	r3, #0
 8001704:	f383 8811 	msr	BASEPRI, r3
 8001708:	bdf8      	pop	{r3, r4, r5, r6, r7, pc}
 800170a:	bf00      	nop
 800170c:	080022c8 	.word	0x080022c8
 8001710:	20000224 	.word	0x20000224

08001714 <QF_init>:
*
* @note QF_init() clears the internal QF variables, so that the framework
* can start correctly even if the startup code fails to clear the
* uninitialized data (as is required by the C Standard).
*/
void QF_init(void) {
 8001714:	b508      	push	{r3, lr}
    QF_maxPool_      = (uint_fast8_t)0;
 8001716:	2300      	movs	r3, #0
 8001718:	4a0a      	ldr	r2, [pc, #40]	; (8001744 <QF_init+0x30>)
    QF_subscrList_   = (QSubscrList *)0;
    QF_maxPubSignal_ = (enum_t)0;

    QF_bzero(&QF_timeEvtHead_[0], (uint_fast16_t)sizeof(QF_timeEvtHead_));
 800171a:	2120      	movs	r1, #32
    QF_maxPool_      = (uint_fast8_t)0;
 800171c:	6013      	str	r3, [r2, #0]
    QF_subscrList_   = (QSubscrList *)0;
 800171e:	4a0a      	ldr	r2, [pc, #40]	; (8001748 <QF_init+0x34>)
    QF_bzero(&QF_timeEvtHead_[0], (uint_fast16_t)sizeof(QF_timeEvtHead_));
 8001720:	480a      	ldr	r0, [pc, #40]	; (800174c <QF_init+0x38>)
    QF_subscrList_   = (QSubscrList *)0;
 8001722:	6013      	str	r3, [r2, #0]
    QF_maxPubSignal_ = (enum_t)0;
 8001724:	4a0a      	ldr	r2, [pc, #40]	; (8001750 <QF_init+0x3c>)
 8001726:	6013      	str	r3, [r2, #0]
    QF_bzero(&QF_timeEvtHead_[0], (uint_fast16_t)sizeof(QF_timeEvtHead_));
 8001728:	f7ff fd5e 	bl	80011e8 <QF_bzero>
    QF_bzero(&QF_active_[0],      (uint_fast16_t)sizeof(QF_active_));
 800172c:	2184      	movs	r1, #132	; 0x84
 800172e:	4809      	ldr	r0, [pc, #36]	; (8001754 <QF_init+0x40>)
 8001730:	f7ff fd5a 	bl	80011e8 <QF_bzero>
    QF_bzero(&QV_readySet_,       (uint_fast16_t)sizeof(QV_readySet_));
 8001734:	2104      	movs	r1, #4
 8001736:	4808      	ldr	r0, [pc, #32]	; (8001758 <QF_init+0x44>)
 8001738:	f7ff fd56 	bl	80011e8 <QF_bzero>

#ifdef QV_INIT
    QV_INIT(); /* port-specific initialization of the QV kernel */
#endif
}
 800173c:	e8bd 4008 	ldmia.w	sp!, {r3, lr}
    QV_INIT(); /* port-specific initialization of the QV kernel */
 8001740:	f7ff bbce 	b.w	8000ee0 <QV_init>
 8001744:	20000218 	.word	0x20000218
 8001748:	20000220 	.word	0x20000220
 800174c:	20000224 	.word	0x20000224
 8001750:	2000021c 	.word	0x2000021c
 8001754:	20000158 	.word	0x20000158
 8001758:	20000244 	.word	0x20000244

0800175c <QF_stop>:
* (and possibly re-setting) the system.
*
* @sa QF_onCleanup()
*/
void QF_stop(void) {
    QF_onCleanup(); /* application-specific cleanup callback */
 800175c:	f7ff ba12 	b.w	8000b84 <QF_onCleanup>

08001760 <QF_run>:
* QF_run() is typically called from main() after you initialize
* the QF and start at least one active object with QACTIVE_START().
*
* @returns In QV, the QF_run() function does not return.
*/
int_t QF_run(void) {
 8001760:	e92d 43f8 	stmdb	sp!, {r3, r4, r5, r6, r7, r8, r9, lr}
#ifdef Q_SPY
    uint_fast8_t pprev = (uint_fast8_t)0; /* previously used priority */
#endif

    QF_onStartup(); /* application-specific startup callback */
 8001764:	f7ff fa0d 	bl	8000b82 <QF_onStartup>

    /* the combined event-loop and background-loop of the QV kernel... */
    QF_INT_DISABLE();
 8001768:	253f      	movs	r5, #63	; 0x3f
 800176a:	b672      	cpsid	i
 800176c:	f385 8811 	msr	BASEPRI, r5
 8001770:	b662      	cpsie	i
        QEvt const *e;
        QActive *a;
        uint_fast8_t p;

        /* find the maximum priority AO ready to run */
        if (QPSet_notEmpty(&QV_readySet_)) {
 8001772:	4e19      	ldr	r6, [pc, #100]	; (80017d8 <QF_run+0x78>)
            QPSet_findMax(&QV_readySet_, p);
            a = QF_active_[p];
 8001774:	f8df 8064 	ldr.w	r8, [pc, #100]	; 80017dc <QF_run+0x7c>
        if (QPSet_notEmpty(&QV_readySet_)) {
 8001778:	6833      	ldr	r3, [r6, #0]
 800177a:	b333      	cbz	r3, 80017ca <QF_run+0x6a>
            QPSet_findMax(&QV_readySet_, p);
 800177c:	6834      	ldr	r4, [r6, #0]
 800177e:	fab4 f484 	clz	r4, r4
 8001782:	f1c4 0320 	rsb	r3, r4, #32
            a = QF_active_[p];
 8001786:	f858 7023 	ldr.w	r7, [r8, r3, lsl #2]
            QS_END_NOCRIT_()

            pprev = p; /* update previous priority */
#endif /* Q_SPY */

            QF_INT_ENABLE();
 800178a:	2300      	movs	r3, #0
 800178c:	f383 8811 	msr	BASEPRI, r3
            * 1. retrieve the event from the AO's event queue, which by this
            *    time must be non-empty and The "Vanialla" kernel asserts it.
            * 2. dispatch the event to the AO's state machine.
            * 3. determine if event is garbage and collect it if so
            */
            e = QActive_get_(a);
 8001790:	4638      	mov	r0, r7
 8001792:	f7ff fdcd 	bl	8001330 <QActive_get_>
 8001796:	4681      	mov	r9, r0
            QHSM_DISPATCH(&a->super, e);
 8001798:	683b      	ldr	r3, [r7, #0]
 800179a:	4601      	mov	r1, r0
 800179c:	685b      	ldr	r3, [r3, #4]
 800179e:	4638      	mov	r0, r7
 80017a0:	4798      	blx	r3
            QF_gc(e);
 80017a2:	4648      	mov	r0, r9
 80017a4:	f7ff fe28 	bl	80013f8 <QF_gc>

            QF_INT_DISABLE();
 80017a8:	b672      	cpsid	i
 80017aa:	f385 8811 	msr	BASEPRI, r5
 80017ae:	b662      	cpsie	i

            if (a->eQueue.frontEvt == (QEvt const *)0) { /* empty queue? */
 80017b0:	68fb      	ldr	r3, [r7, #12]
 80017b2:	2b00      	cmp	r3, #0
 80017b4:	d1e0      	bne.n	8001778 <QF_run+0x18>
                QPSet_remove(&QV_readySet_, p);
 80017b6:	2201      	movs	r2, #1
 80017b8:	6833      	ldr	r3, [r6, #0]
 80017ba:	f1c4 041f 	rsb	r4, r4, #31
 80017be:	fa02 f404 	lsl.w	r4, r2, r4
 80017c2:	ea23 0404 	bic.w	r4, r3, r4
 80017c6:	6034      	str	r4, [r6, #0]
 80017c8:	e7d6      	b.n	8001778 <QF_run+0x18>
            * queues) can change at any time by an interrupt posting events
            * to a queue. QV_onIdle() MUST enable interrupts internally,
            * perhaps at the same time as putting the CPU into a power-saving
            * mode.
            */
            QV_onIdle();
 80017ca:	f7ff f9e6 	bl	8000b9a <QV_onIdle>

            QF_INT_DISABLE();
 80017ce:	b672      	cpsid	i
 80017d0:	f385 8811 	msr	BASEPRI, r5
 80017d4:	b662      	cpsie	i
 80017d6:	e7cf      	b.n	8001778 <QF_run+0x18>
 80017d8:	20000244 	.word	0x20000244
 80017dc:	20000158 	.word	0x20000158

080017e0 <QActive_start_>:
*/
void QActive_start_(QActive * const me, uint_fast8_t prio,
                    QEvt const *qSto[], uint_fast16_t qLen,
                    void *stkSto, uint_fast16_t stkSize,
                    QEvt const *ie)
{
 80017e0:	e92d 41f0 	stmdb	sp!, {r4, r5, r6, r7, r8, lr}
 80017e4:	4617      	mov	r7, r2
    /** @pre The priority must be in range and the stack storage must not
    * be provided, because the QV kernel does not need per-AO stacks.
    */
    Q_REQUIRE_ID(500, ((uint_fast8_t)0 < prio)
 80017e6:	1e4a      	subs	r2, r1, #1
 80017e8:	2a1f      	cmp	r2, #31
{
 80017ea:	4698      	mov	r8, r3
 80017ec:	4604      	mov	r4, r0
 80017ee:	460d      	mov	r5, r1
 80017f0:	9b06      	ldr	r3, [sp, #24]
 80017f2:	9e08      	ldr	r6, [sp, #32]
    Q_REQUIRE_ID(500, ((uint_fast8_t)0 < prio)
 80017f4:	d800      	bhi.n	80017f8 <QActive_start_+0x18>
 80017f6:	b123      	cbz	r3, 8001802 <QActive_start_+0x22>
 80017f8:	f44f 71fa 	mov.w	r1, #500	; 0x1f4
 80017fc:	4809      	ldr	r0, [pc, #36]	; (8001824 <QActive_start_+0x44>)
 80017fe:	f7ff f9ca 	bl	8000b96 <Q_onAssert>
                      && (prio <= (uint_fast8_t)QF_MAX_ACTIVE)
                      && (stkSto == (void *)0));

    (void)stkSize; /* unused parameter */

    QEQueue_init(&me->eQueue, qSto, qLen); /* initialize the built-in queue */
 8001802:	4639      	mov	r1, r7
 8001804:	4642      	mov	r2, r8
 8001806:	f104 000c 	add.w	r0, r4, #12
 800180a:	f7ff fed7 	bl	80015bc <QEQueue_init>
    me->prio = (uint8_t)prio; /* set the current priority of the AO */
    QF_add_(me); /* make QF aware of this active object */
 800180e:	4620      	mov	r0, r4
    me->prio = (uint8_t)prio; /* set the current priority of the AO */
 8001810:	7725      	strb	r5, [r4, #28]
    QF_add_(me); /* make QF aware of this active object */
 8001812:	f7ff fccb 	bl	80011ac <QF_add_>

    QHSM_INIT(&me->super, ie); /* take the top-most initial tran. */
 8001816:	6823      	ldr	r3, [r4, #0]
 8001818:	4631      	mov	r1, r6
 800181a:	4620      	mov	r0, r4
    QS_FLUSH();                /* flush the trace buffer to the host */
}
 800181c:	e8bd 41f0 	ldmia.w	sp!, {r4, r5, r6, r7, r8, lr}
    QHSM_INIT(&me->super, ie); /* take the top-most initial tran. */
 8001820:	681b      	ldr	r3, [r3, #0]
 8001822:	4718      	bx	r3
 8001824:	080022d0 	.word	0x080022d0

08001828 <Reset_Handler>:
  .weak Reset_Handler
  .type Reset_Handler, %function
Reset_Handler:

/* Copy the data segment initializers from flash to SRAM */
  movs r1, #0
 8001828:	2100      	movs	r1, #0
  b LoopCopyDataInit
 800182a:	e003      	b.n	8001834 <LoopCopyDataInit>

0800182c <CopyDataInit>:

CopyDataInit:
  ldr r3, =_sidata
 800182c:	4b0b      	ldr	r3, [pc, #44]	; (800185c <LoopFillZerobss+0x14>)
  ldr r3, [r3, r1]
 800182e:	585b      	ldr	r3, [r3, r1]
  str r3, [r0, r1]
 8001830:	5043      	str	r3, [r0, r1]
  adds r1, r1, #4
 8001832:	3104      	adds	r1, #4

08001834 <LoopCopyDataInit>:

LoopCopyDataInit:
  ldr r0, =_sdata
 8001834:	480a      	ldr	r0, [pc, #40]	; (8001860 <LoopFillZerobss+0x18>)
  ldr r3, =_edata
 8001836:	4b0b      	ldr	r3, [pc, #44]	; (8001864 <LoopFillZerobss+0x1c>)
  adds r2, r0, r1
 8001838:	1842      	adds	r2, r0, r1
  cmp r2, r3
 800183a:	429a      	cmp	r2, r3
  bcc CopyDataInit
 800183c:	d3f6      	bcc.n	800182c <CopyDataInit>
  ldr r2, =_sbss
 800183e:	4a0a      	ldr	r2, [pc, #40]	; (8001868 <LoopFillZerobss+0x20>)
  b LoopFillZerobss
 8001840:	e002      	b.n	8001848 <LoopFillZerobss>

08001842 <FillZerobss>:
/* Zero fill the bss segment. */
FillZerobss:
  movs r3, #0
 8001842:	2300      	movs	r3, #0
  str r3, [r2], #4
 8001844:	f842 3b04 	str.w	r3, [r2], #4

08001848 <LoopFillZerobss>:

LoopFillZerobss:
  ldr r3, = _ebss
 8001848:	4b08      	ldr	r3, [pc, #32]	; (800186c <LoopFillZerobss+0x24>)
  cmp r2, r3
 800184a:	429a      	cmp	r2, r3
  bcc FillZerobss
 800184c:	d3f9      	bcc.n	8001842 <FillZerobss>

/* Call the clock system intitialization function.*/
    bl  SystemInit
 800184e:	f7ff fb21 	bl	8000e94 <SystemInit>
/* Call static constructors */
    bl __libc_init_array
 8001852:	f000 f80f 	bl	8001874 <__libc_init_array>
/* Call the application's entry point.*/
  bl main
 8001856:	f7ff f9d1 	bl	8000bfc <main>
  bx lr
 800185a:	4770      	bx	lr
  ldr r3, =_sidata
 800185c:	08002340 	.word	0x08002340
  ldr r0, =_sdata
 8001860:	20000000 	.word	0x20000000
  ldr r3, =_edata
 8001864:	2000006c 	.word	0x2000006c
  ldr r2, =_sbss
 8001868:	2000006c 	.word	0x2000006c
  ldr r3, = _ebss
 800186c:	2000024c 	.word	0x2000024c

08001870 <ADC1_2_IRQHandler>:
 * @retval : None
*/
    .section .text.Default_Handler,"ax",%progbits
Default_Handler:
Infinite_Loop:
  b Infinite_Loop
 8001870:	e7fe      	b.n	8001870 <ADC1_2_IRQHandler>
	...

08001874 <__libc_init_array>:
 8001874:	b570      	push	{r4, r5, r6, lr}
 8001876:	2500      	movs	r5, #0
 8001878:	4e0c      	ldr	r6, [pc, #48]	; (80018ac <__libc_init_array+0x38>)
 800187a:	4c0d      	ldr	r4, [pc, #52]	; (80018b0 <__libc_init_array+0x3c>)
 800187c:	1ba4      	subs	r4, r4, r6
 800187e:	10a4      	asrs	r4, r4, #2
 8001880:	42a5      	cmp	r5, r4
 8001882:	d109      	bne.n	8001898 <__libc_init_array+0x24>
 8001884:	f000 fccc 	bl	8002220 <_init>
 8001888:	2500      	movs	r5, #0
 800188a:	4e0a      	ldr	r6, [pc, #40]	; (80018b4 <__libc_init_array+0x40>)
 800188c:	4c0a      	ldr	r4, [pc, #40]	; (80018b8 <__libc_init_array+0x44>)
 800188e:	1ba4      	subs	r4, r4, r6
 8001890:	10a4      	asrs	r4, r4, #2
 8001892:	42a5      	cmp	r5, r4
 8001894:	d105      	bne.n	80018a2 <__libc_init_array+0x2e>
 8001896:	bd70      	pop	{r4, r5, r6, pc}
 8001898:	f856 3025 	ldr.w	r3, [r6, r5, lsl #2]
 800189c:	4798      	blx	r3
 800189e:	3501      	adds	r5, #1
 80018a0:	e7ee      	b.n	8001880 <__libc_init_array+0xc>
 80018a2:	f856 3025 	ldr.w	r3, [r6, r5, lsl #2]
 80018a6:	4798      	blx	r3
 80018a8:	3501      	adds	r5, #1
 80018aa:	e7f2      	b.n	8001892 <__libc_init_array+0x1e>
 80018ac:	08002338 	.word	0x08002338
 80018b0:	08002338 	.word	0x08002338
 80018b4:	08002338 	.word	0x08002338
 80018b8:	0800233c 	.word	0x0800233c

080018bc <memset>:
 80018bc:	4603      	mov	r3, r0
 80018be:	4402      	add	r2, r0
 80018c0:	4293      	cmp	r3, r2
 80018c2:	d100      	bne.n	80018c6 <memset+0xa>
 80018c4:	4770      	bx	lr
 80018c6:	f803 1b01 	strb.w	r1, [r3], #1
 80018ca:	e7f9      	b.n	80018c0 <memset+0x4>

080018cc <_puts_r>:
 80018cc:	b570      	push	{r4, r5, r6, lr}
 80018ce:	460e      	mov	r6, r1
 80018d0:	4605      	mov	r5, r0
 80018d2:	b118      	cbz	r0, 80018dc <_puts_r+0x10>
 80018d4:	6983      	ldr	r3, [r0, #24]
 80018d6:	b90b      	cbnz	r3, 80018dc <_puts_r+0x10>
 80018d8:	f000 fa0e 	bl	8001cf8 <__sinit>
 80018dc:	69ab      	ldr	r3, [r5, #24]
 80018de:	68ac      	ldr	r4, [r5, #8]
 80018e0:	b913      	cbnz	r3, 80018e8 <_puts_r+0x1c>
 80018e2:	4628      	mov	r0, r5
 80018e4:	f000 fa08 	bl	8001cf8 <__sinit>
 80018e8:	4b23      	ldr	r3, [pc, #140]	; (8001978 <_puts_r+0xac>)
 80018ea:	429c      	cmp	r4, r3
 80018ec:	d117      	bne.n	800191e <_puts_r+0x52>
 80018ee:	686c      	ldr	r4, [r5, #4]
 80018f0:	89a3      	ldrh	r3, [r4, #12]
 80018f2:	071b      	lsls	r3, r3, #28
 80018f4:	d51d      	bpl.n	8001932 <_puts_r+0x66>
 80018f6:	6923      	ldr	r3, [r4, #16]
 80018f8:	b1db      	cbz	r3, 8001932 <_puts_r+0x66>
 80018fa:	3e01      	subs	r6, #1
 80018fc:	68a3      	ldr	r3, [r4, #8]
 80018fe:	f816 1f01 	ldrb.w	r1, [r6, #1]!
 8001902:	3b01      	subs	r3, #1
 8001904:	60a3      	str	r3, [r4, #8]
 8001906:	b9e9      	cbnz	r1, 8001944 <_puts_r+0x78>
 8001908:	2b00      	cmp	r3, #0
 800190a:	da2e      	bge.n	800196a <_puts_r+0x9e>
 800190c:	4622      	mov	r2, r4
 800190e:	210a      	movs	r1, #10
 8001910:	4628      	mov	r0, r5
 8001912:	f000 f83f 	bl	8001994 <__swbuf_r>
 8001916:	3001      	adds	r0, #1
 8001918:	d011      	beq.n	800193e <_puts_r+0x72>
 800191a:	200a      	movs	r0, #10
 800191c:	bd70      	pop	{r4, r5, r6, pc}
 800191e:	4b17      	ldr	r3, [pc, #92]	; (800197c <_puts_r+0xb0>)
 8001920:	429c      	cmp	r4, r3
 8001922:	d101      	bne.n	8001928 <_puts_r+0x5c>
 8001924:	68ac      	ldr	r4, [r5, #8]
 8001926:	e7e3      	b.n	80018f0 <_puts_r+0x24>
 8001928:	4b15      	ldr	r3, [pc, #84]	; (8001980 <_puts_r+0xb4>)
 800192a:	429c      	cmp	r4, r3
 800192c:	bf08      	it	eq
 800192e:	68ec      	ldreq	r4, [r5, #12]
 8001930:	e7de      	b.n	80018f0 <_puts_r+0x24>
 8001932:	4621      	mov	r1, r4
 8001934:	4628      	mov	r0, r5
 8001936:	f000 f87f 	bl	8001a38 <__swsetup_r>
 800193a:	2800      	cmp	r0, #0
 800193c:	d0dd      	beq.n	80018fa <_puts_r+0x2e>
 800193e:	f04f 30ff 	mov.w	r0, #4294967295	; 0xffffffff
 8001942:	bd70      	pop	{r4, r5, r6, pc}
 8001944:	2b00      	cmp	r3, #0
 8001946:	da04      	bge.n	8001952 <_puts_r+0x86>
 8001948:	69a2      	ldr	r2, [r4, #24]
 800194a:	4293      	cmp	r3, r2
 800194c:	db06      	blt.n	800195c <_puts_r+0x90>
 800194e:	290a      	cmp	r1, #10
 8001950:	d004      	beq.n	800195c <_puts_r+0x90>
 8001952:	6823      	ldr	r3, [r4, #0]
 8001954:	1c5a      	adds	r2, r3, #1
 8001956:	6022      	str	r2, [r4, #0]
 8001958:	7019      	strb	r1, [r3, #0]
 800195a:	e7cf      	b.n	80018fc <_puts_r+0x30>
 800195c:	4622      	mov	r2, r4
 800195e:	4628      	mov	r0, r5
 8001960:	f000 f818 	bl	8001994 <__swbuf_r>
 8001964:	3001      	adds	r0, #1
 8001966:	d1c9      	bne.n	80018fc <_puts_r+0x30>
 8001968:	e7e9      	b.n	800193e <_puts_r+0x72>
 800196a:	200a      	movs	r0, #10
 800196c:	6823      	ldr	r3, [r4, #0]
 800196e:	1c5a      	adds	r2, r3, #1
 8001970:	6022      	str	r2, [r4, #0]
 8001972:	7018      	strb	r0, [r3, #0]
 8001974:	bd70      	pop	{r4, r5, r6, pc}
 8001976:	bf00      	nop
 8001978:	080022f4 	.word	0x080022f4
 800197c:	08002314 	.word	0x08002314
 8001980:	080022d4 	.word	0x080022d4

08001984 <puts>:
 8001984:	4b02      	ldr	r3, [pc, #8]	; (8001990 <puts+0xc>)
 8001986:	4601      	mov	r1, r0
 8001988:	6818      	ldr	r0, [r3, #0]
 800198a:	f7ff bf9f 	b.w	80018cc <_puts_r>
 800198e:	bf00      	nop
 8001990:	20000008 	.word	0x20000008

08001994 <__swbuf_r>:
 8001994:	b5f8      	push	{r3, r4, r5, r6, r7, lr}
 8001996:	460e      	mov	r6, r1
 8001998:	4614      	mov	r4, r2
 800199a:	4605      	mov	r5, r0
 800199c:	b118      	cbz	r0, 80019a6 <__swbuf_r+0x12>
 800199e:	6983      	ldr	r3, [r0, #24]
 80019a0:	b90b      	cbnz	r3, 80019a6 <__swbuf_r+0x12>
 80019a2:	f000 f9a9 	bl	8001cf8 <__sinit>
 80019a6:	4b21      	ldr	r3, [pc, #132]	; (8001a2c <__swbuf_r+0x98>)
 80019a8:	429c      	cmp	r4, r3
 80019aa:	d12a      	bne.n	8001a02 <__swbuf_r+0x6e>
 80019ac:	686c      	ldr	r4, [r5, #4]
 80019ae:	69a3      	ldr	r3, [r4, #24]
 80019b0:	60a3      	str	r3, [r4, #8]
 80019b2:	89a3      	ldrh	r3, [r4, #12]
 80019b4:	071a      	lsls	r2, r3, #28
 80019b6:	d52e      	bpl.n	8001a16 <__swbuf_r+0x82>
 80019b8:	6923      	ldr	r3, [r4, #16]
 80019ba:	b363      	cbz	r3, 8001a16 <__swbuf_r+0x82>
 80019bc:	6923      	ldr	r3, [r4, #16]
 80019be:	6820      	ldr	r0, [r4, #0]
 80019c0:	b2f6      	uxtb	r6, r6
 80019c2:	1ac0      	subs	r0, r0, r3
 80019c4:	6963      	ldr	r3, [r4, #20]
 80019c6:	4637      	mov	r7, r6
 80019c8:	4298      	cmp	r0, r3
 80019ca:	db04      	blt.n	80019d6 <__swbuf_r+0x42>
 80019cc:	4621      	mov	r1, r4
 80019ce:	4628      	mov	r0, r5
 80019d0:	f000 f928 	bl	8001c24 <_fflush_r>
 80019d4:	bb28      	cbnz	r0, 8001a22 <__swbuf_r+0x8e>
 80019d6:	68a3      	ldr	r3, [r4, #8]
 80019d8:	3001      	adds	r0, #1
 80019da:	3b01      	subs	r3, #1
 80019dc:	60a3      	str	r3, [r4, #8]
 80019de:	6823      	ldr	r3, [r4, #0]
 80019e0:	1c5a      	adds	r2, r3, #1
 80019e2:	6022      	str	r2, [r4, #0]
 80019e4:	701e      	strb	r6, [r3, #0]
 80019e6:	6963      	ldr	r3, [r4, #20]
 80019e8:	4298      	cmp	r0, r3
 80019ea:	d004      	beq.n	80019f6 <__swbuf_r+0x62>
 80019ec:	89a3      	ldrh	r3, [r4, #12]
 80019ee:	07db      	lsls	r3, r3, #31
 80019f0:	d519      	bpl.n	8001a26 <__swbuf_r+0x92>
 80019f2:	2e0a      	cmp	r6, #10
 80019f4:	d117      	bne.n	8001a26 <__swbuf_r+0x92>
 80019f6:	4621      	mov	r1, r4
 80019f8:	4628      	mov	r0, r5
 80019fa:	f000 f913 	bl	8001c24 <_fflush_r>
 80019fe:	b190      	cbz	r0, 8001a26 <__swbuf_r+0x92>
 8001a00:	e00f      	b.n	8001a22 <__swbuf_r+0x8e>
 8001a02:	4b0b      	ldr	r3, [pc, #44]	; (8001a30 <__swbuf_r+0x9c>)
 8001a04:	429c      	cmp	r4, r3
 8001a06:	d101      	bne.n	8001a0c <__swbuf_r+0x78>
 8001a08:	68ac      	ldr	r4, [r5, #8]
 8001a0a:	e7d0      	b.n	80019ae <__swbuf_r+0x1a>
 8001a0c:	4b09      	ldr	r3, [pc, #36]	; (8001a34 <__swbuf_r+0xa0>)
 8001a0e:	429c      	cmp	r4, r3
 8001a10:	bf08      	it	eq
 8001a12:	68ec      	ldreq	r4, [r5, #12]
 8001a14:	e7cb      	b.n	80019ae <__swbuf_r+0x1a>
 8001a16:	4621      	mov	r1, r4
 8001a18:	4628      	mov	r0, r5
 8001a1a:	f000 f80d 	bl	8001a38 <__swsetup_r>
 8001a1e:	2800      	cmp	r0, #0
 8001a20:	d0cc      	beq.n	80019bc <__swbuf_r+0x28>
 8001a22:	f04f 37ff 	mov.w	r7, #4294967295	; 0xffffffff
 8001a26:	4638      	mov	r0, r7
 8001a28:	bdf8      	pop	{r3, r4, r5, r6, r7, pc}
 8001a2a:	bf00      	nop
 8001a2c:	080022f4 	.word	0x080022f4
 8001a30:	08002314 	.word	0x08002314
 8001a34:	080022d4 	.word	0x080022d4

08001a38 <__swsetup_r>:
 8001a38:	4b32      	ldr	r3, [pc, #200]	; (8001b04 <__swsetup_r+0xcc>)
 8001a3a:	b570      	push	{r4, r5, r6, lr}
 8001a3c:	681d      	ldr	r5, [r3, #0]
 8001a3e:	4606      	mov	r6, r0
 8001a40:	460c      	mov	r4, r1
 8001a42:	b125      	cbz	r5, 8001a4e <__swsetup_r+0x16>
 8001a44:	69ab      	ldr	r3, [r5, #24]
 8001a46:	b913      	cbnz	r3, 8001a4e <__swsetup_r+0x16>
 8001a48:	4628      	mov	r0, r5
 8001a4a:	f000 f955 	bl	8001cf8 <__sinit>
 8001a4e:	4b2e      	ldr	r3, [pc, #184]	; (8001b08 <__swsetup_r+0xd0>)
 8001a50:	429c      	cmp	r4, r3
 8001a52:	d10f      	bne.n	8001a74 <__swsetup_r+0x3c>
 8001a54:	686c      	ldr	r4, [r5, #4]
 8001a56:	f9b4 300c 	ldrsh.w	r3, [r4, #12]
 8001a5a:	b29a      	uxth	r2, r3
 8001a5c:	0715      	lsls	r5, r2, #28
 8001a5e:	d42c      	bmi.n	8001aba <__swsetup_r+0x82>
 8001a60:	06d0      	lsls	r0, r2, #27
 8001a62:	d411      	bmi.n	8001a88 <__swsetup_r+0x50>
 8001a64:	2209      	movs	r2, #9
 8001a66:	6032      	str	r2, [r6, #0]
 8001a68:	f043 0340 	orr.w	r3, r3, #64	; 0x40
 8001a6c:	81a3      	strh	r3, [r4, #12]
 8001a6e:	f04f 30ff 	mov.w	r0, #4294967295	; 0xffffffff
 8001a72:	bd70      	pop	{r4, r5, r6, pc}
 8001a74:	4b25      	ldr	r3, [pc, #148]	; (8001b0c <__swsetup_r+0xd4>)
 8001a76:	429c      	cmp	r4, r3
 8001a78:	d101      	bne.n	8001a7e <__swsetup_r+0x46>
 8001a7a:	68ac      	ldr	r4, [r5, #8]
 8001a7c:	e7eb      	b.n	8001a56 <__swsetup_r+0x1e>
 8001a7e:	4b24      	ldr	r3, [pc, #144]	; (8001b10 <__swsetup_r+0xd8>)
 8001a80:	429c      	cmp	r4, r3
 8001a82:	bf08      	it	eq
 8001a84:	68ec      	ldreq	r4, [r5, #12]
 8001a86:	e7e6      	b.n	8001a56 <__swsetup_r+0x1e>
 8001a88:	0751      	lsls	r1, r2, #29
 8001a8a:	d512      	bpl.n	8001ab2 <__swsetup_r+0x7a>
 8001a8c:	6b61      	ldr	r1, [r4, #52]	; 0x34
 8001a8e:	b141      	cbz	r1, 8001aa2 <__swsetup_r+0x6a>
 8001a90:	f104 0344 	add.w	r3, r4, #68	; 0x44
 8001a94:	4299      	cmp	r1, r3
 8001a96:	d002      	beq.n	8001a9e <__swsetup_r+0x66>
 8001a98:	4630      	mov	r0, r6
 8001a9a:	f000 fa1b 	bl	8001ed4 <_free_r>
 8001a9e:	2300      	movs	r3, #0
 8001aa0:	6363      	str	r3, [r4, #52]	; 0x34
 8001aa2:	89a3      	ldrh	r3, [r4, #12]
 8001aa4:	f023 0324 	bic.w	r3, r3, #36	; 0x24
 8001aa8:	81a3      	strh	r3, [r4, #12]
 8001aaa:	2300      	movs	r3, #0
 8001aac:	6063      	str	r3, [r4, #4]
 8001aae:	6923      	ldr	r3, [r4, #16]
 8001ab0:	6023      	str	r3, [r4, #0]
 8001ab2:	89a3      	ldrh	r3, [r4, #12]
 8001ab4:	f043 0308 	orr.w	r3, r3, #8
 8001ab8:	81a3      	strh	r3, [r4, #12]
 8001aba:	6923      	ldr	r3, [r4, #16]
 8001abc:	b94b      	cbnz	r3, 8001ad2 <__swsetup_r+0x9a>
 8001abe:	89a3      	ldrh	r3, [r4, #12]
 8001ac0:	f403 7320 	and.w	r3, r3, #640	; 0x280
 8001ac4:	f5b3 7f00 	cmp.w	r3, #512	; 0x200
 8001ac8:	d003      	beq.n	8001ad2 <__swsetup_r+0x9a>
 8001aca:	4621      	mov	r1, r4
 8001acc:	4630      	mov	r0, r6
 8001ace:	f000 f9c1 	bl	8001e54 <__smakebuf_r>
 8001ad2:	89a2      	ldrh	r2, [r4, #12]
 8001ad4:	f012 0301 	ands.w	r3, r2, #1
 8001ad8:	d00c      	beq.n	8001af4 <__swsetup_r+0xbc>
 8001ada:	2300      	movs	r3, #0
 8001adc:	60a3      	str	r3, [r4, #8]
 8001ade:	6963      	ldr	r3, [r4, #20]
 8001ae0:	425b      	negs	r3, r3
 8001ae2:	61a3      	str	r3, [r4, #24]
 8001ae4:	6923      	ldr	r3, [r4, #16]
 8001ae6:	b953      	cbnz	r3, 8001afe <__swsetup_r+0xc6>
 8001ae8:	f9b4 300c 	ldrsh.w	r3, [r4, #12]
 8001aec:	f013 0080 	ands.w	r0, r3, #128	; 0x80
 8001af0:	d1ba      	bne.n	8001a68 <__swsetup_r+0x30>
 8001af2:	bd70      	pop	{r4, r5, r6, pc}
 8001af4:	0792      	lsls	r2, r2, #30
 8001af6:	bf58      	it	pl
 8001af8:	6963      	ldrpl	r3, [r4, #20]
 8001afa:	60a3      	str	r3, [r4, #8]
 8001afc:	e7f2      	b.n	8001ae4 <__swsetup_r+0xac>
 8001afe:	2000      	movs	r0, #0
 8001b00:	e7f7      	b.n	8001af2 <__swsetup_r+0xba>
 8001b02:	bf00      	nop
 8001b04:	20000008 	.word	0x20000008
 8001b08:	080022f4 	.word	0x080022f4
 8001b0c:	08002314 	.word	0x08002314
 8001b10:	080022d4 	.word	0x080022d4

08001b14 <__sflush_r>:
 8001b14:	898a      	ldrh	r2, [r1, #12]
 8001b16:	e92d 41f0 	stmdb	sp!, {r4, r5, r6, r7, r8, lr}
 8001b1a:	4605      	mov	r5, r0
 8001b1c:	0710      	lsls	r0, r2, #28
 8001b1e:	460c      	mov	r4, r1
 8001b20:	d45a      	bmi.n	8001bd8 <__sflush_r+0xc4>
 8001b22:	684b      	ldr	r3, [r1, #4]
 8001b24:	2b00      	cmp	r3, #0
 8001b26:	dc05      	bgt.n	8001b34 <__sflush_r+0x20>
 8001b28:	6c0b      	ldr	r3, [r1, #64]	; 0x40
 8001b2a:	2b00      	cmp	r3, #0
 8001b2c:	dc02      	bgt.n	8001b34 <__sflush_r+0x20>
 8001b2e:	2000      	movs	r0, #0
 8001b30:	e8bd 81f0 	ldmia.w	sp!, {r4, r5, r6, r7, r8, pc}
 8001b34:	6ae6      	ldr	r6, [r4, #44]	; 0x2c
 8001b36:	2e00      	cmp	r6, #0
 8001b38:	d0f9      	beq.n	8001b2e <__sflush_r+0x1a>
 8001b3a:	2300      	movs	r3, #0
 8001b3c:	f412 5280 	ands.w	r2, r2, #4096	; 0x1000
 8001b40:	682f      	ldr	r7, [r5, #0]
 8001b42:	602b      	str	r3, [r5, #0]
 8001b44:	d033      	beq.n	8001bae <__sflush_r+0x9a>
 8001b46:	6d60      	ldr	r0, [r4, #84]	; 0x54
 8001b48:	89a3      	ldrh	r3, [r4, #12]
 8001b4a:	075a      	lsls	r2, r3, #29
 8001b4c:	d505      	bpl.n	8001b5a <__sflush_r+0x46>
 8001b4e:	6863      	ldr	r3, [r4, #4]
 8001b50:	1ac0      	subs	r0, r0, r3
 8001b52:	6b63      	ldr	r3, [r4, #52]	; 0x34
 8001b54:	b10b      	cbz	r3, 8001b5a <__sflush_r+0x46>
 8001b56:	6c23      	ldr	r3, [r4, #64]	; 0x40
 8001b58:	1ac0      	subs	r0, r0, r3
 8001b5a:	2300      	movs	r3, #0
 8001b5c:	4602      	mov	r2, r0
 8001b5e:	6ae6      	ldr	r6, [r4, #44]	; 0x2c
 8001b60:	6a21      	ldr	r1, [r4, #32]
 8001b62:	4628      	mov	r0, r5
 8001b64:	47b0      	blx	r6
 8001b66:	1c43      	adds	r3, r0, #1
 8001b68:	89a3      	ldrh	r3, [r4, #12]
 8001b6a:	d106      	bne.n	8001b7a <__sflush_r+0x66>
 8001b6c:	6829      	ldr	r1, [r5, #0]
 8001b6e:	291d      	cmp	r1, #29
 8001b70:	d84b      	bhi.n	8001c0a <__sflush_r+0xf6>
 8001b72:	4a2b      	ldr	r2, [pc, #172]	; (8001c20 <__sflush_r+0x10c>)
 8001b74:	40ca      	lsrs	r2, r1
 8001b76:	07d6      	lsls	r6, r2, #31
 8001b78:	d547      	bpl.n	8001c0a <__sflush_r+0xf6>
 8001b7a:	2200      	movs	r2, #0
 8001b7c:	6062      	str	r2, [r4, #4]
 8001b7e:	6922      	ldr	r2, [r4, #16]
 8001b80:	04d9      	lsls	r1, r3, #19
 8001b82:	6022      	str	r2, [r4, #0]
 8001b84:	d504      	bpl.n	8001b90 <__sflush_r+0x7c>
 8001b86:	1c42      	adds	r2, r0, #1
 8001b88:	d101      	bne.n	8001b8e <__sflush_r+0x7a>
 8001b8a:	682b      	ldr	r3, [r5, #0]
 8001b8c:	b903      	cbnz	r3, 8001b90 <__sflush_r+0x7c>
 8001b8e:	6560      	str	r0, [r4, #84]	; 0x54
 8001b90:	6b61      	ldr	r1, [r4, #52]	; 0x34
 8001b92:	602f      	str	r7, [r5, #0]
 8001b94:	2900      	cmp	r1, #0
 8001b96:	d0ca      	beq.n	8001b2e <__sflush_r+0x1a>
 8001b98:	f104 0344 	add.w	r3, r4, #68	; 0x44
 8001b9c:	4299      	cmp	r1, r3
 8001b9e:	d002      	beq.n	8001ba6 <__sflush_r+0x92>
 8001ba0:	4628      	mov	r0, r5
 8001ba2:	f000 f997 	bl	8001ed4 <_free_r>
 8001ba6:	2000      	movs	r0, #0
 8001ba8:	6360      	str	r0, [r4, #52]	; 0x34
 8001baa:	e8bd 81f0 	ldmia.w	sp!, {r4, r5, r6, r7, r8, pc}
 8001bae:	6a21      	ldr	r1, [r4, #32]
 8001bb0:	2301      	movs	r3, #1
 8001bb2:	4628      	mov	r0, r5
 8001bb4:	47b0      	blx	r6
 8001bb6:	1c41      	adds	r1, r0, #1
 8001bb8:	d1c6      	bne.n	8001b48 <__sflush_r+0x34>
 8001bba:	682b      	ldr	r3, [r5, #0]
 8001bbc:	2b00      	cmp	r3, #0
 8001bbe:	d0c3      	beq.n	8001b48 <__sflush_r+0x34>
 8001bc0:	2b1d      	cmp	r3, #29
 8001bc2:	d001      	beq.n	8001bc8 <__sflush_r+0xb4>
 8001bc4:	2b16      	cmp	r3, #22
 8001bc6:	d101      	bne.n	8001bcc <__sflush_r+0xb8>
 8001bc8:	602f      	str	r7, [r5, #0]
 8001bca:	e7b0      	b.n	8001b2e <__sflush_r+0x1a>
 8001bcc:	89a3      	ldrh	r3, [r4, #12]
 8001bce:	f043 0340 	orr.w	r3, r3, #64	; 0x40
 8001bd2:	81a3      	strh	r3, [r4, #12]
 8001bd4:	e8bd 81f0 	ldmia.w	sp!, {r4, r5, r6, r7, r8, pc}
 8001bd8:	690f      	ldr	r7, [r1, #16]
 8001bda:	2f00      	cmp	r7, #0
